:020000040001F9
:10800000B0680020991D0200AB1D02003B810100F9
:108010000000000000000000000000000000000060
:10802000000000000000000000000000AF1D020082
:108030000000000000000000B11D0200B31D02009E
:10804000B51D0200B51D0200B51D0200B51D0200E0
:10805000B51D020000000000F5BC0100B51D0200C6
:10806000B7C90100C3C90100CFC90100B51D020095
:10807000B51D0200B51D0200B51D0200B51D0200B0
:10808000B51D020037D2010067E40100B51D0200F2
:1080900059D20100B51D0200D3E10100B51D020057
:1080A000B51D0200B51D0200000000000000000028
:1080B00000000000000000000000000000000000C0
:1080C000034885460AF0B4F9004800470FAA0100AA
:1080D000B0680020401E00BF00BF00BF00BF00BF4F
:1080E00000BF00BF00BF00BF00BF00BF00BFF1D195
:1080F00070470000401E00BF00BF00BF00BF00BFB0
:1081000000BF00BF00BF00BF00BF00BF00BFF1D174
:1081100070470000401E00BF00BF00BF00BF00BF8F
:1081200000BF00BF00BF00BF00BF00BF00BFF1D154
:1081300070470000704770477047704710B588B0AF
:108140000A21FE480AF002F9002069460871012060
:10815000FA490870FA480068000E4870F84800684C
:108160000002000E8870F64800880004000EC870F7
:10817000F34800780871F34800784871F2480078B5
:108180008871F1484078C871EF4880780872EE48ED
:10819000C07848720A22002008F0E2F8044600BFC6
:1081A0002346002B06D000BF002211461846FFF7D9
:1081B000C3FF00BF00BF0A2101A801730121C182D2
:1081C000002069460881DD4903910021079101A83B
:1081D00007F066FB0020DD49086008B010BDFFB560
:1081E00087B004460D46164668460470D8480570A8
:1081F000D3480068000ED6494870D1480068000294
:10820000000E8870CE4800880004000EC870CC486C
:1082100000780871CB4800784871084686710A9842
:10822000C8710020109A08F09BF8074600BF3B4633
:10823000002B06D000BF002211461846FFF77CFF36
:1082400000BF00BF69461098087301216846C182CB
:10825000002069468880BE49029100210691684647
:1082600007F01EFB0020B94908600BB0F0BDF0B567
:1082700087B00D4616461C46002069460870092244
:108280003146B4480AF049F8B2480570B24800785F
:10829000B0494872B14800788872B1480078C87215
:1082A0002246002008F05CF8074600BF3B46002B42
:1082B00006D000BF002211461846FFF73DFF00BF61
:1082C00000BF684604730121C1820020694688808E
:1082D000A049029100210691684607F0E1FA0020CA
:1082E0009A49086007B0F0BDFFB587B006460F4653
:1082F0001D462A469B4809990AF00FF80020694656
:108300000870984807702A460146304608F028F859
:10831000044600BF2346002B06D000BF00221146B2
:108320001846FFF709FF00BF00BF6846057301212B
:10833000C18286808B4902910021069107F0B0FA34
:10834000044600BF2346002B06D000BF0022114682
:108350001846FFF7F1FE00BF00BF00207B49086010
:108360000BB0F0BD10B50446204607F087FA204652
:1083700002F033FE10BD10B586B07B480190082096
:10838000039026216846017205200490F821684672
:1083900001750598009001A80FC807F035F904464B
:1083A00000BF2346002B06D000BF0022114618460E
:1083B000FFF7C2FE00BF00BF06B010BDF0B585B02C
:1083C00006460F460021694805F028FC039001216C
:1083D000664805F023FC0290039C029D002001905A
:1083E0000090BC4201DB019001E001200190B54208
:1083F00002DB0020009001E001200090BC420CD084
:108400000198002804D1002C07DD601E84B204E02E
:108410005748844201DA601C84B2B5420CD00098FF
:10842000002804D1002D07DD681E85B204E0504805
:10843000854201DA681C85B200BF224600214B4804
:1084400005F0E1FB1128F8D000BF2A46012147487A
:1084500005F0D9FB1128F8D0BC4207D1B54205D1AF
:108460000020444908704449086002E00120414965
:10847000087005B0F0BDF0B587B006460F46002184
:108480003A4805F0CBFB06900121384805F0C6FBC1
:108490000590069C059D0020049003900290019099
:1084A000BC4205DBE01B80B202900020049004E097
:1084B000381B80B2029001200490B54205DBA81B56
:1084C00080B201900020039004E0701B80B2019004
:1084D0000120039001990298884222DDBC4220D0FD
:1084E000049800280ED1002C01DD601E84B2BC422D
:1084F00017DB00BF224600211C4805F084FB112831
:10850000F8D00EE01A48844201DA601C84B2BC4202
:1085100007DC00BF22460021144805F074FB112837
:10852000F8D001990298884243DAB54241D00398C5
:1085300000282FD1002D22DD681E1FE038220020E8
:108540003C2000204020002030200020042000207B
:108550001A22002042220020212000202220002078
:108560004520002051220020D6BEAC8E9C2902005E
:1085700092030000182000201C20002085B2B54284
:1085800017DB00BF2A460121F74805F03CFB112804
:10859000F8D00EE0F548854201DA681C85B2B54294
:1085A00007DC00BF2A460121EF4805F02CFB11280B
:1085B000F8D001990298884245D1BC4220D0049855
:1085C00000280ED1002C01DD601E84B2BC4217DBF6
:1085D00000BF22460021E44805F015FB1128F8D021
:1085E0000EE0E248844201DA601C84B2BC4207DC3F
:1085F00000BF22460021DC4805F005FB1128F8D019
:10860000B54220D0039800280ED1002D01DD681E50
:1086100085B2B54217DB00BF2A460121D24805F0DA
:10862000F2FA1128F8D00EE0D048854201DA681C31
:1086300085B2B54207DC00BF2A460121CA4805F0D1
:10864000E2FA1128F8D0BC4207D1B54205D100208A
:10865000C7490870C749086002E00120C449087092
:1086600007B0F0BDF8B50021BF4805F0D7FA0646BF
:108670000121BD4805F0D2FA074634463D46BE48C2
:108680000078002813D13920000184420ADA601CE6
:1086900084B200BF22460021B34805F0B4FA112885
:1086A000F8D004E0B4480078401CB3490870B248E0
:1086B0000078012811D1012C0ADD601E84B200BFB0
:1086C00022460021A84805F09EFA1128F8D004E0BF
:1086D000A9480078401CA8490870A74800780228DB
:1086E00013D13920000185420ADA681C85B200BF27
:1086F0002A4601219C4805F086FA1128F8D004E0AA
:108700009D480078401C9C4908709B4800780328CD
:1087100011D1012D0ADD681E85B200BF2A46012154
:10872000914805F070FA1128F8D004E092480078DA
:10873000401C914908709048007804281ADB0020FA
:108740008D49087000BF8D4802880021864805F0D9
:108750005AFA1128F7D000BF8948028801218248BF
:1087600005F051FA1128F7D000208149087081499D
:10877000086002E002207E490870F8BD10B581490A
:108780000878C10F091849104900411A7E4A117032
:1087900010460078002812D100BF7C4802880021D2
:1087A000714805F030FA1128F7D000BF78480288E8
:1087B00001216D4805F027FA1128F7D00FE000BF1E
:1087C00000221146684805F01EFA1128F8D000BFB3
:1087D00000220121644805F016FA1128F8D06948F2
:1087E000007810281ADB00206649087000BF67482F
:1087F000028800215C4805F006FA1128F7D000BF76
:10880000634802880121584805F0FDF91128F7D086
:10881000002057490870574908600AE05948007815
:10882000401C584908705B485B490860012050496A
:10883000087010BDF8B50446E08A0A2801DB01F093
:108840008EFE0021484805F0E9F9544908800121CD
:10885000454805F0E3F952490880504800880988E6
:108860004018504908802078052801D301F075FE92
:1088700043007B449B885B009F4406000400050086
:108880006E0E6D0E00BF00BFA0680078412868D052
:1088900044DC252801D101F0B1FC22DC062861D09E
:1088A0000EDC062801D301F053FE43007B449B8875
:1088B0005B009F444D0EAC003B013C01C601F20140
:1088C000212801D101F082FB04DC07284BD02028AD
:1088D000E9D1F8E3222801D101F0D7FB2428E2D125
:1088E000F2E3372801D101F0E7FC0EDC312870D02B
:1088F00006DC262801D101F097FC2728D3D1BCE063
:10890000322867D03328CED1FCE3382871D03B28F9
:1089100070D03C286FD04028C5D1F4E3572801D14E
:1089200001F0E0F947DC502801D101F099F910DCA1
:10893000492801D101F02EF904DC42287ED04328D9
:10894000B1D1F5E34A2801D101F0E3F84E28AAD1CC
:10895000EFE3512801D101F0F8F9522824D101F0B8
:1089600024FAE7E3D6E10FE29C290200920300001B
:10897000182000201C2000204D2000205E20002018
:10898000602000204E20002074200020362000208F
:108990003820002050C30000242000205020002058
:1089A0005220002054200020532801D101F059FA10
:1089B00056288DD1FEE3662801D101F083FD14DC39
:1089C000612801D101F0C2FB08DC5B2803D101F072
:1089D00041FC7FE3EFE35D2890D1EDE3622801D114
:1089E00001F0D5FB642889D1E7E3912804D101F097
:1089F00079FCFDE3A8E2F7E2992801D101F0C8FB78
:108A0000F02801D101F08AFCF12885D1F1E3A068BA
:108A100040780006A168897809040843A168C978EC
:108A200009020843A16809790843FE490968884298
:108A300022D1A0684079FC49097800E0F7E3884238
:108A40001AD1A06880790006A168C9790904084391
:108A5000A168097A09020843A168497A0843F349E1
:108A6000086008460068F2490968884204D201207B
:108A7000F0490870F0490870F4E3A06840780006F7
:108A8000A168897809040843A168C97809020843E4
:108A9000A16809790843E3490968884245D1207BE8
:108AA000801FE6490870207B401EE54908700020C1
:108AB000E449087032E0E3480078401DA168085C92
:108AC000D9490978884224D1DD490978A068405CF9
:108AD000002801D0012000E00020DB490870084692
:108AE000007801280FD108460178052009F0F1F936
:108AF000D6480178062009F0ECF9D548017807201E
:108B000009F0E7F904E0D0480178052009F0E1F91F
:108B10000AE0CC480078401CCA490870C94800786F
:108B2000C64909788842C6DB00BFA5E7A4E7A0686C
:108B300040780006A168897809040843A168C978CB
:108B400009020843A16809790843B64909688842BF
:108B500076D1C0480078012872D1207B801FB749A8
:108B60000870207B401EB64908700020B549087087
:108B70005FE0B4480078401DA168085CAA49097804
:108B8000884251D1AE490978A068405C15284ADA7C
:108B90000120B1490870AA490978A068405CAC4935
:108BA0000870AA4800784000AC4A115AAC4809F055
:108BB00063FBAC490860A54909784900A74A515AA6
:108BC000A34A127851430846142109F055FBA649DF
:108BD00008809E4800784000A049085AA2490988A8
:108BE000401AA249088096490978A068405C142878
:108BF00002D100209D49088091490978A068405C15
:108C0000002801D1984908800420994908709948A2
:108C10000078002807D097480078401E95490870D2
:108C200000208D4908700AE086480078401C85497C
:108C300008708448007881490978884299DB00BF30
:108C40001AE7A068807B8C490978884224D1A06803
:108C5000411D0422894809F08BFB00281CD1A06823
:108C6000407A0006A168897A09040843A168C97A94
:108C700009020843A168097B08436A490860A068A3
:108C8000407B69490870A0880E232621A268FFF75F
:108C90002BFB01207A490870EEE6A06840797649FE
:108CA0000978884235D1A068411C0422734809F034
:108CB0005FFB00282DD1654909784900674A515A60
:108CC000634A127851430846142109F0D5FA6D49D8
:108CD00008805E48007840006049085A6249098867
:108CE000401A6949088000206849087000BF0022C6
:108CF0001146674804F087FF1128F8D000BF002212
:108D00000121634804F07FFF1128F8D0072058495B
:108D10000870B1E6A06840780006A1688978090467
:108D20000843A168C97809020843A1680979084382
:108D30003C490968884226D1A06840793A490978B7
:108D4000884220D10025002644490988404A1278EB
:108D500051430846142109F08FFA85B23F48008834
:108D6000401B86B200BF32460021494804F04BFF49
:108D70001128F8D000BF2A460121454804F043FFDE
:108D80001128F8D000BF77E6A06840780006A168F7
:108D9000897809040843A168C97809020843A168D1
:108DA000097908431F490968884275D12948007824
:108DB000012871D1207B801F20490870207B401E34
:108DC0001F49087000201F490870B4E01D48007852
:108DD000401DA168085C1449097888427ED10120B1
:108DE0001D49087016490978A068405C0F2804DB0B
:108DF0000E21134A1278A068815411490978A0689D
:108E0000405C12490978884269D00D490978A06808
:108E1000405C0E4908700846007840000F49085A27
:108E20001C493AE03C200020402000202C2000205B
:108E300028200020472000206D20002075200020E1
:108E4000762000207720002008200020222000200B
:108E500021200020452000206E200020A4290200AF
:108E600060EA000024200020382000203620002066
:108E70001820002070200020342000203020002006
:108E800000200020602000205E2000204D200020D7
:108E90009C2902005420002055E0098888420DDDFD
:108EA000FE4800784000FE4A105AFE4A1288811A95
:108EB000FD4809F0E1F9FD4908600CE0F748007849
:108EC0004000F74A105AF74A1288111AF64809F07A
:108ED000D3F9F6490860F149097801E026E024E079
:108EE0004900EF4A515AF24A127851430846142178
:108EF00009F0C2F9EF490880E84800784000E849E5
:108F0000085AEC490988401AEB4908800320EB49CC
:108F10000870EB480078002807D0E9480078401E28
:108F2000E74908700020E74908700BE0E648007840
:108F3000401CE5490870E4480078E4490978884213
:108F400000DA43E700BF97E5A06840780006A16813
:108F5000897809040843A168C97809020843A1680F
:108F600009790843DA49096888423CD1A068407908
:108F7000002819D1D7490870D0490870D64908602F
:108F80000120D649087000BF00221146D44804F0E1
:108F90003AFE1128F8D000BF00220121D04804F089
:108FA00032FE1128F8D01EE00120CA4908700020C6
:108FB000C2490870C8490860C84908700120C949F9
:108FC000087000BFBC4802880021C54804F01BFEA1
:108FD0001128F7D000BFB74802880121C04804F02B
:108FE00012FE1128F7D047E5A06840780006A16876
:108FF000897809040843A168C97809020843A1686F
:1090000009790843B2490968884262D100255DE0C8
:10901000681DA168085CB4490978884255D1AD48FB
:109020000078012827D10021AD4804F0F7FDAF49B1
:1090300008800121AA4804F0F1FDAD490880002014
:10904000A44908700120A549087000209B490870B8
:10905000A149086000BF00221146A14804F0D3FDD9
:109060001128F8D000BF002201219D4804F0CBFD5B
:109070001128F8D02CE001209649087000208F4973
:109080000870954908609549087001209549087055
:109090009748008887490880944800888649088056
:1090A00000BF8548028800218D4804F0ACFD1128DE
:1090B000F7D000BF7F4802880121894804F0A3FD52
:1090C0001128F7D004E0FDE3FDE36D1C062D9FDBC6
:1090D00000BFD1E4A06840780006A168897809043F
:1090E0000843A168C97809020843A16809790843BF
:1090F0007749096888426AD176480078012866D1A4
:10910000002561E00DE198E1681DA168085C7649E1
:109110000978884257D101206A4908705F48007871
:10912000002808DD5D480078401E5C49087005E0B5
:10913000E2E3FDE347E20020584908705748007811
:1091400040005749085A5749098888420DDD53485D
:1091500000784000524A105A524A1288811A5248E6
:1091600009F08AF8514908600CE04C48007840004A
:109170004B4A105A4B4A1288111A4B4809F07CF896
:109180004A490860454909784900454A515A484AC0
:10919000127851430846142109F06EF845490880B9
:1091A0003E48007840003E49085A42490988401A22
:1091B000414903E0F4E30BE0F3E3F3E30880032029
:1091C0003E49087002E06D1C062D9DDB00BF53E494
:1091D000A06840780006A168897809040843A1685E
:1091E000C97809020843A16809790843384901E0B0
:1091F000ECE0FDE3096888427CD13648007801281C
:1092000078D1002588E0681DA168085C3649097896
:10921000884270D101202B490870204800780E2820
:1092200006DA1E480078401C1C49087003E08FE2F3
:109230000E201A4908701948007840001849085A49
:109240001849098888420EDD144800784000144A05
:10925000105A144A1288811A134809F00DF813495C
:1092600008600DE0FEE30D48007840000C4A105AFB
:109270000C4A1288111A0C4808F0FEFF0B490860CE
:10928000064909784900064A515A094A1278514359
:109290000846142108F0F0FF06492DE022200020A6
:1092A000A429020054200020905F01002420002007
:1092B0002120002038200020362000201820002007
:1092C000702000206E2000207720002075200020D4
:1092D0003C200020452000201C2000207120002080
:1092E0009C290200732000204020002062200020E2
:1092F0006420002014E00EE00880FC480078400064
:10930000FB49085AFB490988401AFB490880032099
:10931000FA49087003E06D1C062D00DA73E700BF00
:1093200004E4A06840780006A1688978090408432D
:10933000A168C97809020843A16809790843F0497E
:109340000968884241D1EF48007801283DD10025C5
:1093500038E0681DA168085CEB490978884230D183
:109360000120EA490870A068C07A142828DCA068A7
:10937000C07AE7490870DD4800784000DC4A115A9D
:10938000E44808F079FFE4490860D84909784900C1
:10939000D74A515ADE4A127851430846142108F040
:1093A0006BFFD4490880D14800784000D049085A62
:1093B000D0490988401AD04908800420CF49087054
:1093C00002E06D1C062DC4DB00BF39E4D3480078F1
:1093D000002831D1A06840780006A1688978090486
:1093E0000843A168C97809020843A16809790843BC
:1093F000C3490860A0684079C3490870C048006844
:10940000010E082008F065FDBD4800680002010E4D
:10941000092008F05EFDBA4800880004010E0A2009
:1094200008F057FDB64801780B2008F052FDB64809
:1094300001780C2008F04DFD2EE4A068407800066D
:10944000A168897809040843A168C978090208431A
:10945000A16809790843AA490968884259D1A068D6
:109460004079A9490978884253D1AD48007801284C
:1094700050D1A4490870A0688079152804DAA06842
:109480008079A349087002E01420A1490870A0481F
:109490000078A4490870A068C0790F2811DAA248A2
:1094A0000078002810D1A1480078FF2804D1A068D6
:1094B000C0798E49087007E09C4800788B49087095
:1094C00002E00E2089490870884800784000884AE8
:1094D000115A904808F0D0FE8F49086083490978F6
:1094E0004900834A515A8A4A127851430846142146
:1094F00008F0C2FE7F4908807C48007840007C4923
:10950000085A7C490988401A7B49088003207B4916
:10951000087057E086480078012802D17949087020
:1095200050E0012077490870A0688079152804DA96
:10953000A06880797649087002E0142074490870A8
:109540007348007877490870A068C0790F2811DA4D
:1095500075480078002810D174480078FF2804D19D
:10956000A068C0796149087007E0704800785F49D9
:10957000087002E00E205D4908705C4800784000E9
:109580005B4A115A634808F077FE634908605749FF
:1095900009784900564A515A5D4A127851430846A3
:1095A000142108F069FE53490880504800784000B3
:1095B0004F49085A4F490988401A4F4908800320EB
:1095C0004E490870BFE4A06840780006A168897819
:1095D00009040843A168C97809020843A168097908
:1095E00008434749096888427ED1A06840794649C6
:1095F0000978884278D100204449087048480078AA
:10960000012848D100203F4908703C490870494969
:109610000860364800780B2803DD0B2043490870AA
:1096200003E03248007841490870A068807900283A
:1096300012D12E48007840002D4A115A3E4808F0B9
:109640001BFE3549086000202A4908802A49088005
:1096500003202A4908701AE0254801882D4808F09F
:109660000BFE2D490860224909882E4A1278514381
:109670000846142108F000FE1E4908801C48008896
:109680000988401A1C49088003201C4908700020E2
:10969000254908705AE000201A49087017490870D7
:1096A0002449086022480078012803D100201F497E
:1096B00008700BE00D4800780B2803DD0B201B49D8
:1096C000087003E0094800781849087007480078D6
:1096D0004000074A115A184808F0CEFD0E490860AC
:1096E00000200449088029E031E000002220002009
:1096F000A429020038200020362000201820002055
:109700003C20002045200020402000206E2000202A
:109710002120002060EA00002420002010200020EA
:109720006B2000205A2000205C2000205B200020BD
:109730006C2000201C200020905F0100FE49088062
:109740000320FE4908700020FD4908704BE44AE4FC
:10975000A06840780006A168897809040843A168D8
:10976000C97809020843A16809790843F5490968DD
:10977000884272D1A0684079F349097888426CD157
:10978000F2480078012869D1ED490870A068807915
:10979000002801D0012000E00020ED4908700846B3
:1097A0000078012848D1EB4800780B2807DAE9480F
:1097B0000078401CE74908700020E7490870E54838
:1097C00000784000E549085AE549098888420DDDDE
:1097D000E04800784000E14A105AE14A1288811AB4
:1097E000E04808F049FDE04908600CE0D9480078FD
:1097F0004000DA4A105ADA4A1288111AD94808F099
:109800003BFDD9490860D34909784900D34A515AE8
:10981000D64A127851430846142108F02DFDD44948
:109820000880CC4800784000CC49085AD0490988C3
:10983000401AC14908805AE0C748007801280ED173
:109840000020C4490870C4490870C4480188C94848
:1098500008F012FDC44908602EE04CE04AE0BD4823
:1098600000780B2804DABB480078401CB94908701E
:10987000B84800784000B949085AB949098888426F
:109880000DDDB44800784000B44A105AB44A12883A
:10989000811AB44808F0F0FCB34908600CE0AD4808
:1098A00000784000AD4A105AAD4A1288111AAD48EE
:1098B00008F0E2FCAC490860A64909784900A74ACB
:1098C000515A01E040E3FDE3A84A127851430846AB
:1098D000142108F0D1FCA64908809E480078400079
:1098E0009E49085AA2490988401A934908800520D0
:1098F000924908706BE46AE4A06840780006A168A9
:10990000897809040843A168C97809020843A16855
:10991000097908438B49096888426AD1A06840796F
:1099200089490978884264D188480078012800E094
:10993000D3E05ED182490870A0688079002801D008
:10994000012000E0002082490870084600780128C4
:1099500055D180480078002804DD7E480078401EFC
:109960007C4908707B480078032802DA0320794993
:1099700008707848007840007849085A7849098882
:10998000884210DD734800784000744A105A744AC7
:109990001288811A734808F06FFC734908600FE061
:1099A00092E2F2E3F2E36B48007840006B4A105A0F
:1099B0006B4A1288111A6B4808F05EFC6A4908600D
:1099C000644909784900654A515A684A12785143F6
:1099D0000846142108F050FC654908805D4800786D
:1099E00040005E49085A62490988401A524901E01C
:1099F000FEE371E0088006205049087090E4554865
:109A00000078002846DD53480078401E5149087010
:109A10000846007840005149085A5149098888424F
:109A20000DDD4C48007840004C4A105A4C4A1288D0
:109A3000811A4C4808F020FC4B4908600CE045486E
:109A400000784000454A105A454A1288111A454884
:109A500008F012FC444908603E49097849003F4A31
:109A6000515A00E02FE2414A12785143084614212E
:109A700008F002FC3E49088036480078400037492B
:109A8000085A3B490988401A2B49088006202B496F
:109A9000087045E40021384804F0C0F8054601216B
:109AA000354804F0BBF80646002D05D1002E03D141
:109AB0000120294908700EE0284801882D4808F047
:109AC000DBFB294908600020294908801A490880E1
:109AD00006201A49087023E422E4A06840780006B2
:109AE000A168897809040843A168C9780902084374
:109AF000A1680979084313490968884208D1A06818
:109B0000407911490978884202D104201B49087024
:109B100006E4A06840780006A16889780904084333
:109B2000A168C97809020843A16809790843054971
:109B3000096888422DD123E036200020182000201B
:109B40005C2000203C2000204020002045200020F8
:109B50006B200020222000206C200020A42902007D
:109B600054200020905F01002420002021200020AC
:109B70003820002060EA00009C29020070200020AC
:109B8000A0684079FB490978884202D10020FA494F
:109B900008701AE4A06840780006A1688978090472
:109BA0000843A168C97809020843A16809790843F4
:109BB000F2490968884252D1A0684079ED49097894
:109BC00088424CD1A06880790F2848DAA068807953
:109BD000EB490978884242D0A0688079E84908704A
:109BE000084600784000E749085AE7490988884252
:109BF0000DDDE34800784000E24A105AE24A12883C
:109C0000811AE24808F038FBE14908600CE0DC48C2
:109C100000784000DB4A105ADB4A1288111ADB48F0
:109C200008F02AFBDA490860D54909784900D54A85
:109C3000515AD84A127851430846142108F01CFBA7
:109C4000D5490880CE4800784000CE49085AD2490C
:109C50000988401AD14908800320D1490870B1E42D
:109C6000A06840780006A168897809040843A168C3
:109C7000C97809020843A16809790843BF490968FE
:109C800088422ED1A0684079BA490978884228D103
:109C9000C448007801280CD10021C34803F0BEFF5E
:109CA000C24908800121C04803F0B8FFC0490880BC
:109CB00004E00020BE490880BC490880B149898B76
:109CC0000A2251430846142108F0D6FAB249088006
:109CD000AC48808B0988401AB04908800820B049F8
:109CE00008706FE4A06840780006A16889780904CC
:109CF0000843A168C97809020843A16809790843A3
:109D00009E49096888421FD1A0684079994909781D
:109D1000884219D1A64800889F490880A348008836
:109D20009E49088000BF9D48028800219E4803F09C
:109D30006AFF1128F7D000BF9748028801219A488E
:109D400003F061FF1128F7D0BDE0A068407800065D
:109D5000A168897809040843A168C9780902084301
:109D6000A168097908438549096888421CD1A0681F
:109D7000407980490978884216D1002089490870C5
:109D8000874908708B49086000BF00221146864849
:109D900003F039FF1128F8D000BF002201218248CA
:109DA00003F031FF1128F8D0D3E3A0684078000613
:109DB000A168897809040843A168C97809020843A1
:109DC000A168097908436D490968884248D1A068AB
:109DD000407968490978884242D10021724803F0ED
:109DE0001DFF7549088001216F4803F017FF734973
:109DF0000880A0688679A068C5796800614A115A10
:109E00006F4808F039FA6249086069005D4A515AA2
:109E100071430846142108F02FFA5F490880680052
:109E20005849085A5C490988401A5C49088000BFB3
:109E30005A48028800215C4803F0E5FE1128F7D05B
:109E400000BF554802880121574803F0DCFE112865
:109E5000F7D003205249087001205249087000BF12
:109E600077E3A06840780006A16889780904084370
:109E7000A168C97809020843A168097908433F49E4
:109E8000096888421FD1A06840793A490978884218
:109E900019D14A48008840490880474800883F490E
:109EA000088000BF3D48028800213F4803F0ABFE18
:109EB0001128F7D000BF3848028801213A4803F042
:109EC000A2FE1128F7D044E3A06840780006A168FC
:109ED000897809040843A168C97809020843A16880
:109EE000097908432549096888422CD1A06840793E
:109EF00020490978884226D1002500212A4803F00C
:109F00008DFE254908800121274803F087FE23495B
:109F100008802148008809884518302D0FD100BFDE
:109F200000221146204803F06EFE1128F8D000BF31
:109F3000002201211C4803F066FE1128F8D0002001
:109F40000D49087000BF04E3A068407A1D490978F4
:109F500088420DD1A068411D04221B4808F008FA70
:109F6000002805D1A0880C232421A268FEF77FF9E0
:109F7000EFE20000402000206E2000203C20002066
:109F800022200020A429020054200020905F01001C
:109F9000242000202120002038200020362000200E
:109FA00018200020452000209C2902006620002067
:109FB000682000201C20002058200020562000206F
:109FC00060EA00003420002030200020A0684078A3
:109FD0000006A168897809040843A168C9780902C4
:109FE0000843A16809790843FA49096888424BD1B6
:109FF000F9480078012847D10020F8490870207BF3
:10A00000401FF74908700020F649087035E0F54810
:10A010000078401DA168085CF3490978884227D17F
:10A020000021F24803F0FAFDF14908800121EF48D0
:10A0300003F0F4FDEF4908800020E7490870012093
:10A04000ED4908700020ED490870ED49086000BF37
:10A0500000221146E54803F0D6FD1128F8D000BFD4
:10A0600000220121E14803F0CEFD1128F8D00AE0DA
:10A07000DC480078401CDB490870DA480078D84991
:10A0800009788842C3DB00BF63E2A068407800061D
:10A09000A168897809040843A168C97809020843BE
:10A0A000A16809790843CB49096888424DD1CA485B
:10A0B0000078002846D1207B401FC9490870002045
:10A0C000C84900E082E0087035E0C6480078401DCD
:10A0D000A168085CC4490978884227D10120BE499B
:10A0E00008700020C5490870C5490860C249087059
:10A0F0000120C4490870BF480088C3490880BC4893
:10A100000088C249088000BFC04802880021B748C3
:10A1100003F079FD1128F7D000BFBB480288012168
:10A12000B24803F070FD1128F7D00AE0AD4800787E
:10A13000401CAC490870AB480078A94909788842AE
:10A14000C3DB00BF0020A549087002E2A068407888
:10A150000006A168897809040843A168C978090242
:10A160000843A168097908439A49096888420BD1D4
:10A1700099480078012807D1062000231A46622159
:10A1800000901846FEF72BF8E3E17FE054E1E0E1B0
:10A19000A06840799E490978884216D1A068411C80
:10A1A00004229C4808F0E4F800280ED1002504E0C1
:10A1B000E8B2FF2107F08DFE6D1C0F2DF8DB9648ED
:10A1C0000078012801D000F0CAFDC2E19248007871
:10A1D000002812D0A068411C04228E4808F0C8F85C
:10A1E00000280AD10C228D48A16808F096F800E0FA
:10A1F000CCE00C21894804F077FCAAE1864800787D
:10A20000002810D0A068411C0422824808F0B0F851
:10A21000002808D10A228148A16808F07EF80A21A6
:10A220007E4804F061FC94E17B480078002810D05F
:10A23000A068411C0422774808F09AF8002808D149
:10A240000D227648A16808F068F80D21734804F0E3
:10A250004BFC7EE170480078002816D0A068411CB5
:10A2600004226C4808F084F800280ED1A068007819
:10A270006A490870A068411D10226848401C08F017
:10A280004CF81121654804F02FFC62E16248007827
:10A29000002810D0A068411C04225E4808F068F82D
:10A2A000002808D10D225D48A16808F036F80D217C
:10A2B0005A4804F019FC4CE157480078002810D0A7
:10A2C000A068411C0422534808F052F8002808D125
:10A2D0000F225248A16808F020F80F214F4804F0DF
:10A2E00003FC36E1A06840780006A168897809047B
:10A2F0000843A168C97809020843A168097908439D
:10A3000034490968884208D1A068407936490978FB
:10A31000884202D10120424908701AE1A068411C1C
:10A3200004223C4808F024F800282ED1A068417986
:10A33000FA2007F0CEFDA0688179FB2007F0C9FD67
:10A34000A068C179FC2007F0C4FDA068017AFD2057
:10A3500007F0BFFDA068417A002007F0BAFDA068B1
:10A36000817A012007F0B5FDA068C17A022007F0CC
:10A37000B0FDA068017B032007F0ABFDA068417B26
:10A38000042007F0A6FD00F0EAFCE2E0A0684078B7
:10A390000006A168897809040843A168C978090200
:10A3A0000843A168097908430A490968884242D1EB
:10A3B000A06840790C49097888423CD11648007859
:10A3C000012831D100210D2007F083FD002015491F
:10A3D000087030E03C200020452000205C20002058
:10A3E0007520002077200020402000209C290200BA
:10A3F000622000206420002071200020182000200E
:10A400001C2000207320002038200020362000204F
:10A410003420002030200020782000200A22002054
:10A420006A2000206F200020A06881790D2007F0AD
:10A4300050FD00F094FC8CE0A06840780006A16814
:10A44000897809040843A168C97809020843A1680A
:10A4500009790843FB490968884232D1A0684079EC
:10A46000F949097888422CD1F8480078002804D0AE
:10A470000020F6490870F6490870F6480078002870
:10A480001FD10822F448A16807F047FFF34800787D
:10A49000F1490872EE4800784872F14800788872F5
:10A4A000F0480078C872F04800780873A0880D233F
:10A4B0000A466521FDF718FF0020EA490870EA49BD
:10A4C000087046E0A06840780006A1688978090411
:10A4D0000843A168C97809020843A16809790843BB
:10A4E000D8490968884232D1A0684079D6490978AC
:10A4F00088422CD1D5480078002804D00020D349C8
:10A500000870D3490870D348007800281FD108226A
:10A51000D148A16807F001FFD0480078CE49087201
:10A52000CB4800784872CE4800788872CD480078D1
:10A53000C872CD4800780873A0880D230A466721A9
:10A54000FDF7D2FE0020C7490870C749087000E037
:10A5500000BF00BF02E001E000E000BF00BFF8BDA7
:10A5600010B5012000F004FC012000F00AFC0020DE
:10A5700000F0FEFB002000F004FC132001218A0003
:10A5800005231B07072424021B1984001A5100BF4E
:10A59000122000F0EDFB112000F0EAFB122000F089
:10A5A000F0FB112001218140B04AD16000BF10BDF5
:10A5B00010B5AF4909784900AE4A515AAE4A1278EF
:10A5C00051430846142107F057FEAC490880A848BB
:10A5D00000784000A749085AA8490988401AA849A4
:10A5E000088000BFA64802880021A64803F00BFBA4
:10A5F0001128F7D000BFA14802880121A14803F02B
:10A6000002FB1128F7D000219E4803F007FB9E496A
:10A61000088001219B4803F001FB9C49088010BD84
:10A6200001219B4A1170704710B586B014229949D8
:10A6300001A807F072FE012069460873012101A8F4
:10A640004172954A01A98F4803F067FB044600BF99
:10A650002346002B06D000BF002211461846FDF706
:10A660006BFD00BF00BF874803F038FC00BF814886
:10A6700082890021834803F0C6FA1128F7D000BF71
:10A680007C48828901217F4803F0BDFA1128F7D068
:10A6900006B010BD10B500248048006980490860EC
:10A6A00008460068000E7F4908707D480068000277
:10A6B000000E48707A4800880004000E88707848C0
:10A6C0000078C87008460078FF280BD1084640780B
:10A6D000FF2807D108468078FF2803D10846C078B4
:10A6E000FF2845D0FA2007F0E1FB6F490870FB20F6
:10A6F00007F0DCFB6C494870FC2007F0D7FB6A4987
:10A700008870FD2007F0D2FB6749C87008460078C2
:10A71000FF2820D108464078FF281CD108468078C1
:10A72000FF2818D10846C078FF2814D15D48017869
:10A73000FA2007F0CEFB5B484178FB2007F0C9FB0D
:10A7400058488178FC2007F0C4FB5648C178FD20AA
:10A7500007F0BFFB0CE0544800785249087052489B
:10A76000407848705048807888704F48C078C870EA
:10A770004C48007800064B49497809040843494988
:10A780008978090208434749C97808434449086061
:10A79000444800784349497840184249897840182C
:10A7A0004049C978401841490870002406E0204615
:10A7B00007F07CFB3E490855601CC4B20F2CF6DB49
:10A7C0003B480078FF281CD039484078FF2818D033
:10A7D00037488078FF2814D03548C078FF2810D03B
:10A7E0003348007800063249497809040843304963
:10A7F0008978090208432E49C9780843114908603D
:10A800005BE02B48007AFF2854D02948407AFF2883
:10A8100050D02748807AFF284CD02548C07AFF289E
:10A8200048D02348007A00062149497A09040843A0
:10A830001F49897A090208431D49C97A0843014919
:10A8400008603AE03C2000204020002070200020DA
:10A850006E2000206D2000202422002045200020B2
:10A86000712000207220002073200020000500507D
:10A8700022200020A42902002120002038200020CE
:10A88000362000209C290200622000206420002045
:10A8900020200020C429020021A601004010001041
:10A8A00028200020302000204120002034200020DB
:10A8B000F02100200020FE490860FE480079FF28B2
:10A8C00004D0FC480079FC4908700BE0F948007B93
:10A8D000FF2804D0F748007BF749087002E0002009
:10A8E000F5490870F3484079FF2803D10020F34967
:10A8F000087008E0EF484079002801D0012000E00E
:10A900000020EE490870EB48407BFF2803D100206F
:10A91000EB49087008E0E748407B002801D001209F
:10A9200000E00020E6490870E4480078012817D1CB
:10A93000E0488079FF2803D10920E249087003E04C
:10A94000DC488079DF490870DA48C079FF2803D1F4
:10A950000A20DD49087003E0D648C079DA4908705A
:10A9600010BD38B5002000900B20C0436946087028
:10A9700000BF6846407801090901491C68464170DA
:10A980004078F021884320306946487000BF00BFFE
:10A990006846807800090001887068468078F02158
:10A9A00088436946887000BFC84803F09FFC04468E
:10A9B00000BF2346002B06D000BF002211461846D8
:10A9C000FDF7BAFB00BF00BF0B20C04377DF044692
:10A9D00000BF2346002B06D000BF002211461846B8
:10A9E000FDF7AAFB00BF00BF38BD10B50B20C04368
:10A9F00077DF044600BF2346002B06D000BF0022AD
:10AA000011461846FDF798FB00BF00BF10BD88B087
:10AA1000FFF7A6FDFFF708FE07F0EBFAFFF73AFE97
:10AA2000FFF7C6FD00BF00234822A949052003F017
:10AA300088FB044600BF2346002B06D000BF00223F
:10AA400011461846FDF778FB00BF00BF00BFA148C4
:10AA500003F0ADFBA04803F0B3FBFDF78CFCFFF760
:10AA600080FF97480078002801D100F0E0F975E1F7
:10AA700001A804F074FF002805D101A8FDF7DAFE53
:10AA800001A804F094FF95480078030007F024FD26
:10AA90000906513F07121D28333965005EE0012287
:10AAA0008F4801888F480088FDF788FC03208E4975
:10AAB000087053E001228A4801888A480088FDF71F
:10AAC000DAFC04208849087048E0012284480188A3
:10AAD00084480088FDF772FC0520834908703DE03A
:10AAE00001227F4801887F480088FDF767FC062027
:10AAF0007D49087032E0FDF7B5FD07207A490870FE
:10AB00002CE0FDF73BFE08207749087026E07748E7
:10AB10000068C82807D3744800787049087000207E
:10AB20007249086004E071480068401C6F49086081
:10AB300014E06E4800686E490968884207D36A4885
:10AB400000786649087000206849086004E067489A
:10AB50000068401C6549086000E000BF00BF654810
:10AB60000078002836D164480068401C62490860BB
:10AB700062480078614949784018604989784018EE
:10AB80005E49C97840185E4940185B4909688842A7
:10AB900020D15C480078012802D15649087002E0B3
:10ABA00000205549086058480078012802D15149D1
:10ABB000087001E0FDF7C2FA54480078401C534980
:10ABC000087008460078052804DD00200870012080
:10ABD000484908704E48007800282CD04D4800683D
:10ABE000401C4C490860084600684B49884222D303
:10ABF0002F480068010E002007F06BF92C48006810
:10AC00000002010E012007F064F9294800880004C1
:10AC1000010E022007F05DF925480178032007F0B6
:10AC200058F925480178042007F053F900203949E4
:10AC300008603749087021480078012812D1374848
:10AC4000007801280ED136480068401C344908605D
:10AC5000084600683049884204D300203049086023
:10AC60002E4908702F48007800280CD12E48006823
:10AC7000401C2D490860084600682749884202D3D5
:10AC80000120284908702948007800285CD0134822
:10AC90000078002858D12549087000BF2448028850
:10ACA0000021244802F0AFFF1128F7D000BF43E095
:10ACB0003C200020F021002040200020082000201F
:10ACC0006F2000202220002021200020FE210020D3
:10ACD000602200206583010095F801001820002003
:10ACE0003620002038200020192000201C200020C1
:10ACF0002420002047200020482000203020002071
:10AD0000E09304006A2000206D2000204C200020E9
:10AD100000200020042000201098020009200020BC
:10AD20000C20002010200020142000204D200020A6
:10AD30005E2000209C29020014480288012114484A
:10AD400002F061FF1128B2D012480078002805D027
:10AD500011480078002801D10E49087088E6BFF339
:10AD60004F8F0E480E49C860BFF34F8F00BFFEE7FC
:10AD700003210522120707231B02D2188300D1509A
:10AD8000704701218140074A916070476020002090
:10AD90009C2902004E200020182000200400FA0503
:10ADA00000ED00E00005005010B504462088502852
:10ADB0000BD0512802D0522808D100E007E0A0882B
:10ADC00000231A461946A9DF01E000E000BF00BFDA
:10ADD00010BD70B5044620881038030007F07CFBD6
:10ADE00009060A2410242424232224000120854952
:10ADF00008701AE0844873DF00208249087014E06C
:10AE000000BFA0880023814A19467FDF0546002D38
:10AE100006D000BF002211462846FDF78DF900BF7D
:10AE200000BF02E001E000E000BF00BF70BD70B5F0
:10AE3000AAB000201B901C901D90159010A90874BA
:10AE400014A860DF0446002C0DD0082C0BD000BFE6
:10AE50002646002E06D000BF002211463046FDF7E0
:10AE60006BF900BF00BF06253021694807F06EFA74
:10AE70006748C570022066490870664800681390EC
:10AE800011A871DF044600BF2646002E06D000BF81
:10AE9000002211463046FDF74FF900BF00BF5E4863
:10AEA0005EA1026801A807F003FB01A807F059FAA8
:10AEB00086B2324601A913A87CDF044600BF2646AD
:10AEC000002E06D000BF002211463046FDF734F9AF
:10AED00000BF00BF002016901790062110A8018324
:10AEE0002721418328218183FF219131C18316A825
:10AEF0007ADF044600BF2646002E06D000BF00229F
:10AF000011463046FDF718F900BF00BFFFF76DFD91
:10AF1000112118A801734448017818A841734248C8
:10AF2000417818A881734048817818A8C1733E48B9
:10AF3000C17818A801743D480068010E18A8417432
:10AF40003A4800680002010E18A88174374800884A
:10AF50000004010E18A8C1743448017818A80175BE
:10AF60003348017818A84175192181750B2110A863
:10AF700081841BA91A912F49018430211EA807F052
:10AF8000E5F9002118A88176012128A8017118A8E7
:10AF90002890002101761EA91D4800F0D9FA044628
:10AFA00000BF2646002E06D000BF002211463046C4
:10AFB000FDF7C2F800BF00BF134873DF044600BFAF
:10AFC0002646002E06D000BF002211463046FDF76F
:10AFD000B3F800BF00BF2AB070BD10B5044620888A
:10AFE000F0210840102802D0502808D103E0204664
:10AFF000FFF7EFFE04E02046FFF7D6FE00E000BFBB
:10B0000000BF10BD782000207C200020942000206C
:10B01000A8220020D8290200282000204C494E4EAA
:10B020004F2C253038780000302000203C200020B4
:10B03000402000200A180000F7B584B004460F46EF
:10B0400006980678B01C1F2803DC6078801C1F2837
:10B0500002DD0C2007B0F0BD1F20801B801E85B2D2
:10B060000295B11C781802A97DDF0390039800288F
:10B0700001D00398EEE72078022808D168460089BD
:10B08000A84204DC09200190684605890BE00820ED
:10B0900001906078002804D06078A84201DC6578CF
:10B0A00001E068460589681CC2B23046711CCEB208
:10B0B0003A543046721CD6B2019939540698017838
:10B0C000A81C0818C1B2069801700020C2E7F8B5A4
:10B0D00005460C462078001D1F2801DD0C20F8BD18
:10B0E000684679DF0646002E01D03046F7E7032197
:10B0F0002278501C2070A95419212278501C2070ED
:10B10000A954207841196846008800F05EFA217839
:10B11000401820700020E2E730B503461078C01CCC
:10B120001F2801DD0C2030BD02241578681C10702A
:10B130004C550A241578681C10704C551578681CFD
:10B1400010704B550020EEE7FFB587B006461D4650
:10B15000109C0020069020780590002747E0B90059
:10B16000706841180A886846028149884181002236
:10B1700003A902A865DF04900498002802D004986F
:10B180000BB0F0BD6846017B099881422ED106982C
:10B19000002801D0002000E00220019020786946BC
:10B1A000097B4118019808181F2801DD0C20E7E7EA
:10B1B0000698002809D12078401C20702278511C64
:10B1C00008982170A854012006902078421903A9FC
:10B1D00002A865DF04900498002801D00498CFE706
:10B1E00020786946097B4018207000BF7F1C30889A
:10B1F000B842B4DC0698002806D021780598401C97
:10B20000081AC1B2059829540020B9E7FFB581B0EA
:10B21000074615460A9E009602223846049B02996C
:10B22000FFF792FF0446002C02D0204605B0F0BD87
:10B230000096102229463846049BFFF785FF0446F6
:10B24000002C01D02046F1E70020EFE701460888F6
:10B25000062808DB08881922D201904205DD0888FB
:10B26000DE4A904201D0072070474888062808DB54
:10B2700048881922D201904205DD4888D74A904279
:10B2800001D00720F0E70888D44A904208D04888C7
:10B29000904205D008884A88904201DD0720E3E704
:10B2A0000020E1E7F8B506460D4614462078801DDB
:10B2B0001F2801D90C20F8BD3046FFF7C7FF07460D
:10B2C000002F01D03846F6E705212278501C207067
:10B2D000A95412212278501C2070A95422785119A7
:10B2E000308800F072F921784018207022785119C6
:10B2F000708800F06AF92178401820700020DAE7A1
:10B30000F8B505460E4614462879801CC7B2207849
:10B31000801CC0191F2801DD0C20F8BD781CC1B2AB
:10B320002278501C2070B154FF212278501C2070CC
:10B33000B15422789119288800F047F921784018F3
:10B340002070A88800280EDDA868002801D10720F9
:10B35000E3E7AA8823789819A96806F0DEFF207829
:10B360002979401820700020D7E7FEB507460E4621
:10B370001446B86A002801D10720FEBD00200190C4
:10B3800032E0B96A0C22019850430D182879801CCC
:10B39000C0B200900098401CC1B22278501C2070AE
:10B3A000B15416212278501C2070B1542278911982
:10B3B000288800F00AF9217840182070A888002811
:10B3C0000EDDA868002801D10720D6E7AA882378D7
:10B3D0009819A96806F0A1FF2078297940182070F3
:10B3E0000198401CC0B201902C20C15D019881429F
:10B3F000C7DC0020C1E7F8B504460F461546002615
:10B40000002028702078002809D02A463946204696
:10B41000FFF712FE0646002E01D03046F8BDA07898
:10B42000002808D029463846FFF751FE0646002E70
:10B4300001D03046F2E7E07800280ED002212A78C9
:10B44000501C2870B95401212A78501C2870B95416
:10B45000E1782A78501C2870B954606800280BD015
:10B460000020616808562A463946FFF755FE064611
:10B47000002E01D03046D1E7208900280CDD3B4664
:10B4800006220221204608300095FFF7BFFE06463F
:10B49000002E01D03046C1E7208A00280CDD3B4653
:10B4A00007220321204610300095FFF7AFFE064625
:10B4B000002E01D03046B1E7208B00280CDD3B4642
:10B4C00015221421204618300095FFF79FFE0646EE
:10B4D000002E01D03046A1E7206A002809D02A4674
:10B4E0003946206AFFF7DEFE0646002E01D03046C0
:10B4F00094E7606A002809D02A463946606AFFF757
:10B50000FFFE0646002E01D0304687E72C20005D66
:10B51000002809DD2A4639462046FFF726FF064661
:10B52000002E01D0304679E7304677E70146C878EB
:10B5300004221040002801D1072070470020FCE7BA
:10B540000146C878002801D0072070470020FCE79A
:10B55000F3B593B00D460021129111911398002874
:10B5600014D01398FFF7E2FF0446002C02D02046C7
:10B5700015B0F0BD12AA09A91398FFF73CFF0446C5
:10B58000002C01D02046F3E709AE00E00026002D94
:10B5900013D02846FFF7D4FF0446002C01D02046E4
:10B5A000E6E711AA01A92846FFF725FF0446002C6B
:10B5B00001D02046DCE701AF00E0002710A80379A6
:10B5C0003A46017A304672DFD2E702460A70FF201F
:10B5D000000210400012487002207047FFFF000078
:10B5E00070B504460D462946204600F011F800BF0C
:10B5F000E106C90E012088402149086000BF00BF54
:10B60000E106C90E012088401E49086000BF70BDD8
:10B6100010B5002819DA1C4A03071B0F083B9B08CA
:10B620009B00D2588307DC0EFF23A3409A438B076D
:10B630001B0E8407E40EA3401A43134B0407240F88
:10B64000083CA408A4001A5118E00E4A03231B0268
:10B65000D21883089B00D2588307DC0EFF23A34037
:10B660009A438B071B0E8407E40EA3401A43054B35
:10B67000032424021B198408A4001A5110BD0000E1
:10B6800080E200E000E100E01CED00E010B50522E2
:10B69000120707231B02D2188300D25803231B046E
:10B6A0009A4305231B07072424021B1984001A51FF
:10B6B0000522120707231B02D2188300D2580B045D
:10B6C0001A4305231B07072424021B1984001A515F
:10B6D00010BD0146FE484056002805DBFC48405698
:10B6E000042801DA012070470020FCE7F7B585B097
:10B6F0000B460020C0430490002A01D0002000E047
:10B7000004200390002A01D0042000E005200290CC
:10B7100003991EE08C00EE4814380059401C0028A4
:10B7200016D10846059C0093019246B2E84D2E556D
:10B730008600143D009BAB51019A002A04D166B2E9
:10B74000051FE34F20377E5500BF48B2049003E049
:10B75000491C02988142DDD300BF049808B0F0BDB7
:10B760000022D2438300DA491439CA50042804DB8A
:10B770001346011FD64A20325354704710B5D4489F
:10B7800018380078002801D0082010BD002404E0FB
:10B79000204600F0BCFB601CC4B2202CF8DB002467
:10B7A00004E02046FFF7DCFF601CC4B2052CF8DB88
:10B7B00001210620FFF714FF0120C00700F06FFBF6
:10B7C0000120C349183908700020DEE7C048183846
:10B7D0000078002801D0012070470020FCE770B5F8
:10B7E0000446204600F071FB002812D000BFA100E3
:10B7F000B84A891809680222914308460221014388
:10B800000522120707231B02D218A300D15000BF44
:10B810001EE02046FFF75DFF002819D0204600F00B
:10B820007BFB05462846AC4951221201891882004B
:10B83000895849084900A84A51231B01D21883009E
:10B84000D15000BF0120A840A449886000BF00BFBC
:10B8500070BD70B505462846FFF7C1FF2846FFF7C3
:10B8600038FF00280CD0284600F056FB0446002084
:10B870009949512212018918A200885000BF00BFC7
:10B88000284600F00FFB284600F046FBC4B22046D5
:10B89000FFF766FF284600F03AFB70BD10B504467E
:10B8A0002046FFF716FF002803D08949085DFFF7FF
:10B8B00057FF204600F02BFB204600F0F3FA10BDA6
:10B8C00010B5002417E0204681490956891C00293B
:10B8D00001D1012100E00021002903D02046FFF71B
:10B8E000DDFF07E0204600F007FB002802D02046DD
:10B8F000FFF7AFFF641C202CE5D3002074491839F2
:10B90000087010BDFEB504460E460020019020468A
:10B910006F490956491C002901D0012100E000218E
:10B92000002902D0082001905BE0B07800283AD0CE
:10B93000012200212046FFF7D9FE0546681C002899
:10B940002ED037787278009263485121090140184F
:10B95000A9004058624908405F49512212018918E4
:10B96000AA0088505C48512109014018A90041589B
:10B9700020021F22120210403A0403231B041A4023
:10B980001043009A120501231B051A40104301437E
:10B990005148512212018018AA00815000BF01E0D5
:10B9A0000420019006E000BF0121C9434848015529
:10B9B00000BF00BF0198002813D100BF032005215C
:10B9C0000907072212028918A200885000BF707868
:10B9D000012803D1204600F06EFA02E0204600F074
:10B9E0006FFA0198FEBD10B50446204600F063FAD8
:10B9F00010BD10B50446204600F062FA10BD10B527
:10BA0000014601248C402246364C6468CC40E30752
:10BA1000DB0F002B02D1334CA26001E0314CE2601D
:10BA200000BF10BD30B50146294A505683002E4C48
:10BA30001B191B69032423431A461F231B021343AC
:10BA4000254C51252D0164198500635100BF00BFAD
:10BA500000BF214B512424011B1984001A5100BF3F
:10BA600030BD10B501461A4A50561B4A51231B01DE
:10BA7000D2188300D25892089200174B5124240107
:10BA80001B1984001A5100BF10BD70B50546284629
:10BA900000F042FA8006040E20460F49411808467D
:10BAA00070BD70B502460B46002B01D0012000E0AE
:10BAB00000200146064CA056074C51252D01641963
:10BAC0008500645901252D05AC43034D51260DE039
:10BAD000F02200200007005000600040006300409A
:10BAE000FFE0ECFF00050050006500403601AD1995
:10BAF0008600AC51F94C51252D016419850064591B
:10BB00000D050126360535402C43F44D51263601EE
:10BB1000AD198600AC5100BF70BD70B5044620461B
:10BB200000F0FAF98006050E00BF0120EB49691804
:10BB3000086000BF70BDF7B582B004460E46002015
:10BB40000190204600F0D8F9002802D0082001908A
:10BB50005FE0F27820460499FFF7C8FD0546681CAF
:10BB6000002853D0B078002810D000BFA100DC4AD4
:10BB7000891809680222914308460521090707220E
:10BB800012028918A200885000BF0AE07078810074
:10BB90000522120707231B02D218A300D15000BFB1
:10BBA00000BFF078002826D03778CC485121090111
:10BBB0004018A9004058CB490840C84951221201F9
:10BBC0008918AA008850C548512109014018A900C8
:10BBD000415820021F22120210403A0403231B0482
:10BBE0001A4010430143BD48512212018018AA0097
:10BBF000815000BF0CE0281FBB49085C31788901E7
:10BC0000084342B2281FB8490A5401E004200190B9
:10BC100000BF019805B0F0BDFEB505460E462846AA
:10BC200000F053F9002822D0284600F075F9001FD3
:10BC3000009000F075F90746BC11032C0CD100BF31
:10BC4000AA4800690121A9400840002801D003202A
:10BC500000E00220019005E0012C01D1022000E06B
:10BC60000320019028460199FFF710FD27E02846A0
:10BC7000FFF72FFD002822D0284600F04DF904469A
:10BC8000A000FF30013087B22046944951221201B2
:10BC900089188200895801221143904A51231B01BF
:10BCA000D2188300D15000BF384600F0F0F8002EC3
:10BCB00004D00121A140084600F0F1F800BFFEBD0C
:10BCC000014600BF89480069C840C007C00F00286E
:10BCD00001D0012070470020FCE770B504462046E3
:10BCE00000F01AF98000FF30013085B2284600F0DC
:10BCF000BFF870BDF0B587B0002600200690FF2089
:10BD0000013005900125002417E0059800F0B4F8F3
:10BD100000280CD00120A040754949680140002945
:10BD200005D0059800F0B3F83046284306466D006C
:10BD30000598001D80B20590641C042CE5D3FF20FB
:10BD40007D3000F099F800280AD0FF207D3000F007
:10BD50009EF80120C007064300BF644800690690B2
:10BD60003007000F00282AD00125002425E02846AE
:10BD7000304000281FD000BF584851210901401809
:10BD8000A10040581F2109020840000A049000BF8A
:10BD90005248512109014018A100405803210904CB
:10BDA0000840000C0390204600F0BFF807460399B6
:10BDB0000498B84700BF6D00641C042CD7D3F00F63
:10BDC000C007002852D000244EE0204600F0A8F81A
:10BDD0000490C021049888430746049808408011C5
:10BDE00003900120B8400546384600F06EF8002860
:10BDF00039D0384600F090F8019000F096F80290A3
:10BE0000029800282ED000BF052000070721090254
:10BE10004018B9004058032109040840000C019063
:10BE200006982840002802D00198022806D00698DB
:10BE30002840002815D10198032812D1039803281F
:10BE40000BD10198022801D1032000E002200090CC
:10BE500038460099FFF71AFC00BF3846029A03994A
:10BE6000904700BF00BF641C002CAED007B0F0BDEF
:10BE700001461A480818704710B504462046FFF7D7
:10BE8000F7FF0068012800D110BD0020FCE710B5C5
:10BE900004462046FFF7ECFF0021016010BD144965
:10BEA0004860704702210522120707231B02D2189F
:10BEB0008300D1507047012181400C4A9160704746
:10BEC00001218140094AD160704701460648203867
:10BED000405604280EDB012070470000006000403F
:10BEE00000070050FFE0FCFF102300200005005079
:10BEF000006300400020EFE701460F484056C0179E
:10BF0000401C002801D0012070470020FCE70022DF
:10BF1000D24309490A5470470146074840567047C2
:10BF2000014605482030405C704701468A000248BF
:10BF30001438805870470000F022002010B5F748F0
:10BF40004068C105C90D002920D00A46103A50B2F8
:10BF500000280DDAF14B1C330407240F083CA40819
:10BF6000A4001B598407E40EE3401B069B0F0BE063
:10BF7000EB4B032424021B198408A4001B598407DB
:10BF8000E40EE3401B069B0FD8B210BD0420FCE773
:10BF9000E4490978002904D10121E24A1170002006
:10BFA00000E08520704770B500260325DD48007845
:10BFB000002833D00020DB49087000BF401EDA495A
:10BFC000886000BF002416E0204600F0FDFA2840FB
:10BFD000002808D000BF0020D449CA148918A20044
:10BFE000885000BF00BF204600F0EEFA294681438A
:10BFF0000D46601CC4B2002DE6D100BFCC480068DD
:10C00000800B8003CA49086000BF00BFC9480078A0
:10C0100080088000C749087000BF00E0082630464D
:10C0200070BDF1B584B0002504200390C24D0024FA
:10C0300057E000200290FFF781FF0190019801284E
:10C0400013D002A836DF0646022E01D172B60BE0ED
:10C0500000BF3746002F06D000BF002211463846E9
:10C06000FCF76AF800BF00BF00BF204600F0A8FA46
:10C070002840002812D0204600F0D6FA00280DD122
:10C0800000BF204600F09CFAA94909680843A84966
:10C09000086000BF049804700020039001980128F4
:10C0A00013D062B66846007A37DF0646022E0BD000
:10C0B00000BF3746002F06D000BF00221146384689
:10C0C000FCF73AF800BF00BF00BF0398002800D17A
:10C0D00009E0204600F074FA294681430D46601CB1
:10C0E000C4B2002DA5D100BF039805B0F0BDFEB5C8
:10C0F0000446204600F06CFA002801D1072541E0F3
:10C10000204600F052FA002500200190FFF716FFAC
:10C1100000900098012813D001A836DF0646022EB1
:10C1200001D172B60BE000BF3746002F06D000BF2A
:10C13000002211463846FBF7FFFF00BF00BF00BFDB
:10C1400000BF204600F03CFA7949096881437848ED
:10C15000016000BF0098012813D062B668460079DC
:10C1600037DF0646022E0BD000BF3746002F06D021
:10C1700000BF002211463846FBF7DEFF00BF00BFBC
:10C1800000BF00BF2846FEBDF8B504460D46164662
:10C19000002D01D0002E01D10E271DE0204600F019
:10C1A00017FA002801D1072716E0204600F03CFAD4
:10C1B000002801D108270FE000BF5C485121090188
:10C1C0004018E10045505948512109014018E1004B
:10C1D0004018466000BF00273846F8BD70B50546D8
:10C1E000284600F00BFA002801D1072412E0284667
:10C1F00000F0EEF9002806D0284600F015FA0028D5
:10C2000001D1082406E000BF0120A840464948604B
:10C2100000BF0024204670BD70B50546284600F0DA
:10C22000EDF9002801D107240FE0284600F0D0F9ED
:10C23000002806D0284600F0F7F9002801D108248C
:10C2400003E0284600F0B1F90024204670BDF1B5A6
:10C2500084B00025042003900325002457E000202B
:10C260000290FFF76BFE01900198012813D002A8FD
:10C2700036DF0646022E01D172B60BE000BF37460C
:10C28000002F06D000BF002211463846FBF754FFAE
:10C2900000BF00BF00BF204600F096F928400028EC
:10C2A00012D0204600F0CEF900280DD100BF204664
:10C2B00000F08AF91F49097808431E49087000BF39
:10C2C00004980470002003900198012813D062B6EE
:10C2D0006846007A37DF0646022E0BD000BF37468D
:10C2E000002F06D000BF002211463846FBF724FF7E
:10C2F00000BF00BF00BF0398002800D109E020461E
:10C3000000F062F9294681430D46601CC4B2002D3D
:10C31000A5D100BF039805B0F0BD000000ED00E01E
:10C3200000E100E09C20002000F5014000F0014009
:10C33000A0200020A4200020FF3F0000FEB50546FD
:10C34000284600F064F9002801D1072448E0284677
:10C3500000F078F9002801D1082441E0284600F0D7
:10C3600029F9002400200190FFF7E8FD00900098D3
:10C37000012813D001A836DF0646022E01D172B67D
:10C380000BE000BF3746002F06D000BF0022114649
:10C390003846FBF7D1FE00BF00BF00BF00BF2846F4
:10C3A00000F012F9AE4909788143AD48017000BF31
:10C3B0000098012813D062B66846007937DF064638
:10C3C000022E0BD000BF3746002F06D000BF002240
:10C3D00011463846FBF7B0FE00BF00BF00BF00BFEC
:10C3E0002046FEBD70B50546284600F010F900282D
:10C3F00001D107240EE0284600F024F9002801D1DD
:10C40000082407E000BF0120E900964A8918086067
:10C4100000BF0024204670BD70B50546284600F0D8
:10C42000F6F8002801D1072403E0284600F0C2F8FE
:10C430000024204670BDFEB506460C46204600F09E
:10C44000E6F8002801D1072550E0204600F0FAF870
:10C45000002801D1082549E0304600F0C6F8002840
:10C4600001D1072542E000200290FFF767FD01900F
:10C470000198012814D002A836DF0746022F01D107
:10C4800072B60CE000BF0097009F002F06D000BFDF
:10C49000002211460098FBF74FFE00BF00BF00BF0F
:10C4A00000BF7048C1144018A1004058B0436D4906
:10C4B000CA148918A200885000BF0198012814D01E
:10C4C00062B66846007A37DF0746022F0CD000BFFD
:10C4D0000097009F002F06D000BF00221146009851
:10C4E000FBF72AFE00BF00BF00BF00252846FEBDA7
:10C4F000FEB506460C46204600F089F8002801D11A
:10C50000072550E0204600F09DF8002801D10825BD
:10C5100049E0304600F069F8002801D1072542E0E3
:10C5200000200290FFF70AFD01900198012814D025
:10C5300002A836DF0746022F01D172B60CE000BF19
:10C540000097009F002F06D000BF002211460098E0
:10C55000FBF7F2FD00BF00BF00BF00BF4148C114A0
:10C560004018A100405830433E49CA148918A2001F
:10C57000885000BF0198012814D062B66846007A3E
:10C5800037DF0746022F0CD000BF0097009F002F17
:10C5900006D000BF002211460098FBF7CDFD00BF7A
:10C5A00000BF00BF00252846FEBD012181402E4A64
:10C5B000916070470121C2002A4BD2185160704728
:10C5C000014601208840704701460120884070479D
:10C5D00010B504462046FFF7F3FF8004800C0028C6
:10C5E00001D0012010BD0020FCE70146880B80032C
:10C5F000002801D1012070470020FCE770B50446F7
:10C600002046FFF7DDFF0546FFF7EFFF70BD10B5D1
:10C6100004462046FFF7D8FF8007800F002801D08E
:10C62000012010BD0020FCE710B504462046FFF7AE
:10C63000C7FF0E4909680840002801D0012010BD3D
:10C640000020FCE710B504462046FFF7BDFF044973
:10C6500009780840002801D0012010BD0020FCE727
:10C66000A420002000F0014000F50140A02000209F
:10C6700070B504460D4616466079F349085C0028FB
:10C6800001D0082070BD002D03D16079C000EF49B2
:10C690004518EF492068884201D10720F2E7E97880
:10C6A00004202056FEF79CFF61798900E94A6868FA
:10C6B0005050002E04D060798000E7490E5001E010
:10C6C0000720DFE769782068052212028218526885
:10C6D00052085200CB07DB0F1A4305231B02C31875
:10C6E0005A6000BFA9782068052212028218926859
:10C6F000920892008B079B0F1A4305231B02C31855
:10C700009A6000BF297820680522120282181269F7
:10C71000120912010B071B0F1A4305231B02C31832
:10C720001A6100BF01206179C74A50540020A9E76F
:10C7300010B504461021206800F04FF901206179FE
:10C74000C14A505410BD70B504460420205600BFA5
:10C75000C206D20E01219140C04A116000BF00BF45
:10C76000002061798900BC4A50502046FFF7E0FF65
:10C77000BB49206800F03DF9002507E001221204C2
:10C78000AA401146206800F04FF96D1C042DF5D326
:10C7900000206179AC4A505470BD10B504460021A8
:10C7A000206800F01AF902206179A74A505410BDA0
:10C7B00010B504460021206800F00FF910BD10B537
:10C7C00004460421206800F008F910BD10B50446A5
:10C7D0000C21206800F001F910BD10B504460821B5
:10C7E000206800F0FAF810BD70B504460D462946E1
:10C7F000206800F0F5F870BD70B504460D46294676
:10C80000206800F0F3F870BD70B504460D46284668
:10C8100000F00FF906463146206800F0E1F870BDDF
:10C8200070B504460D46284600F008F90646314624
:10C83000206800F0DBF870BD70B504460D46284650
:10C8400000F0F7F806463146206800F0C6F82946A1
:10C85000206800F0DDF870BD70B504460D4629462D
:10C86000206800F0D5F870BDF8B505460C461646B0
:10C870001F4601200004A0400090012F04D1286829
:10C88000009900F0CCF803E02868009900F0CCF89B
:10C890002B68A100152292019818465000BFF8BDE0
:10C8A000F8B505460E4617461C46FF220132B24037
:10C8B0000123B3401A431146286800F09AF828680B
:10C8C000012149020958214301225202115000BF9F
:10C8D0003A4631462846069BFFF7C6FFF8BDF8B535
:10C8E00004460D4601267602206800F08AF80746C5
:10C8F0003046F84068434009F8BDF8B504460D4697
:10C900007D267602206800F07CF807463046F84025
:10C9100068438008F8BD70B504460D46284600F00F
:10C920008DF806463146206800F05DF801221204B9
:10C93000AA401146206800F072F870BD70B5044638
:10C940000D4601221204AA401146206800F06CF83E
:10C9500070BDF8B504460F46002529E0284600F0D2
:10C960006DF80646204631464258002A01D0012281
:10C9700000E00022002A1AD001200004A840032170
:10C980000902611849680140002901D0012100E035
:10C99000002100290BD03146204600F024F8B800D1
:10C9A0002C4B1958B8002C4B1A58304690476D1C28
:10C9B000042DD3D3F8BD10B500212548FFF7C9FFDA
:10C9C00010BD10B501212748FFF7C3FF10BD10B5FA
:10C9D00002212548FFF7BDFF10BD012242507047DC
:10C9E00002465018704700224250704702465018C5
:10C9F00070470122520212588A4301235B021A50E7
:10CA0000704701460520000208180069C0B270474F
:10CA10000246880015239B01D3181858704703223B
:10CA2000120282185160704703221202821891602C
:10CA30007047014688004030C0B270470146880008
:10CA4000FF30413080B27047A5200020DC29020071
:10CA500000800040202300201423002080E100E01B
:10CA60000F0F00000090004000A0004010B500280B
:10CA700019DAF74A03071B0F083B9B089B00D258A3
:10CA80008307DC0EFF23A3409A438B071B0E84070A
:10CA9000E40EA3401A43EE4B0407240F083CA408FD
:10CAA000A4001A5118E0EB4A03231B02D218830892
:10CAB0009B00D2588307DC0EFF23A3409A438B07C9
:10CAC0001B0E8407E40EA3401A43E24B0324240206
:10CAD0001B198408A4001A5110BD10B50446DE4885
:10CAE000846003211120FFF7C1FF10BD10B50120A4
:10CAF0000004DA494860D94940394860112000F003
:10CB0000ECFC112000F0DBFC0120D54908602F204F
:10CB1000FBF7E0FA0120D349087010BD10B51120D1
:10CB200001218140CB4A8032116000BF0120000406
:10CB3000CA498860C949403988600120C8494860AD
:10CB40002F20FBF7C7FA0120C54988600020C6499D
:10CB500008602F20FBF7BEFA0020C249087010BD04
:10CB6000F0B5024624205043C04B1B68C118C04892
:10CB70000068401C002802D1BD48026059E0BC4852
:10CB80004B68006824246043B84C2468001940684E
:10CB9000834217D8B648006824235843B34B1B6818
:10CBA000C01840684B68C31AB14800682424604329
:10CBB000AE4C246800194360AD4800680862AC4878
:10CBC000026036E04B68AA4D2C6828680DE02425E9
:10CBD0004543A64E3668AD196D685B1B0446242597
:10CBE0004543A24E3668AD19286A451C002D07D072
:10CBF000242545439D4E3668AD196D689D42E6D3A8
:10CC0000451C002D0CD024254543984E3668AD199F
:10CC10006D68EE1A24254543944F3F68ED196E6008
:10CC20004B60086224256543904E3668AD192A6230
:10CC300000BFF0BD70B502468D4C2168084609E082
:10CC4000904200D109E0014624244443874D2D68D9
:10CC50006419206A441C002CF2D100BF441C002C33
:10CC600000D170BD814217D1814C246824256C43CA
:10CC70007E4D2D686419246A7D4D2C602C462468F5
:10CC8000641C002C08D10124754DAC600024764D45
:10CC90002C600124774D2C7024244443734D2D685F
:10CCA0006419636824244443704D2D686419256A0F
:10CCB00024244C436D4E3668A419256224244C4329
:10CCC0006A4D2D686419206A441C002C0CD0242461
:10CCD0004443664D2D6864196468E5182424444370
:10CCE000624E3668A419656000BFBAE710B511201E
:10CCF00000F0ECFB10BD10B5142000F0E7FB10BDF8
:10CD000070B504465C480068002812D05A4AE169B0
:10CD1000A06912689047054600BF2E46002E06D037
:10CD200000BF002211463046FBF706FA00BF00BFE5
:10CD300002E0A169E069884770BDF8B54C48006819
:10CD4000401C00283AD0002700F0F9FB0446464872
:10CD50000168204600F0F6FB06464548056811E0EC
:10CD6000242068434149096844186068B04200D9EA
:10CD70000BE06068361A6068C719256A2046FFF71D
:10CD8000BFFF00BF681C0028EAD100BF3B48007805
:10CD90003B490978884209D139480078401CC0B223
:10CDA00037490870022801D1002008703448007803
:10CDB000800034490F50FFF79EFF00BFF8BD0146C9
:10CDC0002E4800782E4A127890421DD02B480078C9
:10CDD000401C2A4A107010460078022801D1002019
:10CDE0001070264800788000264A105808601E4AB5
:10CDF0000868126880181C4A10601046006800021B
:10CE0000000A1060012070470020086000BFFAE7A8
:10CE1000FEB51748006801901B480078009061E05B
:10CE20000098C000194909684418257856E0182070
:10CE3000684361680F18681CC5B2A078A84200D189
:10CE400000253878022823D0032844D12FE00000A1
:10CE50001CED00E000E100E000150140401301403E
:10CE600000100140D0200020BC200020AC20002079
:10CE7000B8200020D1200020CC200020C820002095
:10CE8000C9200020C0200020B0200020B4200020B5
:10CE9000242178684843F84909684618307D0028FD
:10CEA00004D07868FFF7C6FE0020307514E00CE06F
:10CEB000F249096824225143EF4A12688818002178
:10CEC0000175EE4A016A116000BFEC480068401C21
:10CED0000028EDD100E000BF00BF00BF6078A8428D
:10CEE000A5D100BF0098411EC9B20091002897D17A
:10CEF000E24801680198814201D00120FEBD002076
:10CF0000FCE7F0B50346002426E0DC4E3668242713
:10CF10007E43D94F3F68F01946689E4203D9466860
:10CF2000F61A46601DE046689B1B466834190026C9
:10CF300046600675D14E3568D04F066A3E60066978
:10CF4000002E08D00E193602360A86600669C660C1
:10CF500016680662156000BFC8480068401C0028BB
:10CF6000D3D100BFF0BDFEB50746C44800680290AB
:10CF7000C3480078019071E00198C000C149096878
:10CF8000451863E0781C002807D03E4624207043F3
:10CF9000B94909684418276A29E0297818235943B0
:10CFA0006A6850182978491C29702978AA78914212
:10CFB00001D100212970466824217143AE4A1268CC
:10CFC0008C180178012902D1217D002900D03DE093
:10CFD0008168A160C168E160016921614169E16125
:10CFE000A9490978002901D00021A16000BFA74903
:10CFF000A0680968401A0002000AA549884208D2C0
:10D00000A249A068096800F09DFAE16840186060D4
:10D0100011E09E48A168006800F094FA0090E16871
:10D020000098814204D9E1680098081A606001E024
:10D030000020606000BF0020A060E060012020753B
:10D04000801E20623046FFF78BFD00BF781C002851
:10D0500098D128786978884294D100BF0198411E00
:10D06000C9B20191002887D18448016802988142A1
:10D0700001D00120FEBD0020FCE7FEB57F4800681E
:10D08000401C002834D07D480068242148437A4958
:10D0900009684018456800F052FA01907B4804681E
:10D0A0002146019800F04EFAC61C7A480078002804
:10D0B00001D1FFF71BFDAE4201D2284600E0304609
:10D0C00004192402240A20467349086000BF00F0B6
:10D0D00036FA00900199009800F034FAC71C2046F7
:10D0E000019900F02FFA874201D9FFF7FFFD01E017
:10D0F000FFF714FDFEBDFEB50020C043019063485C
:10D1000004685E4807686846FFF759FE0546FFF762
:10D110007FFE0646002D05D001AA21460098FFF7A4
:10D12000F0FE01260198FFF71EFF002800D001261F
:10D13000002E02D03846FFF7A0FF002052490870A9
:10D14000FEBD4170704770B502460B465078411CD9
:10D150009078884200D100211078884201D10020C7
:10D1600070BD196050781826704355682C182046F9
:10D17000F6E7FFB581B005460E461746E900414A7D
:10D18000126888186946FFF7DEFF0446002C02D1BA
:10D19000042005B0F0BD01202070666000F0CFF9DA
:10D1A000A060E760049820610A986061E900354A50
:10D1B000126888180099FFF7C4FFFFF79CFD002054
:10D1C000E7E7F8B504460E46E1002E4A12688818D3
:10D1D0006946FFF7B8FF0546002D01D10420F8BDD0
:10D1E000022028706E60E100264A126888180099B3
:10D1F000FFF7A7FFFFF77FFD0020F0E738B50446F3
:10D20000E100204A126888186946FFF79CFF05462E
:10D21000002D01D1042038BD03202870001F686054
:10D22000E100184A126888180099FFF78AFFFFF793
:10D2300062FD0020EFE710B50020184908600021CA
:10D24000164841608160C16000201449403908607F
:10D250004860FFF772FD10BD10B5FFF74CFF10BD21
:10D26000FFB581B00E4617461C4620468107890F40
:10D27000002915D1012114E0AC200020B8200020A5
:10D28000B0200020B4200020D1200020BC200020AD
:10D29000FFFF7F00D02000204015014040110140D9
:10D2A0000021002902D1072005B0F0BD002C01D1DA
:10D2B0000720F9E7FFF732FCA5490A980860A5485E
:10D2C0000670A548046000250CE000212420684376
:10D2D000A14A12681154242068439F4A126880189A
:10D2E00001756D1CB542F0DB242070430419032046
:10D2F0009A4908709A480460183400250CE0E90047
:10D30000974A126888180021017041708770446044
:10D31000182179430C196D1C032DF0DB0020C0434C
:10D3200090490860002090490870904908701420C6
:10D3300000F0D3F803211420FFF798FB142000F02D
:10D34000BEF80198FFF7C9FB00F0F9F888490860BA
:10D350000020A9E770B503460C467F480068002806
:10D3600001D1082070BD002A01D10720FAE7002B67
:10D3700001D10720F6E700211CE024204843764D28
:10D380002D68285C002814D1012524204843724EC2
:10D3900036683554242048436F4D2D684019447039
:10D3A000242048436C4D2D6840198261196000208B
:10D3B000D8E7491C674800788142DEDB0420D1E7CA
:10D3C00010B500F092F8012802D0032804D101E042
:10D3D000002403E0012401E0022400BF00BF204636
:10D3E00010BDFEB504460D4616465B480068002891
:10D3F00001D10820FEBD57480078844201D2052D96
:10D4000001D20720F6E72420604353490968085CED
:10D41000012801D00820EDE7242060434E49096827
:10D4200040184078012801D1284600E00020074636
:10D43000FFF7C6FF3B462A46214600960190FFF7BC
:10D4400098FED7E770B5044643480068002801D12C
:10D45000082070BD3F480078844201D30720F8E7D8
:10D46000242060433C490968085C012801D0082059
:10D47000EFE7FFF7A5FF05462146FFF7A2FEE8E725
:10D4800010B535480068002801D1082010BDFFF70D
:10D4900097FF0446FFF7B2FEF8E710B5044600F028
:10D4A0004EF82060002010BD70B505460E461446AB
:10D4B0003146284600F046F82060002070BDC206C4
:10D4C000D20E012191402B4A11607047C206D20E44
:10D4D00001219140284A11607047C206D20E0121F5
:10D4E0009140254A80321160704710B5234840684A
:10D4F000C105C90D002920D00A46103A50B20028B3
:10D500000DDA1E4B1C330407240F083CA408A400AA
:10D510001B598407E40EE3401B069B0F0BE0154BE1
:10D52000032424021B198408A4001B598407E40E59
:10D53000E3401B069B0FD8B210BD0420FCE7104847
:10D54000406870470246501A0002000A7047000007
:10D55000CC200020A8200020AC200020B0200020FB
:10D56000B4200020B8200020C8200020C9200020BE
:10D57000BC20002000E100E000E200E000ED00E05F
:10D5800000150140FE4A904202D1FE4AD1600AE0F5
:10D59000FD4A904202D1FD4AD16004E0FC4A90422B
:10D5A00001D1FC4AD160704770B50446606840798B
:10D5B000F9490D5C0126FF2D13D0FE2D12D029460E
:10D5C0006068FFF749F9616849798900F34A515861
:10D5D000884207D1FF2061684979EF4A50540026FC
:10D5E00000E00026304670BD70B505460C462E683A
:10D5F0000C2161438919087AFEF70EFE0C21614364
:10D600008919487AFEF708FE70BD70B50446256892
:10D610002021485DFEF700FE2121485DFEF7FCFD5C
:10D6200070BDF8B50E4634460127002520E06000A5
:10D63000DB494018405D002818D060004018405D6C
:10D64000401E6100D64A89184855600011464018AE
:10D65000405D002809D1A100D248405800680090E0
:10D660000098C1692046884700E00027681CC5B2C1
:10D67000022DDCDB002F04D0A100CA4A505800F074
:10D68000E9FCF8BDF8B507463C6800250BE02046EC
:10D690002030405DFF2804D021462031485DFEF750
:10D6A00026FD681CC5B2022DF1DB2220005DFF289B
:10D6B00003D02221085DFEF741FE002530E0002660
:10D6C00015E00C20684300190830805DFF280CD05D
:10D6D0000C21694309190831885DFEF708FDFF2117
:10D6E0000C206843001908308155701CC6B2022E08
:10D6F000E7DB0C2068432058401C002809D00C218F
:10D7000069436058FEF7CAF80021C9430C206843FA
:10D71000215000210C2068430019C172681CC5B259
:10D72000022DCCDB7868FFF70EF8F8BDF7B584B0B2
:10D730000446164625680C21059848434019039075
:10D740002220405D02902046FFF75FFF029800F024
:10D750006DFC0399087A00F065FC07460399487A46
:10D7600000F060FC0743019738460299FEF7C0FEBF
:10D77000002E2ED1029800F066FC074660680599DD
:10D78000FFF74EF820210190485D3A460199FEF7D7
:10D79000FBFC00231A4603216068FFF765F8606808
:10D7A0000599FFF759F86168497989007B4A50501B
:10D7B00003216068FFF728F8074660680599FFF7BE
:10D7C0002FF821210190485D3A460199FEF7DCFCD3
:10D7D0002CE0288B86B2029800F035FC0746022127
:10D7E0006068FFF71DF820210190485D3A460199D5
:10D7F000FEF7CAFC0023012203216068FFF734F81A
:10D800000020616849798900644A505003216068AA
:10D81000FEF7FAFF074602216068FFF701F82121B1
:10D820000190485D3A460199FEF7AEFC2021485D23
:10D83000FEF7D4FC2121485DFEF7D0FC039846603A
:10D84000032061684979544A505407B0F0BDF7B5D8
:10D8500082B0044625680C21039848434019019082
:10D860002220465D2046FFF7D0FE304600F0DEFB6A
:10D870002021485D00F0D6FB07462121485D00F0DD
:10D88000D1FB0743314638460097FEF731FE60680A
:10D890000399FEF7B9FF074603216068FEF7C0FF52
:10D8A00020210090485D3A460099FEF76DFC6168C2
:10D8B00008680521090241180969C9B2002901D186
:10D8C000012100E000210498091801984068814274
:10D8D00010D201990868FEF7D8F80746032160685E
:10D8E000FEF79EFF21210090485D3A460099FEF721
:10D8F0004BFC09E02120475D384600F093FB3146A0
:10D900000090FEF798FD00BF01990498486000233D
:10D9100060680321049AFEF7A7FF3046FEF762FD18
:10D9200004986168497989001C4A505003986168DD
:10D930004979194A505405B0F0BDF7B584B0044692
:10D9400025680C210598484346192220405D039024
:10D95000059802902046FFF758FE20460599FFF7EC
:10D9600043FE00236068069A0299FEF77DFF039844
:10D9700000F05CFB307A00F055FB0746707A13E04C
:10D9800000800040008C004000900040009C00405F
:10D9900000A0004000AC0040D22000202C2300203A
:10D9A000D52000203823002000F03CFB07430197DE
:10D9B00038460399FEF79CFD706800282ED1039825
:10D9C00000F03BFB074660680599FEF729FF202120
:10D9D0000190485D3A460199FEF7D6FB00231A46AE
:10D9E00003216068FEF740FF60680599FEF734FF89
:10D9F000616849798900FC4A505003216068FEF74C
:10DA000003FF074660680599FEF70AFF2121019090
:10DA1000485D3A460199FEF7B7FB2AE0039800F00B
:10DA20000CFB074602216068FEF7FAFE20210190F8
:10DA3000485D3A460199FEF7A7FB00230122032126
:10DA40006068FEF711FF0020616849798900E64AA5
:10DA5000505003216068FEF7D7FE07460221606838
:10DA6000FEF7DEFE21210190485D3A460199FEF75E
:10DA70008BFB2021485DFEF7B1FB2121485DFEF7BD
:10DA8000ADFB06987060032061684979D74A50540D
:10DA900007B0F0BDFEB504460D46164627680C20BB
:10DAA0006843C019019000952046FFF7AEFD294656
:10DAB0002046FFF799FD002E0FD10C236B432268FF
:10DAC000D218927A002A01D1012200E000221146E8
:10DAD000019A1068FDF7E5FF13E0B869B04210D86D
