:02000002E0001C
:100000000000042059020E00B1020E00B3020E00DF
:10001000B5020E00B7020E00B9020E00000000008B
:10002000000000000000000000000000BB020E0005
:10003000BD020E0000000000BF020E00C1020E0053
:1000400069440E00C7020E00C9020E00CB020E006A
:10005000CD020E00CF020E00D1020E00D3020E0020
:10006000D5020E00D7020E00D9020E00DB020E00F0
:10007000DD020E00DF020E00E1020E00E3020E00C0
:10008000E5020E0045090E00E9020E00EB020E002B
:10009000010A0E00EF020E00F1020E00F3020E0044
:1000A000F5020E00F7020E00F9020E00FB020E0030
:1000B000FD020E00FF020E00C3020E00C3020E007E
:1000C00001030E0003030E0005030E0007030E00DC
:1000D00009030E000B030E000D030E004D3E0E0033
:1000E00011030E0013030E0015030E0017030E007C
:0800F000C3020E0019030E000B
:1000F800364937480A1A02D0072291438D463549B6
:1001080035480A1A06D00722914381F3098802224A
:1001180082F3148831483249324A00F045F83248AF
:100128003249334A00F040F832483349334A00F044
:100138003BF833483349344A00F036F833483449F9
:10014800344A00F031F834483449354A00F02CF884
:1001580034483549354A00F027F8354835490022F2
:1001680000F02DF834483549002200F028F83448CA
:100178003449091A082903DB0022026004300160AF
:10018800314A90471F482049884205D00268043008
:1001980003B4904703BCF7E700208646EC460020EE
:1001A80000212A4A9047FEE7884207D0521A05D014
:1001B800037801300B700131013AF9D17047884258
:1001C80002D002700130FAE77047000000000420F6
:1001D80000F80320000004200000042024870E00FB
:1001E8001C0000204C0000201C030E001C030E0005
:1001F80090810E0024870E001C0000201C000020A7
:10020800AC810E00AC810E00AC810E00AC810E00FA
:10021800AC810E00AC810E00AC810E00AC810E00EA
:1002280024870E0054870E004C0000204C0000204C
:100238004C000020A4270020A4270020A427002089
:10024800A4270020A42900207D020E0035060E00F8
:100258000F484FF00701884385460E4880470E48EF
:10026800016841F470010160BFF34F8FBFF36F8FD6
:10027800FFF73EBF09480A490A4A884207D0521A7E
:1002880005D0037801300B700131013AF9D170477C
:100298000000042071450E0088ED00E098810E00F2
:1002A800080000201C000020FEE7FEE7FEE7FEE74E
:1002B800FEE7FEE7FEE7FEE7FEE7FEE7FEE7FEE70E
:1002C800FEE7FEE7FEE7FEE7FEE7FEE7FEE7FEE7FE
:1002D800FEE7FEE7FEE7FEE7FEE7FEE7FEE7FEE7EE
:1002E800FEE7FEE7FEE7FEE7FEE7FEE7FEE7FEE7DE
:1002F800FEE7FEE7FEE7FEE7FEE7FEE7FEE7FEE7CE
:10030800FEE7FEE7FEE7FEE7FEE7FEE7FEE7FEE7BD
:04031800FEE700BF3D
:10031C001F2886BF00F01F00044A4FF0A0420123A3
:10032C0003FA00F0C2F80805704700BF0003005044
:10033C0000207047011F014802F077BACC810E00F3
:10034C0013B5074C01AB0A460146204602F023FDCB
:10035C00019A0448214601F057FE02B010BD00BFBF
:10036C000B190020AC810E0001F018B803780BB902
:10037C0001F014B8014A042100F09CB975030E0079
:10038C00F8B503292FD8DFE801F0092A022A012247
:10039C0015491648BDE8F84001F054BE124E144CF5
:1003AC00144F3178124802F02BFD054678B93846C7
:1003BC0004F0CEFF1048A268616805F067FF0F4893
:1003CC0002F013FA18B103306060A56025700122A9
:1003DC003146064801F036FE0028E2D0F8BDBDE8F3
:1003EC00F84004F011BFF8BD34190020AC810E00A8
:1003FC008819002090810E0074190020CC810E0009
:10040C001F2886BF00F01F00044A4FF0A0420123B2
:10041C0003FA00F0C2F80C05704700BF000300504F
:10042C00083808B5062821D8DFE800F008151C208C
:10043C0020200400BDE8084000F038BE03F03CFA70
:10044C0008B900F031FE0D20FFF762FF0E20BDE869
:10045C000840FFF7D5BF00F03BFE0E20FFF758FF1A
:10046C000D20F4E7BDE8084000F022BE08BD0000F6
:10047C002DE9F3412D4802F0A1F92C4802F0B5F911
:10048C00002850D02A4B002140F60302033058605C
:10049C009960DA601970274B27485860DA60274852
:1004AC00274A98601A614FF0A0430322C3F83427FF
:1004BC000D20C3F83827FFF7A3FF0E20FFF728FF06
:1004CC00084602F04FFD58BB1E4FDFF8848040F207
:1004DC0022323A804FF080520446516E126E0D4615
:1004EC001443012604F00F034246022101A806F032
:1004FC00C0F89DF8043027F816302309013643EA7A
:10050C0005732A09112E1C461546EBD10E4800F036
:10051C0043FD28B90D4800F0E5FD08B900F0AEFD2B
:10052C0002B0BDE8F0810320FAE700BFCC810E00D9
:10053C0088190020741900204D030E0041030E0091
:10054C00201900204C000020E4810E00AC810E002C
:10055C00E0810E00074B1B5C1F2B86BF03F01F03B3
:10056C0005494FF0A041012202FA03F3C1F80C3502
:10057C00704700BFF0810E0000030050074B1B5C5E
:10058C001F2B86BF03F01F0305494FF0A04101222A
:10059C0002FA03F3C1F80835704700BFF0810E0072
:1005AC000003005008B50020FFF7E8FF0120FFF71B
:1005BC00E5FF0220FFF7E2FF0320BDE80840FFF74C
:1005CC00DDBF000030B40B4C0B4D00220320135D3B
:1005DC001F2B86BF03F01F0329464FF0A04103F5E4
:1005EC00E0730132042A41F82300F0D130BCFFF74C
:1005FC00D9BF00BFF0810E0000030050BFF34F8F36
:10060C000549064BCA6802F4E0621343CB60BFF3A2
:10061C004F8F00BFFDE700BF00ED00E00400FA05BE
:10062C0008B5FFF7EBFF00000022104610B54FF4A1
:10063C00805104F09BF8024608B1FFF7DFFF0A482F
:10064C00C0F57E2104F092F80028F6D1FFF7BAFF2E
:10065C000220FFF77FFF04F06FF804460028ECD16E
:10066C0004F072F8204610BD00000E0012F00303D7
:10067C0010B511D1094C22604C1CE400A4B22244E8
:10068C00074C2260074A1370074A1370074A108000
:10069C00074A1846118010BD072010BDA019002074
:1006AC009C19002098190020A8190020A4190020DA
:1006BC00A61900202DE9F047294D2B888B420646C0
:1006CC000C46174646D3002002F056F8254B264A16
:1006DC002648197813780088DBB2834238BF01337F
:1006EC00C9B234BFDBB2002399422CD092F80080FF
:1006FC001378DBB2984286BF0133DBB20023137050
:10070C00002002F03BF84FF6FF73984525D0DFF838
:10071C0064A0DAF800304FEAC80903EB090243F889
:10072C0038709EB194B1124B28881B68224608FB86
:10073C000030314605F0C2FFDAF800304B4400209F
:10074C009C80BDE8F0874FF6FF78D9E700209080B9
:10075C00BDE8F0870920BDE8F0870420BDE8F087EC
:10076C00A4190020A819002098190020A61900200F
:10077C009C190020A0190020F8B5124C124D2646E9
:10078C0022782B789A4200D1F8BD23780F48104A72
:10079C00078812680F48DBB219B202EBC10E006871
:1007AC0052F83120BEF8041003FB070090470A4AA8
:1007BC0023781288DBB29A4286BF0133DBB2002366
:1007CC003370DDE7A819002098190020A419002027
:1007DC00A01900209C190020A6190020094A537862
:1007EC0091780133DBB2994208BF0023117899420A
:1007FC001FBF03705078182303FB002014BF043074
:10080C0000207047AC190020082910B5044602D00E
:10081C000020FFF705FF23686068BDE8104018470B
:10082C0037B5044600200D4601F0A6FF0DF1070078
:10083C00FFF7D4FF90B10570094B9DF80720446079
:10084C005A700024002001F099FF24B9054B4FF495
:10085C008012C3F80021204603B030BD0424F1E718
:10086C00AC19002000E100E0204B21491A682F232D
:10087C0000BF00BF00BF00BF00BF00BF00BF00BF74
:10088C008A422FD000BF00BF00BF00BF00BF00BF17
:10089C0000BF00BF00BF00BF00BF00BF00BF00BF54
:1008AC0000BF00BF00BF00BF00BF00BF00BF00BF44
:1008BC0000BF00BF00BF00BF00BF00BF00BF00BF34
:1008CC0000BF00BF00BF00BF00BF00BF00BF00BF24
:1008DC0000BF00BF00BF00BF00BF00BF00BF00BF14
:1008EC0000BF00BF013BC3D1704700BF24000020F4
:1008FC000024F4000C4B0D484FF4003210B5C3F833
:10090C00802001244FF48033C0F84833C0F80833FA
:10091C004460FFF7A9FF064B846000201860FFF7C6
:10092C00A3FF044B187010BD00E100E00010014063
:10093C00C81A0020B91A0020264B2DE9F3411B6878
:10094C0025490025C1F84051C1F84451C1F848511E
:10095C00C1F84C51C1F80051C1F80451002B34D0EE
:10096C00D1F804451D49DFF888800968641A24F021
:10097C007F442F461A68A24212D8A41A15441A7C36
:10098C00DE6962B15A691F7400929B6901934246F9
:10099C0008216846FFF78EFE08B1FFF741FEBEB98D
:1009AC000F4B104A197813788B4205D10133DBB207
:1009BC00022B08BF0023137012780B4B43F8225004
:1009CC000A4B4FF48012C3F8002102B0BDE8F0814D
:1009DC003346CFE7CC1A002000100140C81A002083
:1009EC00C41A0020C51A0020BC1A002000E100E047
:1009FC0015080E002DE9F74F9C4A9D49137809788C
:100A0C009C4D994258D00133DBB2022B08BF002316
:100A1C00137099491278994B0F6853F822003B18C0
:100A2C0023F07F4300220B602B6814461646964633
:100A3C0013B942B12B6006E0196881422AD902B180
:100A4C002B60091A196001272B688D4EDFF83CA228
:100A5C0001934FF00008002C64D02046E469864BCB
:100A6C00D0F804E01A68AEEB020323F07F41854B0B
:100A7C009942836800F2B5800B4403600023436005
:100A8C008360C3612B6801220274002B40F0B2809A
:100A9C002860E0E7401A0E44D968C3F800E0D3F8A8
:100AAC001CC031B1BA1922F07F42DC615A609960E6
:100ABC001C4663460122BBE700242746C4E7531CAF
:100ACC00B178DBB2994233704FF0180303FB02622A
:100ADC0008BF347013799068022B1BD0032B11D0F4
:100AEC00012B1FD1017CE9B9D36843601369836082
:100AFC005369C36093698361634B1B78002BAED041
:100B0C004160ACE700232C681A46002C65D14BB130
:100B1C002C6007E0D5F800B05B46D946002B57D1C6
:100B2C0000230374327873789342C8D1B8F1000F64
:100B3C0005D12B68019A9A4201D1002F42D02B6823
:100B4C00002B72D0D3F80090504C4B4BD4F804656A
:100B5C0018684F4F351A3B7825F07F4503359BB904
:100B6C004FF48033C4F84433C4F80433494B4FF486
:100B7C0000324FF00108C3F880211A60C4F80080DD
:100B8C00FFF772FE87F80080A9452CBF4844401936
:100B9C0020F07F40C4F84005D4F804359B1B23F0AB
:100BAC007F43801B033320F07F4083420AD9D4F863
:100BBC000435C4F84035FFF757FE364B4FF400327E
:100BCC00C3F80021304B00221A7003B0BDE8F08F3F
:100BDC0098422DD09946DB69A0E722740123E46981
:100BEC0093E7A2EB0E0222F07F429A4234BF9B1A8B
:100BFC00002342E7026819688A420BD88A1A1A60E5
:100C0C00C36145E7521AD9699E4661B90260C16158
:100C1C00D86120E79E4619689142F3D3891A19606E
:100C2C0019467346F2E70B46F5E7FFF763FEC9E793
:100C3C0048450CD1DBF81C302B6043B90E4901221E
:100C4C00CAF808200B60104B1A70FFF70DFEC26932
:100C5C000368C9F81C2012B111680B4413602B688F
:100C6C009B4518BF4FF001085AE700BFC41A00207B
:100C7C00C51A0020CC1A0020C81A0020BC1A00206B
:100C8C00AC190020FEFF7F00B81A002000100140B4
:100C9C00B91A002000E100E008B5FFF72BFE114B5C
:100CAC0000200B2218709A7058700F4B18600F4B65
:100CBC0018700F4B18700F4B4FF48012E021C3F8D3
:100CCC00802183F814131A6002F18042A2F56F227E
:100CDC00C2F8080583F81113074BD2F804251A60E3
:100CEC0008BD00BFAC190020CC1A0020C41A00208B
:100CFC00C51A002000E100E0C81A0020074B9B78C1
:100D0C004BB132B128B10368187C20B959745A61BF
:100D1C007047072070470820704700BFAC190020AF
:100D2C002DE9F3411D4EB37804460D46174693B397
:100D3C0088B304292DD943696BB3437C0020012B64
:100D4C000CBF88464FF0000801F016FD0DF10700AE
:100D5C00FFF744FDD8B101230370114B4460D3F865
:100D6C00043583609DF80730C560C0F8108047617A
:100D7C0073700024002001F001FD24B9094B4FF4DD
:100D8C008012C3F80021204602B0BDE8F081042493
:100D9C00F0E70724F7E70824F5E700BFAC190020BB
:100DAC000010014000E100E0064A92783AB130B1FF
:100DBC00426922B1002202740221FFF731BD0820E2
:100DCC00704700BFAC19002043681B68184700002F
:100DDC00024B5B6803B11847704700BFD01A002064
:100DEC0010F0800F14BF034B034B00F00F0003EB0C
:100DFC00C0007047DC1A0020241B002008B5FFF748
:100E0C00EFFF016009B9416008BD4B681B68436086
:100E1C0008BD0000024B01465A681868104700BF15
:100E2C00241B0020014B1B68184700BFD01A002060
:100E3C00012806D002D3022805D070470348FFF7DB
:100E4C00F1BF0348FBE70348F9E700BF40820E00FF
:100E5C0044820E0048820E00FFF7E4BF0148FFF702
:100E6C00E1BF00BF4F820E0038B5831EDBB2062BEC
:100E7C0098BF194A194C98BFD25C2378A3F102038E
:100E8C00DBB288BF0022062B9ABF1349CB5C002330
:100E9C009342054603D0A2B1114802F025F8022D69
:100EAC0012D0082D10D000232278022A01D0082A53
:100EBC000CD101229A4202D053B102F02DFD2570C3
:100ECC0038BD02F03BF8EAE70123EDE70022F1E739
:100EDC0002F018FDF3E700BF34820E00751B0020F2
:100EEC001C0000202DE9F04F85B004AC002624F83E
:100EFC00086D05468946924698466B6800225F68E5
:100F0C00294601232046B847032809D100248DF82F
:100F1C000640ADF80C402746BE4203D805202AE017
:100F2C000136EAE76B680DF10602D3F804B02946E6
:100F3C00012303A8D8476B680DF10702D3F804B05E
:100F4C002946012303A8D8479DF807304B459DF847
:100F5C00063015D1544511D10E9A136088F8003023
:100F6C0088F801906A68023B5468294608F102022D
:100F7C0003A8A047002005B0BDE8F08F0134E4B20F
:100F8C006A68023BD2F804B02946002203A8D8476D
:100F9C009DF806301F44BFE72DE9F34105462E4866
:100FAC0002F0CAFC0446002851D12C4B18702C4B73
:100FBC0018602C4B0146186048222B4805F0A8FB02
:100FCC0048222146294805F0A3FB294BF5B9294AAB
:100FDC001D7283E8240001F06FFF002001F0C2FFB6
:100FEC0018B1852801D0FFF71BFB234D2F7A002267
:100FFC0005F10906541C9742E4B21DD912B202EB5A
:10100C004202921918D04FF0000808E095E807004A
:10101C0083E80700DFE72946D05CFFF7EFFE537843
:10102C005FFA88F18B4205D993780B44DA4208F1C8
:10103C000108F0D12246DDE702A90B2301F8043D9B
:10104C000D48FFF7C1FE044608B102F08BFB2046A9
:10105C0002B0BDE8F08100BF650E0E00751B0020CC
:10106C006C1B0020701B0020DC1A0020241B0020AD
:10107C00D01A0020A9130E0068820E0010B502F0E1
:10108C0013FC08B9082010BD02F016FC0446002819
:10109C00F8D1044801F07DFF18B1FFF7C1FA2046E2
:1010AC0010BD10BD3C820E0002F06CBB02F0C6BF3E
:1010BC004FF08043D3F83824920702D50348FFF74A
:1010CC00B1BED3F83824D107F4D4704750820E0047
:1010DC0007B502A8822300F8043DFFF7A3FE03B076
:1010EC005DF804FBF7B5017A032300F1090203FB59
:1010FC00010104460931154691421FD09AB9237A51
:10110C00571C9342FFB22BD912B202EB4202AA181F
:10111C0026D0002618E0D05CFFF762FE036801368B
:10112C001BB1112027E057780026F3B29F4203D958
:10113C0093783344DA42EED10332DDE70022DEE766
:10114C002146D05CFFF75AFE5178F3B2994205D98B
:10115C0091780B44DA4206F10106F1D13A46CEE71A
:10116C00074B1A684AB902A91C600B2301F8043D0D
:10117C002046FFF729FE03B0F0BD1368F1E700BF6E
:10118C006C1B0020024B1878003018BF01207047F0
:10119C00741B002000F00F03072B10B5044604D875
:1011AC0002F0F8FC204602F0D1FC2046BDE81040CD
:1011BC0002F0B8BF014B1868704700BF6C1B0020D1
:1011CC0070B50A4B1B687BB11E7A0022D5B2B542B2
:1011DC0001D31B68F6E7013202EB42041C44A479EC
:1011EC008442F3D101B10D70184670BD6C1B002008
:1011FC001146FFF7E9BD08B500F00F03082B07D81F
:10120C00FFF7EEFD006818B1BDE80840FFF7DCBD44
:10121C00102008BD38B5054B05461C6804B938BD0F
:10122C0029462046FFF7D0FD2368F6E76C1B00200B
:10123C0038B5074B05461C680CB9062038BD294645
:10124C002046FFF7C1FD0628F8D12368F3E700BF5D
:10125C006C1B002038B504460D4602F0B6FB48B1B5
:10126C00054B1B78022B05D129462046BDE838409A
:10127C0002F0AEBB082038BD751B002038B5044603
:10128C000D4602F0A2FB48B1054B1B78022B05D191
:10129C0029462046BDE8384002F008BC082038BD7D
:1012AC00751B0020F8B543689B6805460C4616462E
:1012BC006BB9D6B92B7AA34219D9093504EB44047E
:1012CC002C446778F3B29F4205D80020F8BD9847AC
:1012DC000628EED0F8BD62789A420AD9A219A378F2
:1012EC00D05CFFF757FF0136ECE70720F8BD7378A9
:1012FC00FFDE00231B78FBE74368DB6870B505460F
:10130C000C4603B198472B7AA34213D9093504EB49
:10131C0044042C4400256678EBB29E4200D870BD84
:10132C0062789A4209D96219A378D05C02F0C8FE9F
:10133C000135F1E700235B78FFDE00231B78FBE728
:10134C0043681B6903B118471846704770B5084BC2
:10135C001C6804B970BD267A0025E9B2B14201D3EC
:10136C002368F5E700222046FFF79CFF0135F4E7E0
:10137C006C1B002070B5084B1C6804B970BD267A34
:10138C000025E9B2B14201D32368F5E72046FFF707
:10139C00B3FF0135F5E700BF6C1B002038B50478AE
:1013AC00082C054600F0D6801ED8032C00F0AB802C
:1013BC0012D8012C00F0978040F287800320FFF7B1
:1013CC0053FD0220FFF704FD2846FFF723FF2846B4
:1013DC00BDE83840FFF71EBD052CF9D0C0F0958054
:1013EC00062C00F0A18038BD802C48D008D80A2CDF
:1013FC0000F0B080C0F0AA800F2C00F0AB8038BD9C
:10140C00822C1ED004D3832C45D0842C4DD038BDD7
:10141C005248FFF7FFFC5148FFF7FCFE0D20FFF789
:10142C00D7FC4F4B1B6853B94E4B187A02F010FA8D
:10143C00FFF7A0FF0120BDE83840FFF715BD0120E4
:10144C00F4E7FFF797FF02F0DDFD0020FFF70CFD3E
:10145C004548FFF7DFFE4448FFF7DCFC0E20FFF7A2
:10146C00B7FC424B1B78023BDBB2062B74D8404ACC
:10147C00D35C002B70D0BDE8384001F05FBD3B4B16
:10148C001B78062B05D0072B01D0052B64D102202D
:10149C00D1E70820CFE7354B1B78032B5CD102F04A
:1014AC00E9FD002858D00420C5E7304B1B78032BEE
:1014BC0005D102F0DFFD10B10420FFF7D5FC02F0DE
:1014CC0005FA002848D00620B5E70020FFF780FC7D
:1014DC00234B1C6804B938BD20462946FFF774FC21
:1014EC0023685C68F6E7FFF745FF0220FFF7BCFCBA
:1014FC002046FFF76DFC2846FFF78CFC2846BDE81C
:10150C003840FFF787BE0520F0E70320FFF760FCAB
:10151C001848FFF77FFC1748FFF77CFE134B1B782E
:10152C00062BB4D1072086E78078FFF759FC2946B3
:10153C0043680068984778B1A87800F00F03013B26
:10154C00062B09D8BDE8384002F0F4BA0920FFF7A1
:10155C003FFCD3E72046FAE738BD00BF4C820E00B3
:10156C00701B0020D01A00204D820E00751B00202D
:10157C0034820E004E820E00C36903B118477047C7
:10158C00036800229A831A629A625A679A67DA672A
:10159C00C3F8802003F130021A677047CA6993427E
:1015AC0010B543600CD88C690460086F1844086748
:1015BC00D01A1C44C86100308C6118BF012010BDCA
:1015CC0001F1280202608B67002010BDF0B5048881
:1015DC00B4F54B7F00F0B38200F2D280B4F5427FB9
:1015EC0000F0308267D840F2F525AC4200F0EF8174
:1015FC0025D840F2F125AC4200F0D2810BD8002C5A
:10160C0000F0AC8140F2ED25AC4200F0BA81002331
:10161C0003800320F0BD40F2F325AC4200F0CB81F7
:10162C00B4F53D7FF3D100240AB1022515550134E0
:10163C00E4B2A34200F2CC8140F2F52395E1B4F57B
:10164C003E7F00F0DB8114D840F2F625AC4200F06E
:10165C00C98140F2F725AC42D9D100240AB100254A
:10166C0015550134E4B2A34200F2C9814FF43E7324
:10167C007BE1B4F5407F00F0D98140F20135AC42FA
:10168C00C5D10024C24D2E780D7AB54282BF01F12E
:10169C00090506EB4606AD19BE4E98BF0025356010
:1016AC000AB12D7815550134E4B2A34200F2CB8176
:1016BC004FF4427359E140F21B35AC4200F0FF810C
:1016CC00B4F5477F38D240F21135AC4200F0D381EB
:1016DC001CD840F20935AC4200F0BF8140F20D3508
:1016EC00AC4294D10024AB4D2D682E780D7DB542C3
:1016FC0004F1010540F0D6810AB102261655ECB270
:10170C00A34200F2B98140F211332EE140F21235BE
:10171C00AC4200F0BB8140F21635AC427FF477AF9F
:10172C0000240AB1002515550134E4B2A34200F29D
:10173C00DE814FF4497318E1B4F5497F00F0D6818E
:10174C0006D8B4F5477F00F0C58140F21D35E4E7BB
:10175C0040F22A35AC4200F0DC8100F2E58140F227
:10176C002935AC427FF453AF00240AB1242515551A
:10177C000134E4B2A34200F2CD8140F22A33F4E00A
:10178C0040F24135AC4200F0368268D840F2373531
:10179C00AC4200F00282B4F54E7F30D240F23135CB
:1017AC00AC4200F0E38114D840F22D35AC4200F08D
:1017BC00D181B4F54C7F7FF42AAF00240AB12425E3
:1017CC0015550134E4B2A34200F2D18140F2313319
:1017DC00CBE040F23235AC4200F0D38140F23335ED
:1017EC00AC427FF414AF00240AB18D7D1555013441
:1017FC00E4B2A34200F2D28140F23733B5E0B4F543
:10180C004F7F00F0E18115D840F23A35AC4200F040
:10181C00CF8140F23B35AC427FF4F9AE00240AB1E3
:10182C00022515550134E4B2A34200F2CE814FF4E7
:10183C004F739AE040F23D35AC4200F0D081B4F5E4
:10184C00507F7FF4E4AE00240AB1242515550134F1
:10185C00E4B2A34200F2D08140F2413385E040F281
:10186C006535AC4200F008823CD840F24A35AC42B7
:10187C0000F0D88115D840F24235AC4200F0C68158
:10188C0040F24635AC427FF4C2AE00240AB18D7DE5
:10189C0015550134E4B2A34200F2C58140F24A333B
:1018AC0063E040F25E35AC4200F0DA8140F25F3525
:1018BC00AC427FF4ACAE0024364D374E2D683778F1
:1018CC006E78BE4283BFAE78F619AD1900250AB109
:1018DC002D7815550134E4B2A34200F2CE8140F2CA
:1018EC00653342E0B4F55F7F00F0F28114D840F22A
:1018FC006D35AC4204D040F27535AC427FF487AE06
:10190C0000240AB1402515550134E4B2A34200F27B
:10191C00E0814FF45F7328E040F28235AC4200F076
:10192C00F08140F28735AC4200F0EB8140F27D351E
:10193C00AC427FF46CAE0024164D0E7D2D682D78D4
:10194C00AE4240F0D1810AB1102515550134E4B2F4
:10195C00A34200F2D78140F2823306E042B1082460
:10196C00012B147012D840F2ED2303800120F0BD3E
:10197C00012BF8D901240134A34212D840F2F123EF
:10198C00F3E75AB100240B251555F4E70124FAE7C7
:10199C007D1B0020781B00207F1B00201446EAE7EB
:1019AC0000240AB10D7D15550134E4B2A34203D8CD
:1019BC0040F2F323D9E700240AB10225155501346E
:1019CC00E4B2A3423FF630AE4FF43D73CDE70024B2
:1019DC000AB1022515550134E4B2A34203D840F2F2
:1019EC00F623C2E700240AB1012515550134E4B2EF
:1019FC00A3423FF633AE40F2F723B6E70024A84DDE
:101A0C000E7A2E70A74D00262E70A64D2E78A44D62
:101A1C002D78AE42BFF4FBAD0AB109251555013442
:101A2C00E4B2A34203D84FF440739EE700240AB1FA
:101A3C00042515550134E4B2A3423FF623AE40F21F
:101A4C00013392E700240AB1002515550134E4B2A4
:101A5C00A34203D840F2093387E700241AB1924D10
:101A6C002D686D7815550134E4B2A3423FF63BAEB8
:101A7C0040F20D3379E700240AB1022515550134E3
:101A8C00E4B2A34203D840F212336EE700240AB149
:101A9C00012515550134E4B2A3423FF642AE40F2A3
:101AAC00163362E78F7DB7427FF43BAE0AB10A264C
:101ABC001655ECB2A34203D840F21B3355E7002471
:101ACC000AB1002515550134E4B2A34203D84FF4F2
:101ADC0047734AE700240AB1002515550134E4B2D6
:101AEC00A3423FF61EAE40F21D333EE700246E4D7E
:101AFC000E7D2D682D78AE4240F095800AB10525FB
:101B0C0015550134E4B2A3423FF62FAE40F229330F
:101B1C002BE700240AB1002515550134E4B2A34289
:101B2C0003D840F22B3320E700240AB110251555B9
:101B3C000134E4B2A34203D84FF44B7315E70024ED
:101B4C000AB1012515550134E4B2A34203D840F281
:101B5C002D330AE700240AB1052515550134E4B2EA
:101B6C00A3423FF62BAE4FF44C73FEE600240AB1B1
:101B7C00012515550134E4B2A34203D840F23233A7
:101B8C00F3E600240AB1032515550134E4B2A3424F
:101B9C003FF62AAE40F23333E7E600240AB10425BF
:101BAC0015550134E4B2A34203D840F23A33DCE6D3
:101BBC0000240AB1242515550134E4B2A3423FF6A2
:101BCC002EAE40F23B33D0E600240AB10225155567
:101BDC000134E4B2A34203D840F23D33C5E60024FD
:101BEC000AB1052515550134E4B2A3423FF62CAEDB
:101BFC004FF45073B9E600240AB10625155501348B
:101C0C00E4B2A34203D840F24233AEE600240AB158
:101C1C000D7D15550134E4B2A3423FF637AE40F2C8
:101C2C004633A2E60024204D2D686E781F4D2E7091
:101C3C001F4D00262E701E4D2E781C4D2D78AE4259
:101C4C0004D3184E357801353570DEE60AB1072518
:101C5C0015550134E4B2A34203D840F25E3384E656
:101C6C0000240AB1052515550134E4B2A3423FF610
:101C7C0023AE40F25F3378E600240B4D2D682E78AE
:101C8C000D7DB54204F1010514D10AB10326165598
:101C9C00ECB2A3423FF635AE40F26D3365E600BFC1
:101CAC007E1B00207D1B0020781B00207C1B00204D
:101CBC007F1B00208F7DB7427FF423AE0AB1022632
:101CCC001655ECB2A3423FF61CAE40F275334CE60F
:101CDC0000240AB1002515550134E4B2A3423FF6A5
:101CEC002BAE40F27D3340E68E7DAE420AD10AB176
:101CFC00002515550134E4B2A34203D840F28733D2
:101D0C0033E60024024E35780135357093E700BF79
:101D1C007F1B002010B5044658B90868037A202BA5
:101D2C0009D100F10A010722143004F0C7FC204647
:101D3C0010BD032010BD062010BD037A012B08D95D
:101D4C00427B012A00F10C0306D9827B134458789C
:101D5C00704700235B78FFDE00231B78FBE7000055
:101D6C002DE9F0430B7889B006460D460E2B1AD898
:101D7C00DFE813F05C003C015C005C0019000F0014
:101D8C00A300190019003C0119005C005C005C0008
:101D9C005C004A78D3094FEA521330D013F0030396
:101DAC0003D0012B21D006241BE002F01F02012AD4
:101DBC00F9D18C78062CF6D105A8039300F0AEFC73
:101DCC0003ABEA7829790093074603463046FFF7C0
:101DDC0089F8052805D0039A3946681C00F034FAB6
:101DEC000446204609B0BDE8F0838B78212BDAD16C
:101DFC00B1F80720072AD6D101681431EDE7012B81
:101E0C00D1D18A780768202A12D0222ACBD1B1F8F6
:101E1C000730002BC7D13A7FB1F80330BB8302F0F7
:101E2C00010203F001039A429CB220D10024D8E7AE
:101E3C00B1F80730072BB6D100243A727B722046DA
:101E4C000A3706930794059700F096FC204605A9DF
:101E5C00FFF700FA044630B9694B039303A90496C3
:101E6C0000F0E0F90446002000F088FCB9E7002CF3
:101E7C0014BF02210321FFF77FFB002CD6D1337A4C
:101E8C00012B40F2B680737B06F10C02002B00F0A4
:101E9C00B280B37BD05C01F093FF3046FFF74DFF6F
:101EAC0001F08EFF07F130033C62BC627C67BC67BB
:101EBC00FC67C7F880403B6793E7037A002B00F080
:101ECC009C80837A00F10901002B00F09480C27A87
:101EDC00AB788A5C9A42A9D013F0800FEC780AD0C8
:101EEC0024B1032C0CBF002403247AE701213046D3
:101EFC00FFF742FB75E7012C98D003D3032C95D048
:101F0C0003246EE70568FFF718FF3E4B05936F6AD5
:101F1C0005F1080380460693B7B9AC6AAB6FEB6763
:101F2C00AF676F676CB105F1280103C905F1200398
:101F3C0083E80300AF6205A94046FFF79FF904460A
:101F4C0000E02C620021D2E7D5F88090286A4F453A
:101F5C0028BF4F4605F130043A46214604F0AEFB4B
:101F6C00AB6F3B44EB67A9EB07036B67AB6A0022D3
:101F7C003C44AA672C67002B36D005F1280999E858
:101F8C00030005F1200787E803001446AA626B6F73
:101F9C001BB92C6A002CCED1D4E76A6A9A4217D8A6
:101FAC00296F286A04F08AFB6B6A6A6FEB67D21A96
:101FBC006A672A6F1A442A6700213046FFF7DCFA59
:101FCC00AB6A8BB199E8030087E80300AC62DEE7EB
:101FDC001A46296F286A04F071FB6A6F6B6AAA674C
:101FEC009B1A6B622B6A13442B62D2E7FFF7C8FA79
:101FFC001CE76378FFDE1B78FCE75B78FAE700BF31
:10200C00211D0E00A9150E001FB503689B8BDB0765
:10201C0011D5037A012B10D9437B00F10C047BB151
:10202C00837B0191E05C0292002301A90393FFF7EB
:10203C0011F904B010BD0820FBE700235B78FFDE2C
:10204C001B78FCE72DE9F3410468A38BDB07804682
:10205C000F46164646D5002000F08EFB256A002D53
:10206C0038D1616FB14212D33246216F384604F039
:10207C0025FB636FE6679B1B6367236F3344236702
:10208C00002000F07BFB284602B0BDE8F0816662C0
:10209C0027624046FFF751FE134B009304F10803EF
:1020AC000646019369B10A463846216F04F006FBD7
:1020BC00636F626AA367D21A6262226A65671A4406
:1020CC00226269463046FFF7D9F8002814BF05464E
:1020DC009225D5E7A36A1BB9A762E6629225CFE7E2
:1020EC001125CDE70825CEE7A9150E000020704775
:1020FC002DE9F04F4B6887B081460C4602925BB9D4
:10210C000B681B681B683BB98D682DB90560456071
:10211C00284607B0BDE8F08F01F008FDE768029B88
:10212C009F4228BF1F464FF0000804F1100383465E
:10213C000197464601250393019B63B3A368DDF821
:10214C0004A061689A4528BF9A4649B352460BEBE6
:10215C00060004F0B3FA00236360A268E3680199F7
:10216C00A2EB0A02A3EB0A03A1EB0A01A260E36053
:10217C000191564412BBB8F1000F03D022681268CB
:10218C0012682260E3B12368E3B963601EB1029B5D
:10219C00B34288BF0025C9F800B0C9F80460B7E79E
:1021AC00002BDAD0216803984B680BEB0602D3F8AE
:1021BC0004805346C0474FF00108CEE7002BBBD13B
:1021CC000025B9E70DF1180A4FF000032AF8043D79
:1021DC0021684B685B6800221F4650460123B847B4
:1021EC00032803D14FF000032382A5E7A368013332
:1021FC00A360EDE7084B1A7882420CD0052818BF73
:10220C00064A187018BF137805481CBF23F0020348
:10221C001370FFF7C3B87047881B0020A01B002069
:10222C0078820E0038B505460C4601F02FFDA84209
:10223C0001BF94E80300034B83E80300002018BFA0
:10224C00102038BDA41B00207FB5C38893421D46C7
:10225C0028BF154693420E46144620D9802001F023
:10226C00AFFBB4FBF0F303FB1040B0FA80F0400975
:10227C00039000200196029500F07EFA01A98020BF
:10228C00FEF7E8FF044620B906498020FFF7CAFF95
:10229C000446002000F072FA204604B070BD002005
:1022AC00E6E700BFAC820E002DE9FF470B78013B3F
:1022BC000E460D2B12D8DFE813F00E001F00130092
:1022CC0011002C00F30111001100110011001F006E
:1022DC00E001E401F1010320FFF78CFF062414E078
:1022EC000024B44B53E8002F02EA040143E8001029
:1022FC0090F0000FF6D10AB9002406E0AE4B012293
:10230C001A60BFF36F8FBFF34F8F204604B0BDE848
:10231C00F08705230DEB03008DF8043001F04AFC27
:10232C009DF8053003F01F02032A00F26D81DFE8EF
:10233C0012F00400FB0057016D00C3F34114002C94
:10234C0064D1DB099DF8061000F09480062917D0A3
:10235C00082900F08280002958D1984C022220468E
:10236C0004F0D6F9237843F001022270944A1278D3
:10237C00900744BF43F00303237002228F4909E006
:10238C009DF80830022B0BD0032B5BD0012B3DD1D9
:10239C008C4912220DF10500FFF756FF044632E07E
:1023AC00BDF80B60092E28BF0926FEF703FF09278D
:1023BC000546A14675BB814D83493246284604F03B
:1023CC007DF92C716F80FEF7DDFE18B1EB7943F0CF
:1023DC002003EB71FEF7EEFE7C4B83E861000020DE
:1023EC00BDF80B20DA6000F0C7F979498020FEF7C0
:1023FC0045FF044620B977498020FFF713FF0446B8
:10240C00002000F0BBF9062C40F0068101A8FEF775
:10241C000FFFCBE0ADF800904FF000086B68002286
:10242C00D3F804A0294601236846D047032806D1D7
:10243C002B7A1C442B684744E4B21D68BAE708F1B8
:10244C000108EBE7BDF809109DF8070000F06EF9E4
:10245C0001460028DAD002789CE75F4A1278052AF8
:10246C0003D1564A1370012288E7042ACED1534B6C
:10247C001C70F8E701390829C8D801A353F821F0DA
:10248C00F9240E0019240E00C9240E0019240E0084
:10249C00B1240E0019240E0019240E0019240E006C
:1024AC0013250E004C4B1B78033B022B00F2E380F0
:1024BC00FEF760FF0420FFF79DFE0FE0BDF807302C
:1024CC00012BA3D1FEF75EFE18B90F2401F0DBFB44
:1024DC001BE73B4A137843F0020313703F4B1C6815
:1024EC00002C00F0058101F08BFB05E7BDF80730EF
:1024FC00012B8BD1FEF746FE0028E6D0304A13782C
:10250C0023F00203E9E7344B1B78043B012B00F268
:10251C00B2809DF80730002BCAD0012B40F0ED8023
:10252C00FEF714FF0520C6E769469DF80900FEF783
:10253C0047FE064600283BD001AA9DF80010FEF786
:10254C0057FE0628044667D19DF8052012F0600F4F
:10255C00BCD1214B9DF8001018789DF80630D50998
:10256C0016D07BB10A2BB1D1052840F084803046BF
:10257C00FEF7E6FE11492A4608700DF10500FFF73B
:10258C0063FE13E0052876D10C490B800222F4E798
:10259C000B2B9BD105286ED1BDF80730FF2B00F219
:1025AC00AC809DF807203046FEF77CFE044633E0F5
:1025BC0010248BE7AC1B00205C700240B01B002089
:1025CC00A01B002098820E0079820E008C1B00202C
:1025DC00B4820E00AC820E00881B0020A41B0020CD
:1025EC009DF80900010711D19DF8053013F0600F1B
:1025FC000AD19DF80620424B9DF809401B78012A10
:10260C0027D00DD3032A15D006245FE701A9FEF7C6
:10261C00F2FD06280446E7D0002C3FF45FAF55E7E7
:10262C00052B01D0220726D1204601F099FA354915
:10263C000880ABE704F00F02072AE5D8BDF80710B5
:10264C000029E1D1052B00D0AAB9204601F072FA7D
:10265C0044E704F00F02072AD6D8BDF8071000296A
:10266C00D2D1052B00D032B9204601F093FA204686
:10267C0001F06CFA32E7082428E70020FFF7BAFDD6
:10268C003AE64FF08043D3F8384414F0010401D0FB
:10269C000220F3E70120FFF7ADFD36E60120EDE760
:1026AC00194D2B683BB30022C8782A60696898479B
:1026BC00044600287FF40AAF2B6813B101F0A0FA8E
:1026CC0023E6B378002B7FF417AE104B1B78082B46
:1026DC000ED10F4B1B681B070AD10E4B1B6813F056
:1026EC00F00F05D10C4B1B6813F0F00F3FF404AE48
:1026FC0001F0C6FA09E60E24E8E60724E6E600BF78
:10270C00881B0020B01B0020A41B0020E00F00F051
:10271C00E40F00F0E80F00F0EC0F00F008B14023DC
:10272C0003600148704700BFB01B002040B1042873
:10273C0008D8054B185C30B1044B53F82000704797
:10274C0003487047002070472C830E0018830E003E
:10275C00BC820E0072B6024A1368013313607047D4
:10276C00F01B0020034A1368013B136003B962B6E7
:10277C00704700BFF01B0020FFF7ECBFFFF7F2BF64
:10278C0030B53AB11368DB430B4C0144814204D1A0
:10279C00D84330BD4FF0FF33F6E710F8012B534010
:1027AC00082213F0010F14BF25460025013A85EAD3
:1027BC005303F6D1EAE700BF2083B8ED10B590B112
:1027CC004268836801689B1ADBB20A60013BDBB28A
:1027DC00FF2B026802D10020107110BD11684C1C37
:1027EC0014600B70F2E70E2010BD38B504460020C3
:1027FC00FFF7C2FF226863681168994213D9481E1B
:10280C00106011F8015CE368218A01FB0535A368AF
:10281C0011791B1ADBB2994200D213710020FFF719
:10282C00ADFF284638BD0025F8E738B50546002031
:10283C000C46FFF7A1FF2A681368591C1160E96860
:10284C00641A298AB4FBF1F41C700020BDE83840EE
:10285C00FFF794BF0B4620B11BB1036011461B68F8
:10286C0018470E2070472DE9F043DDF81C80964682
:10287C00F0B1EAB1D0F800C0BCF1000F1BD0EBB145
:10288C004768D7F80490B3FBF9F709FB1737AFB9D2
:10289C0042EA010E1EF0030F07D1C768B94204D3F8
:1028AC004C1E05691C44AC420BD91020BDE8F083CA
:1028BC000E20BDE8F0830820BDE8F0830920BDE8B8
:1028CC00F083CDF81C80DCF80C40A446BDE8F04346
:1028DC006047F0B5B8B1D0F800E0BEF1000F14D0ED
:1028EC00AAB14768D7F800C00CF1FF370F4208D1E6
:1028FC00C768B94205D34C1E05690CFB0244AC42B7
:10290C0007D91020F0BD0E20F0BD0820F0BD092025
:10291C00F0BDDEF81040A446BDE8F0406047000072
:10292C0070B508B10368B3B90D4D0E4B14225B1B87
:10293C000024B3FBF2F302FB03F6A64201D1002004
:10294C0070BD2B5928190BB91434F6E7DB6998477D
:10295C000028F9D070BDDB69BDE87040184700BF96
:10296C00080000201C000020014B43600020704731
:10297C0034830E000846704700207047024B1868DD
:10298C00003018BF01207047F41B002008B510461A
:10299C001A4603F093FE002008BD000010B500227B
:1029AC00054B53E8001F01EA020043E8000494F0D1
:1029BC00000FF6D110BD00BFF41B002008B5FFF7C7
:1029CC00EDFF002008BD00002DE9F04115461F4623
:1029DC0086B080460E460122154B53E8004F44EA60
:1029EC00020143E8001090F0000FF6D1ECB9A542BB
:1029FC0013D1FFF7D3FFD8F8083000249BB1022283
:102A0C0068468DF80020019402960394049505976E
:102A1C009847204606B0BDE8F08106EB043001F083
:102A2C00D5FB0134E3E71846F4E71120F2E700BFC9
:102A3C00F41B00202DE9F043174687B081468846E9
:102A4C001E460124134A52E8005F45EA040342E89B
:102A5C00003191F0000FF6D1D5B9B2083946404695
:102A6C0001F0CCFBFFF79AFFD9F8082072B10E9B4E
:102A7C008DF8004068460195CDF8088003970496C0
:102A8C0005939047284607B0BDE8F0831046FAE757
:102A9C001120F8E7F41B00202DE9F04F0022C9B0FB
:102AAC004B780C781B0443EA0463CC7823438C7872
:102ABC0043EA042308AC0431A3500432402AEFD17A
:102ACC00234638AD996B1E464FEAF14282EA7142B9
:102ADC0082EA9122716A366853F8044F31440A44F1
:102AEC004FEAB44181EAF41181EAD4010A449D42CF
:102AFC00DA63E7D1036D0093436D0193836D029309
:102B0C00C36D0393036E0493436E0593836E069318
:102B1C0004A991E80250C36EDDF80C80029DDFF829
:102B2C00AC9007939DE850009B4600274FEAF12399
:102B3C0083EAB11383EA716A59F827301A4608AB55
:102B4C0053F827301A44134653442EEA010201EA83
:102B5C000C0A82EA0A021A444FEA743A85EA06031E
:102B6C005A448AEAB40A06EA050B234083EA0B03AB
:102B7C008AEAB45A01379A44402F02EB0803F34611
:102B8C005244A8461AD1009F1744019A0765224463
:102B9C004265029A32448265039A2A44C265049AB9
:102BAC001A44059B02660B444366069B634483668A
:102BBC00079B7344C36649B0BDE8F08FE6463546C3
:102BCC008C46264619461446B0E700BF60830E00BB
:102BDC0030B5E0B10F4A02650F4A42650F4A826573
:102BEC000F4AC2650F4A02660F4A42660F4A826656
:102BFC0002F17452A2F52302002300240025A2F650
:102C0C0092420364C0E91245C266184630BD0E20DC
:102C1C0030BD00BF67E6096A85AE67BB72F36E3CD8
:102C2C003AF54FA57F520E518C68059BABD9831F8B
:102C3C00F8B50446F0B10AB90020F8BDD1B10D4683
:102C4C008E180027B542F7D0236C15F8012BE254EF
:102C5C000133402B2364F5D121462046FFF71CFF9E
:102C6C00D4E9120110F5007041F10001C4E9120120
:102C7C002764E7E70E20F8BD70B50D4616460446EE
:102C8C00002800F08680002900F08380026C8021EF
:102C9C00372A00EB020381544BD800F13802002193
:102CAC0001339A4243D1D4E91223206C0821E1FB71
:102CBC00002322FA01F1C4E9122384F83F2084F89E
:102CCC003E10110C120E84F83C201A0A84F83B308A
:102CDC0084F83A201A0C1B0E84F83D1084F8392025
:102CEC00214684F838302046FFF7D6FE691E8EB395
:102CFC000023E26EDA4001F8012FA26EDA400A716D
:102D0C00626EDA400A72226EDA400A73E26DDA40C1
:102D1C000A74A26DDA400A75626DDA400A76226D89
:102D2C00DA400833202B0A77E3D1002070BD1970EC
:102D3C00B6E7002101331A1B3F2A09D92146204648
:102D4C00FFF7AAFE38220021204603F0E1FCAAE797
:102D5C001970EFE71823226DDA4001F8012F626D2C
:102D6C00DA400A71A26DDA400A72E26DDA400A7337
:102D7C00226EDA400A74626EDA400A75A26EDA408C
:102D8C000A76E26EDA40083B13F1080F0A77E2D1BB
:102D9C00CBE70E2070BDF0B580B379B373B30024CC
:102DAC001C600A44DB26DC274FF0DD0E8A421C68CF
:102DBC0005D1621C1A60C02303550020F0BD11F828
:102DCC00015BC02D07D0DB2D0DD0651C1D6011F8EB
:102DDC00015C0555EAE7651C1D6006551C68651C01
:102DEC001D600755E2E704F1010CC3F800C005555E
:102DFC001C68651C1D6000F804E0D7E70E20F0BDD0
:102E0C0010B588B38368C26893422FD00278012A28
:102E1C0010D003D3022A21D0112010BDC02927D0F5
:102E2C00DB2902D101230370F6E742685C1C846045
:102E3C00D154F1E7DC2905D0DD290AD00223037037
:102E4C000B2010BD591C42688160C021D154002355
:102E5C00E9E7591C81604268DB21F7E7C029DBD127
:102E6C00002303708360D7E70E2010BD042010BD33
:102E7C00002010BD38B5084C04F1080305460028A5
:102E8C0018BF1C4623682BB11A6822605B68284661
:102E9C009847F7E738BD00BF001C002020B9054B50
:102EAC0001225A70FFF7E6BF012802D1014A907047
:102EBC00F8E77047F81B002038B5094C23786BB93C
:102ECC0008486360A3602361E36001F0C1F9054623
:102EDC0001F0CAF901232370284638BD8525FBE78C
:102EEC00F81B0020A92E0E0038B5134C637805464C
:102EFC0003F0FF0073B115B16B68002098470020F8
:102F0C00FFF73AFC6368013363600020BDE838408A
:102F1C00FFF734BCFFF730FC25B1A26813463BB970
:102F2C002A60A5606368002BECD101F0B5F9E9E7E4
:102F3C009D42F7D01B68F2E7F81B002038B5084C0F
:102F4C000020FFF719FC6368013B6360656815B9E5
:102F5C0001F0AEF965700020BDE83840FFF70EBCFB
:102F6C00F81B002008B5054B002808BF184601F0D7
:102F7C00E3F910B9024B01221A7008BD60840E00EF
:102F8C000C1C002008B501F00CFABDE8084001F05B
:102F9C000FBA10B50446FFF7F5FF204601F0F0F923
:102FAC0001F0F8F9002010BD00F1804000F51C3054
:102FBC0001230360BFF36F8FBFF34F8F7047000087
:102FCC00064A10F0800F00F00F0314BFD2F8100562
:102FDC00D2F81405D84000F0010070470070024090
:102FEC00064B1B78082B07D1054B1B6813F00F0FF2
:102FFC000CBF01200020704700207047E00F00F04C
:10300C00E40F00F008B5FFF7EBFF68B1074B1B6846
:10301C0013F0F00F07D1064B1B6813F0F00F0CBF29
:10302C000120002008BD002008BD00BFE80F00F003
:10303C00EC0F00F008B5FFF7D3FF70B1074B1B681E
:10304C0003F0F003102B07D1054B1B6813F0F00FA6
:10305C000CBF0120002008BD002008BDE80F00F0C7
:10306C00EC0F00F030B54C680D689C4208D2002182
:10307C004160056093420BD1201C18BF012030BD6C
:10308C00436005600868E41A18444C600860F1E776
:10309C00002030BD4B689A4228BF1A4610B50C6808
:1030AC0004604260981A0B684860134400300B604F
:1030BC0018BF012010BD4B689A4228BF1A4610B5A4
:1030CC005AB10C68046042609B1A4B600B68101C70
:1030DC0013440B6018BF012010BD1446F2E700002A
:1030EC00054B10F0800FA3F1900208BF134600F0BF
:1030FC000F0003EB00107047801D002010F0800FB4
:10310C0014BF0023102300F00F0018447047000078
:10311C0007B5084A00231370074A019302A81370DD
:10312C00012300F8043D054B1B68984703B05DF87C
:10313C0004FB00BF0D1C0020141E0020101E0020DC
:10314C0007B500238DF80430084B094AD3F8203515
:10315C00ADF80630136843F001231360054B01A84A
:10316C001B68984703B05DF804FB00BF0070024079
:10317C00EC1C0020101E002070470000F8B54D68B4
:10318C000B4F954228BF154606460C462A46096841
:10319C00384603F093FA3760756060682368401B0B
:1031AC001D4460602560003018BF0120F8BD00BFD1
:1031BC001C1E0020F8B54C68944228BF14460646E5
:1031CC000D468CB1094F09682246384603F076FA51
:1031DC0037606B6874601B1B6B602B682344201C6E
:1031EC002B6018BF0120F8BD0460F2E71C1E002004
:1031FC000A4AD2F86834C2F86834BFF36F8FBFF351
:10320C004F8F012103B9704793FAA3F2B2FA82F2FD
:10321C0001FA02F223EA0203F4E700BF0070024055
:10322C0013B5124C0122236802FA01F10B432360FF
:10323C000F4B10F0800F1B680ED019400AD10623DB
:10324C008DF804308DF806008DF80710094B01A895
:10325C001B68984702B010BD1942FBD106238DF8AC
:10326C0004308DF806008DF80720EFE7EC1C0020E9
:10327C007C1C0020101E002008B5054B1A78104647
:10328C00FFF73CFFBDE8084001461046FFF7C8BFFA
:10329C00141E002000B5064B53E8002F02EA000E66
:1032AC0043E800E191F0000FF6D170465DF804FBA5
:1032BC007C1C002008B50C4B00221A700146FFF74D
:1032CC000FFF837B032B0AD10846FFF717FF01235F
:1032DC0003FA00F0C043BDE80840FFF7DBBF03680A
:1032EC00002BF1D008BD00BF0E1C00208120FFF781
:1032FC00E1BF8220FFF7DEBF8320FFF7DBBF842016
:10330C00FFF7D8BF8520FFF7D5BF8620FFF7D2BFC8
:10331C008720FFF7CFBF0000114B002213B51A70A6
:10332C00104B93F81E21032A05D16FF48070FFF720
:10333C00B1FF02B010BDD3F81041002CF9D16FF4DD
:10334C008070FFF7A7FF06238DF8043088238DF8D3
:10335C000630054B8DF807401B6801A89847E8E735
:10336C000E1C0020F01C0020101E0020084B002218
:10337C001A70084B93F89E20032A03D16FF00100BA
:10338C00FFF788BFD3F89030002BF7D0704700BF01
:10339C000E1C0020F01C00200E4B002213B51A70DE
:1033AC000D4B93F88E20032A12D0D3F880407CB9B1
:1033BC006FF08070FFF76EFF06238DF80430082342
:1033CC008DF80630054B8DF807401B6801A898470F
:1033DC0002B010BD0E1C0020F01C0020101E00209E
:1033EC002DE9F04F714B87B01A780193002A40F009
:1033FC008B80DFF8D8A1D3466D4BDAF800001D683E
:10340C00054000F0818095FAA5F5B5FA85F5ECB28A
:10341C000F2DC6BF103CE4B244F080042046FFF7E9
:10342C005FFE4FFA84F904F00F03B9F1000F064662
:10343C00828900936BDA0368416804A8984748B9FD
:10344C00802C306006D15B4AD2F8003243F0040382
:10345C00C2F80032019B059901201870A840B3688E
:10346C00DBF800500B4425EA000004F00F04B9F11E
:10347C00000FCBF80000B36004984E4BE2B279DA3F
:10348C00072A9BBF142505FB0233C3F8A006C3F81B
:10349C0000068CBFC3F8A416C3F80416FFF7B2FDE0
:1034AC00002878D0444A9DF80030444C444E454F97
:1034BC00B9F1000FB2BF04252825144605EB83058E
:1034CC0004EB43044FF00008C6F80080BFF36F8F85
:1034DC00BFF34F8F2846FFF767FD022000F0DCFF9B
:1034EC003368002BF0D01E2000F0D6FF3B689B0603
:1034FC004FD5012000F0D0FF238803F1804303F562
:10350C001C331B68002BDFD007B0BDE8F08F9DF893
:10351C0000302849072B23D9D1F8C08418F4803FF8
:10352C0018BF4FF0000843467168376804A8B847C5
:10353C00049BD3B1059B434517D201200227A84019
:10354C00B773C043FFF7A6FE06238DF80C301E4B55
:10355C008DF80E408DF80F701B6803A898474BE749
:10356C0003F5947351F82380DDE700287FF472AFE4
:10357C0030606FE7072A9BBF142505FB0233C3F8A5
:10358C00A007C3F800078CBFC3F8A417C3F804172F
:10359C0084E70220A8E7B9F1000FACBF2820042073
:1035AC0000EB8400FFF700FDAEE700BF0E1C00200F
:1035BC007C1C00200070024086840E006A840E0081
:1035CC000471024074740240101E0020EC1C002098
:1035DC0038B5194BD3F86C44C3F86C44BFF36F8FF8
:1035EC00BFF34F8FBFF36F8FBFF34F8FFFF70AFD02
:1035FC0038B1124A136823F0011103F001130C4384
:10360C00136001251CB9BDE83840FFF7E9BE94FAF8
:10361C00A4F3B3FA83F30F2BD9B2C8BFA1F11000F6
:10362C0005FA03F3CCBFC0B241F0800024EA0304D6
:10363C00FFF7F6FDE6E700BF00700240181E002001
:10364C00174B37B500221A700446FFF749FD837BF0
:10365C00032B0CD12046FFF751FD012303FA00F098
:10366C00C043FFF717FEFFF7BBFE03B030BD056884
:10367C00002DF8D12046FFF741FD012303FA00F09D
:10368C00C043FFF707FE06238DF80430054B8DF879
:10369C0006408DF807501B6801A89847E3E700BF68
:1036AC000E1C0020101E00200720FFF7C9BF0620AB
:1036BC00FFF7C6BF0520FFF7C3BF0420FFF7C0BF4D
:1036CC000320FFF7BDBF0220FFF7BABF0120FFF7B1
:1036DC00B7BF0000204B13B5D3F80044C3F8004427
:1036EC00BFF36F8FBFF34F8FBFF36F8FBFF34F8F4E
:1036FC00E1050BD5194B01221A7002A80023019386
:10370C00022300F8043D164B1B689847A2050AD506
:10371C00124A002302A801931370032300F8043DFE
:10372C000F4B1B689847630513D50C4B1A7882B165
:10373C0000221A70084B0121C3F808155820FFF716
:10374C0033FC02A80423019200F8043D044B1B68CF
:10375C00984702B010BD00BF007002400D1C002045
:10376C00101E0020054B1A78012A01BF044A0020C4
:10377C001060187018BF0820704700BF0F1C002085
:10378C00101E0020294A4FF4006310B5C2F8003413
:10379C00BFF36F8FBFF34F8FFFF74CFC38B1244B47
:1037AC00244849F27531032419600460196001231F
:1037BC00C2F80035BFF36F8FBFF34F8F1B4BD3F89D
:1037CC0000241205FBD54FF40062C3F80024BFF3AC
:1037DC006F8FBFF34F8FFFF72DFC38B1144B15498A
:1037EC0049F2753200201A6008601A60124B40F2E0
:1037FC00E3721A60043340221A60BFF36F8FBFF379
:10380C004F8FA3F604038022C3F81C250B4B40F208
:10381C00FF121A600A4A002313600A4A13700A4AFC
:10382C0013700A4B02221A7010BD00BF00700240C8
:10383C0000EC064014ED064000780240EC1C002021
:10384C007C1C00200E1C0020141E00200F1C0020CD
:10385C0008B5104B00221A70D0B9FFF7D3FB0E4AF3
:10386C000E4B002814BF184610460D4B0D4AE02194
:10387C00C2F8040383F827138021C3F8841159601C
:10388C000123C2F80435BFF36F8FBFF34F8F08BD10
:10389C000248EAE70D1C00200714C0030714E003DC
:1038AC0000E100E000700240024B1878003018BFB5
:1038BC00012070470F1C0020034B1878012894BF7F
:1038CC0000200120704700BF0F1C002010B5002005
:1038DC00FEF752FF094B1B7803F0FF0433B1084A83
:1038EC00D2F82C353BB10023C2F82C350020FEF762
:1038FC0045FF204610BD1C46F8E700BF0D1C0020FC
:10390C0000700240024B034AC3F80823704700BF03
:10391C000070024004148001024B034AC3F80423D4
:10392C00704700BF007002400414800108B5FFF717
:10393C00D7FB818108BD000070B50546FFF762FB1F
:10394C0008B100F093FD002D31D01B4B1C7884BBCB
:10395C001A4A156001221A70264664F07F05082C5D
:10396C00EDB20CBF4FF4007140212846FFF7DEFF8B
:10397C002846FFF7B5FB0134092C86730660866078
:10398C00EBD100242546082CE6B214BF40214FF49D
:10399C0000713046FFF7CAFF3046FFF7A1FB013438
:1039AC00092C857305608560EDD1002070BD072062
:1039BC0070BD082070BD00BF0F1C0020101E002021
:1039CC0008B5FFF78DFB808908BDFFF7F9BA000039
:1039DC002DE9F8430F468046FFF790FB0446002084
:1039EC00FEF7CAFE18F00F0103D1254B1B78434597
:1039FC0042D1244B244A1B681568DB4301269BB239
:103A0C00A6402B433342914638D14046FFF768FB22
:103A1C0018F0800F03464FF00C0428D01B4A04FB0F
:103A2C0001243A6802F06042B2F1005FBA6819D121
:103A3C00D10754BF164A174A1A6097E8070084E862
:103A4C0007005C6000249C609C73134B3543802200
:103A5C00C9F80050C3F804210020FEF78FFE204661
:103A6C00BDE8F883D20754BF0C4A0D4AE4E70D4A6F
:103A7C0004FB01240C4ADFE71024EDE71124EBE7EB
:103A8C00141E0020EC1C00207C1C0020801C00203C
:103A9C00A1300E00C3300E0000E100E089310E00B1
:103AAC00C1310E00101C002071300E002DE9F042C7
:103ABC0007468946FFF722FB04460020FEF75CFE12
:103ACC003B0703D1154B1B78BB4222D1144B154934
:103ADC001B680E68DB4301259BB2A540334313EAF8
:103AEC00050418D13846FFF7FBFAD9F8003003600B
:103AFC00D9F8043043600C4B8460354380228473C6
:103B0C000D60C3F804210020FEF738FE2046BDE806
:103B1C00F0821024F7E71124F5E700BF141E0020F3
:103B2C00EC1C00207C1C002000E100E000487047E9
:103B3C001C1E0020044B40F48070C3F81805BFF322
:103B4C006F8FBFF34F8F704700700240034BC3F869
:103B5C001805BFF36F8FBFF34F8F70470070024093
:103B6C0000F00F03072B11D810F0800F084A0BBF81
:103B7C0003F5887303F5847302EB830352F8230077
:103B8C0008BF5868431E5842584170470020704780
:103B9C0000700240064BC3F80C05BFF34F8F40F486
:103BAC008070C3F80C05BFF36F8FBFF34F8F704756
:103BBC000070024010B508220021044602F0A8FD56
:103BCC000E4BD3F880242270D3F884246270D3F87F
:103BDC008824D3F88C1442EA01226280D3F8902412
:103BEC00D3F8941442EA0122A280D3F89824D3F893
:103BFC009C3442EA0323E38010BD00BF00700240F6
:103C0C0008B5FFF7FFF958B1EFF3108272B64C20EC
:103C1C00FFF7CAF94C20FFF7C7F982F3108808BDEB
:103C2C004C20BDE80840FFF7BFB90000114B002243
:103C3C0013B51A70104B9A7B032A06D16FF480309F
:103C4C00FFF728FBFFF7DCFF11E01C68002CF9D113
:103C5C006FF48030FFF71EFB06238DF80430074B02
:103C6C008DF806408DF807401B6801A8984702B0F4
:103C7C0010BD00BF0E1C0020F01C0020101E0020E8
:103C8C005020FFF791B95420FFF78EB9014B1878EB
:103C9C00704700BF141E0020F8B50646FFF7B2F9B6
:103CAC00194D074606F00F04B8B10020FEF764FD6D
:103CBC003046FFF723FA012303FA00F02B6823EABE
:103CCC0000032B606400114B04F2C57400201C60CF
:103CDC005860BDE8F840FEF751BDFEF74DFD30468B
:103CEC00FFF70CFA012303FA00F02B6823EA000318
:103CFC002B6004F59474064B43F82470BFF36F8F5C
:103D0C00BFF34F8F3846E4E7EC1C002000780240EC
:103D1C00007002402DE9F34104460020FEF72CFD13
:103D2C002046FFF7DDF914F0800F054621491DD11F
:103D3C0020460A68FFF7E2F9012303FA00F030EAA3
:103D4C0002030AD02046FFF7A7FF0323AB73002022
:103D5C00FEF714FD02B0BDE8F081C04302402B60B9
:103D6C000A60154A136818401060EEE7124F0E688F
:103D7C003A68204666EA0208FFF7C0F9012303FA05
:103D8C0000F018EA000FE2D026EA000600230E60CD
:103D9C002B600323AB738DF80730084B8DF806406E
:103DAC001043062238608DF804201B6801A8984740
:103DBC00CDE700BF7C1C0020EC1C0020101E002056
:103DCC00FFF7A8BF194BF7B5D3F80022184C194EC2
:103DDC0022F00402C3F80022D3F880542368377809
:103DEC00DA43154B1B6892B238461A43FFF786F933
:103DFC00012303FA00F0104202D03846FFF78AFF85
:103E0C0005F080056FF001103570FFF743FA236859
:103E1C0043F00103236002A800230193052300F85B
:103E2C00043D064B1B68984703B0F0BD0070024080
:103E3C00EC1C0020141E00207C1C0020101E0020F6
:103E4C00554B2DE9F041D3F8045300222946164670
:103E5C00012400297CD1FFF7D5F8002869D04F4BFD
:103E6C001B78002B65D1960263D54D494C4E40F220
:103E7C00A9730B604B4B1C6814F0FF041CBF186833
:103E8C00044040F2AA700860186810F0FF001CBFD4
:103E9C001968084040F2AB713160196811F0FF01EC
:103EAC00B6461CBF1E68314040F2AC76CEF80060BE
:103EBC001E6834403C4E08D037682743376040F2C8
:103ECC00A977CEF800701C601C68354F40F2AD74B9
:103EDC003C601C68204008D0346844EA00443460DC
:103EEC0040F2AA743C60186018682D4840F2AE7419
:103EFC000460186801400DD0CC0748BF42F40002A2
:103F0C00C806274840F2AB74046019601B6848BFB0
:103F1C0042F00102336833F001111CBF05F08070D0
:103F2C00024313F0011F04D06B0544BF316042F40F
:103F3C0080621E4F02F4000622F400044FF00108C8
:103F4C00E4B9FFF74DFA2EB3BDE8F041FFF73ABFE5
:103F5C0091FAA1F31648B3FA83F39F00384407682B
:103F6C003FB10660BFF36F8FBFF34F8F04FA03F0BE
:103F7C00024304FA03F321EA03016AE794FAA4F575
:103F8C00B5FA85F557F8253008FA05F5984724EA6F
:103F9C000504D5E7BDE8F081007002400E1C00203E
:103FAC000078024004780240181E002098840E000D
:103FBC0000710240F8B5114E114A34681268240C95
:103FCC002404144301271CB940F2FF133360F8BDDD
:103FDC0094FAA4F5B5FA85F5E8B20F2DC6BF1038E2
:103FEC00C0B240F0800000F00F03072B01D8FFF7A0
:103FFC0091FE07FA05F524EA0504E4E7EC1C002021
:10400C007C1C002010B50B4C63681B0610D5FFF709
:10401C00D1FF094B0022C3F80425BFF36F8FBFF308
:10402C004F8F8022C4F884204FF0FF32C3F808234E
:10403C0010BD00BF00E100E00070024008B5FFF7C2
:10404C00E1FF094BD3F80423C3F808230022C3F87B
:10405C000025BFF36F8FBFF34F8F044B1A70044BC7
:10406C0001221A7008BD00BF007002400E1C002017
:10407C000F1C002010B50020FEF77EFB0E4B1B78AA
:10408C0003F0FF042BB900240020FEF777FB204639
:10409C0010BDFFF78FFF094AD2F8003413F40073F8
:1040AC00F1D10121C2F82C15D2F80014890544BFB6
:1040BC00C2F82C351C46E7E70D1C002000700240AE
:1040CC0010B50446FFF726FE134A04F00F0164B244
:1040DC00002C4FF00103B5BFD2F81005D2F814052F
:1040EC008B408B40B5BF20EA030320EA0303C2F8E0
:1040FC001035C2F81435BFF36F8FBFF34F8F074ADB
:10410C00074B13EA240438BF14460123625C934026
:10411C00014AC2F8083310BD007002407C840E00C6
:10412C0061840E00F8B5214A214B224D47B213EAA7
:10413C00270338BF134600F00F0401211B5D01FA61
:10414C0003F3C5F804330646FEF73AFF68BB002FAD
:10415C00B4BFD5F81035D5F8143501FA04F1B5BF54
:10416C0019431943C5F81015C5F81415BFF36F8F13
:10417C00BFF34F8F013C062C17D8002F15DB002006
:10418C00FEF7FAFA3046FFF787FD3046FEF7B6FF2A
:10419C00094A012303FA00F0136823EA00031360B1
:1041AC000020BDE8F840FEF7E9BAF8BD7C840E00AB
:1041BC0061840E00007002407C1C0020024AD2F880
:1041CC000034002BFBD0704700E001400A4908B5D1
:1041DC000223C1F80435BFF36F8FBFF34F8FC1F8C3
:1041EC000805FFF7EBFF0023C1F80435BFF36F8F11
:1041FC00BFF34F8F08BD00BF00E0014070B50E4DFE
:10420C0016460122C5F80425BFF36F8FBFF34F8FFD
:10421C000024B44207D10023C5F80435BFF36F8FD7
:10422C00BFF34F8F70BD51F8243040F82430FFF7A6
:10423C00C5FF0134EDE700BF00E0014000F1804014
:10424C000023036082B003680193019B02B07047A6
:10425C00044A137923B90121106011711846704773
:10426C00852070475C1E0020094B1A68D20706D4C3
:10427C00E02283F800230122C3F880211A604FF05A
:10428C0080420123C2F81835024A1370704700BFF0
:10429C0000E100E0641E002008B54FF48070FFF7C9
:1042AC00CDFF4FF080430122C3F804231A6008BDF0
:1042BC00064B01221A604FF08042D2F80C3403F006
:1042CC000113B3F1011FF8D0704700BF0400004088
:1042DC00114B1B6810B563B14FF48070FFF7AEFF44
:1042EC004FF080430122C3F808230C4B00201B68BD
:1042FC0098470B4B1B6873B14FF48270FFF79EFF0E
:10430C004FF080430222C3F80823044B01201B68A2
:10431C00BDE81040184710BD000100405C1E002095
:10432C000401004000F180431A68002A1BBF0022E0
:10433C00012000201A6070470F4B1A78D2B902780E
:10434C004FF08041C2F34002C1F88025027802F0A0
:10435C000102C1F87825094A1168C90706D4E02181
:10436C0082F800130121C2F88011116001221A7029
:10437C000020704785207047741E002000E100E08B
:10438C00034B00221A60026802B11A60704700BF2A
:10439C00701E00204FF080434FF46072C3F804236A
:1043AC0070474FF080434FF46072C3F80823704796
:1043BC00014B00221A607047701E00204FF08043A2
:1043CC0010B5D3F80443620707D54FF48470FFF798
:1043DC00A9FF10B11E4B1B689847A30608D54FF4D4
:1043EC008A70FFF79FFF18B11A4B00201B68984783
:1043FC00600608D54FF48C70FFF794FF18B1154B7D
:10440C0001201B689847210608D54FF48E70FFF7E2
:10441C0089FF18B1104B00201B689847E20508D59E
:10442C004FF49070FFF77EFF18B10B4B01201B6807
:10443C009847A3050AD54FF49270FFF773FF28B184
:10444C00054B02201B68BDE81040184710BD00BF8B
:10445C00681E00206C1E0020701E002008B5FFF79F
:10446C00ADFFBDE80840FFF733BF0000034B6FF012
:10447C007F425A6005221A60704700BF10E000E0CE
:10448C00044A91689368CB1A23F07F438342F9D393
:10449C00704700BF10E000E0034B044A1B68B3FBFD
:1044AC00F2F35843FFF7ECBF2400002040420F000A
:1044BC0082B00190C0B20138092825D8DFE800F09D
:1044CC0005181C201014181C202414234B602823BE
:1044DC009DF805000B608B600C3102B000F01BB82E
:1044EC0030234B606023F3E742234B608423EFE7D8
:1044FC0018234B603023EBE71C234B603823E7E792
:10450C0020234B604023E3E7002306204B600B6025
:10451C008B6002B070470138062811D8DFE800F034
:10452C00041004080A0C0E0014230B6000207047C2
:10453C001C23FAE72023F8E73023F6E74023F4E7BF
:10454C0006207047054B1B68082B01BF044B1868ED
:10455C00B0FA80F0400918BF0020704730010010FD
:10456C003401001008B5FFF7EDFF40B14FF0804368
:10457C000022C3F80C21C3F81021C3F83825FFF72B
:10458C00E1FF002846D04FF080525E4BD2F8041465
:10459C00C3F82015D2F80814C3F82415D2F80C145B
:1045AC00C3F82815D2F81014C3F82C15D2F814142B
:1045BC00C3F83015D2F81814C3F83415D2F81C14FB
:1045CC00C3F84015D2F82014C3F84415D2F82414BB
:1045DC00C3F84815D2F82814C3F84C15D2F82C148B
:1045EC00C3F85015D2F83014C3F85415D2F834145B
:1045FC00C3F86015D2F83814C3F86415D2F83C141B
:10460C00C3F86815D2F84014C3F86C15D2F84424DA
:10461C00C3F87025FFF796FF10B13B4B3B4A1A606D
:10462C00FFF790FF18B13A4BFB22C3F81825FFF7A0
:10463C0089FF48B13749384B0A681B6822F00F02D2
:10464C0003F00F0313430B60FFF77CFF18B1334BE0
:10465C004FF400721A60FFF775FF48B14FF08043BA
:10466C00D3F80024D20744BF6FF00102C3F8002432
:10467C002B4AD2F8883043F47003C2F88830BFF369
:10468C004F8FBFF36F8F4FF01023D3F80022002A07
:10469C0003DBD3F80432002B2FDA224B0122C3F8B0
:1046AC000425D3F80024002AFBD04FF0102212214D
:1046BC00C2F80012D3F80024002AFBD04FF01023CC
:1046CC001222C3F80422174B1A46D3F800140029FF
:1046DC00FBD00021C3F80415D2F80034002BFBD01A
:1046EC00BFF34F8F0E49104BCA6802F4E0621343BC
:1046FC00CB60BFF34F8F00BFFDE70C4B0C4A1A6029
:10470C0008BD00BF00C000408C560040488103002B
:10471C0000F00040E40E00405802001040960240A9
:10472C0000ED00E000E001400400FA052400002048
:10473C000090D0030020704708B5FFF7FBFF08B9C5
:10474C0000F0AEF808BD000008B5074B4FF0FF3283
:10475C00C3F88020C3F8802100F054F94FF4805046
:10476C00BDE8084000F038B800E100E0C1F30B03ED
:10477C00F0B543BBB0F57F2F25D8154D2B68002A1B
:10478C0014BF06260226072B1FD8124F1C0104F15A
:10479C00804202F5F0323C44C2F80008C2F804181A
:1047AC00C4F80868D2F800E8704503F10103EDD1B4
:1047BC00D2F804289142E9D1D4F808289642E5D1E0
:1047CC002B600020F0BD0720F0BD0420F0BD00BF21
:1047DC00781E002000E001402DE9F041804615488C
:1047EC000022C0F58011FFF7C1FFD8F8000080F35C
:1047FC000888D8F80400FF2464B2EFF30585002D77
:10480C0008D1EFF31481022221EA020181F314880A
:10481C00A64600472546064621273FBAF0B4002499
:10482C00002500260027F0B4F92040B2004700BF55
:10483C00BDE8F08100000E0008B50C4B1B680BB1F5
:10484C00012008BD00F064FF0028F9D04FF0804231
:10485C00D2F8003413F001031DBFD2F8003443F03A
:10486C000103C2F80034184608BD00BF9C2200208A
:10487C0008B50A4A20211820FBF7F8FE08B1FBF70F
:10488C00CFFE00F04FFD38B900F0C0FCFBF774FF11
:10489C0020BF40BF20BFF9E708BD00BF7C1E002031
:1048AC0010B5002000F00EFD154B01221A604FF0E0
:1048BC008042D2F81834D903FBD500F0EDFD00206E
:1048CC0000F000FE0F4800F073FEFFF7B5FF18B1C3
:1048DC00BDE81040FFF7CCBF00F022FD044668B9DC
:1048EC0000F016FF50B1084B01221A604FF08042C5
:1048FC00D2F81834DB03FBD4FFF726FF204610BD9B
:10490C00080000409C2200200C000040044A136860
:10491C000BB1013B136043690BB1C068184770477A
:10492C00A0220020002202490248FDF793BF00BFDD
:10493C0040830E000800002007B5009313460A467A
:10494C0001460548FDF78FFF18B9044A1368013377
:10495C00136003B05DF804FB08000020A0220020C7
:10496C0008B513460A4601460448FDF7B2FF18B9CC
:10497C00034A13680133136008BD00BF0800002010
:10498C00A0220020014B18700B207047A42200209D
:10499C00024B002218781A70704700BFA422002026
:1049AC0018DF704730B585B0054610220C466846B6
:1049BC00002101F0ADFEA408684601950294FFF7B2
:1049CC00EFFF05B030BD1FB59208C2F3090353B910
:1049DC00012302906846009301910392FFF7E0FFD8
:1049EC0005B05DF804FB0920FAE71FB5032301901D
:1049FC0092086846009302910392FFF7D1FF05B02D
:104A0C005DF804FB1FB510220021684601F080FE02
:104A1C000623009368464FF480530193FFF7C0FFC1
:104A2C00072802BF4FF000520020136005B05DF85C
:104A3C0004FB000030B50C490C4C8A6B85B0684601
:104A4C005C3101F071F89DE80F0084E80F00084B11
:104A5C00E360084B084900221A605A602046074A56
:104A6C0001F0FAFA05B030BDC8240020382300202C
:104A7C00B94A0E00A8220020C4850E004C23002049
:104A8C0008B5002000F064FCBFF34F8F0549064BBE
:104A9C00CA6802F4E0621343CB60BFF34F8F00BFD0
:104AAC00FDE700BF00ED00E00400FA055B689A68C2
:104ABC00054B9A4206D14268836804490132013B96
:104ACC000A604B60704700BF48850E00A82200208A
:104ADC00F8B504461646A37808460BB90520F8BD70
:104AEC006D4B93E8060001B10AB904200DE094F86F
:104AFC00933023B194F894300BB10A20F8BD94F89C
:104B0C005930012B31D966B90820FFF73BFF01283A
:104B1C0040F0C080002000F0A3FB0028EDD1012064
:104B2C00F8BD00282FD15D4B18785D785C4B40EABE
:104B3C00052001F082FC0028DFD15A4D33786A68D9
:104B4C009A42DAD1711C286801F0B8FD564B5749CE
:104B5C005A7818789E7840EA02202B46504A40EA50
:104B6C00064001F0D9FB0028B8D194F85830002B3E
:104B7C00BBD094F859000328B7D894F87130032BA4
:104B8C0003D00920C1E70B20BFE7237B002BACD05F
:104B9C002369342B01D00620B7E7012821D903283B
:104BAC001FD043F20403217D1A68414B9A420FD166
:104BBC0004F11802002343F20C0505E052F8047BC3
:104BCC002E88B7420DD001338B42F7DB07209CE7D0
:104BDC0011B1A369002BF9D1012802D12379002B43
:104BEC00F4D0237943B1012809D9324BA268DB6890
:104BFC009A4204D8052088E701283FF676AF2E4B61
:104C0C00002202281A601FD0032832D0012829D094
:104C1C0094F86820002A3FF468AFE26E1A601D68B1
:104C2C00237D01288CBF002101211BB1A369003316
:104C3C0018BF01230022284600F08CFD80B900F03B
:104C4C00A7FC1E4B186065E794F86020002A3FF41F
:104C5C004CAF616E19601A4AC2F57E229142DED9C0
:104C6C000420F8BD94F85A20002A3FF43EAFE26DC0
:104C7C00D4E794F86020002A3FF437AF94F85A2018
:104C8C00002A3FF432AFE26D616E55181D600AB117
:104C9C000029E0D1F8BD00BFA822002018860E0024
:104CAC0044000020340000201A860E002C00002046
:104CBC00DBE5B151C8240020F0220020F4220020B2
:104CCC0000000E002DE9F043814687B00020FDF76F
:104CDC0027FE054638B16A4A18214846FBF7EAFC1C
:104CEC0007B0BDE8F08304238DF8043001238DF860
:104CFC000530644B644C93F89C20DFF8B081634F13
:104D0C0003F1A4060833002A08BF1E46604BD8F8EE
:104D1C00002018785B7839684FEA154E40EA03207A
:104D2C004FEA0E4E23464EEA000001F086FB0028A7
:104D3C0040F09D80202206F16F01206801F064FC98
:104D4C00002840F094809DF80530524C012B7ED108
:104D5C0043F204033A6819684F4B994205D042F26A
:104D6C0004001558E81A45424541994205F00105E1
:104D7C0021D142F20403D3588B421CD14FF440533F
:104D8C001B78142B89BF43F2140300251D68434B79
:104D9C0088BFB5FBF3F502F500531B78142B89BFC4
:104DAC0042F214030023D3583C4A88BFB3FBF2F3FE
:104DBC00ED1A18BF01250DB10023236296F855306A
:104DCC00032B10D8DFE803F0021821240123E3623F
:104DDC006369012B04BF00232362337C002B4CD06E
:104DEC007369002B49D096F855309BB1023B012BCF
:104DFC0012D87368E3600FE000F086FC3B689842C1
:104E0C0014BFA5200020E062EDE7AA23E362EAE7E5
:104E1C00AC23FBE77368A360A36CA362D8F80030E3
:104E2C006362202200211E4801F072FCF422FF2153
:104E3C001C4801F06DFC0023236301A8D9F808304D
:104E4C00D9F804109847184800F00AFA48E704F11A
:104E5C00240000F059FB96F85530012BE1D100F0FD
:104E6C0053FC3B689842DCD100F05AFBD9E70C208C
:104E7C00FFF788FD8DF8050065E700F051FBB2E700
:104E8C00D14C0E004C2300203C000020F4220020CA
:104E9C0018860E00C8240020DBE5B15140420F00FB
:104EAC0000250020242500208D4A0E00F022002031
:104EBC0070B5044686B01422002101A801F028FC2C
:104ECC0023788DF804300122062B8DF80520984AA2
:104EDC0001D0012B01D1216911701278012A04D063
:104EEC00022A00F0E180052336E10B2B00F28181D0
:104EFC00DFE813F00C0063003A007E00A8007F018D
:104F0C00D20086008A0084001000210001238DF855
:104F1C00083029E04FF08053D3F800210292D3F8E7
:104F2C0004210392D3F80C2192020592D3F810318C
:104F3C009B02049318E043F204037E4D18687E49EB
:104F4C002E6A227C884214BF01230223012E08BF43
:104F5C0001337AB902238DF80830EB680393774B51
:104F6C000493C3F57E230593A368616801A8984751
:104F7C0006B070BD012A12D1884210D14FF44053B3
:104F8C001B78142B8ABF43F2140300231B68039372
:104F9C004FF48053049343F208031B68E3E79A42EF
:104FAC0009D201238DF80830AB68039300F0AAFBFB
:104FBC00AB690490D7E7FF23A9E763691BB9032307
:104FCC008DF8053010E0B3F5807F01D90423F7E7A5
:104FDC00584D5B4B0021202205F1380019702963D4
:104FEC0001F096FB6369AB63002000F06BFABBE742
:104FFC00504BDA6B1B6C02920393B5E7237C86E76C
:10500C00238AADF80830AFE74A4DA28AE86BAB6B48
:10501C001118994201D903239EE05C302169284480
:10502C0001F04CFBA18AEB6B0B44EB6305F14002E6
:10503C002069FDF7A5FBE3682864002B94D0206958
:10504C00984791E73B4BDA6B9B6B9A4201D0082354
:10505C00B6E73B4D2A78002AC6D1FFF7EBFC0128B6
:10506C0001D00523ACE7374890F89C2072B100F2D0
:10507C00391290F83811A030FFF72AFD8DF8050091
:10508C009DF80530012BAFD12B70ADE70378002BC9
:10509C00E7D011460430EFE7264BDA6B1B6C039319
:1050AC0002924FF4807344E7013B072B00F2A1807E
:1050BC00DFE803F0049F7C819F979F4E626922B9C1
:1050CC0003238DF8053001252BE0C2F30B0333B11C
:1050DC00184B1D495B6D096813448B42F0D1B2F536
:1050EC00805F01D90423ECE7154B1D780DB908231B
:1050FC00E7E7104B1449586D096816188E42F6D81C
:10510C005A64DA6C9A6418651863104B1B68002299
:10511C0001211844FFF724FC0028D4D005238DF876
:10512C000530002000F0CEF9002D3FF421AF1BE735
:10513C0028000020C8240020DBE5B15100000E003F
:10514C00482300204C230020F0220020F4220020D1
:10515C00294B1B781BB908238DF8053004E7274D24
:10516C00A28A696D2B6D5B1A696C13448B423FF6F6
:10517C0052AF234B2E6B18682169E3683044FFF75C
:10518C00DBFB08B1E3685AE7A18A2B6B0B442B635A
:10519C002B6D0B442B6505F148022069FDF7F0FAE5
:1051AC00EB6C03936B6DA8640293DDE6134B9A6C66
:1051BC0003921B6DF8E7114B1A6D596D586C511A0F
:1051CC00814294D1996CD96400255D645A650D4B6C
:1051DC001B689A427FF477AF29462046FFF772FD91
:1051EC009FE7064B9A6C1B6D029303924FF480530E
:1051FC009FE60223B0E700BF48230020C82400200C
:10520C00F4220020F02200207047000010B500208E
:10521C00FFF788FBA0B90B4CA36B6BB1FFF70AFC33
:10522C0050B1636A43B1084A136000F0B1F9074BFF
:10523C001860074B01221A700020FFF7A3FB002017
:10524C0010BD00BFC8240020F0220020F422002052
:10525C0048230020014A1821FBF72CBABD4E0E0042
:10526C0070B5154D154906464FF4AE72284601F03F
:10527C00CBF918B906B1B047002070BD002201214E
:10528C000E48FFF76DFB024608B1032070BD582194
:10529C00281DFDF775FA4FF4AE72286029460848B0
:1052AC0001F00CFA33464FF4AE7205490348FFF790
:1052BC0043FB0028E9D1DFE7C824002000F00F00F1
:1052CC002426002010B5FFF72DFB08B1FBF7A8F939
:1052DC00114C12494FF4AE72204601F0EFF92368DD
:1052EC0001330FD14FF4AE7200210B4801F010FACC
:1052FC00012300206360FFF7B3FF60B1BDE81040ED
:10530C00FBF78EB900225821201DFDF739FA2368CE
:10531C008342E7D110BD10BDC824002000F00F005F
:10532C000020704770B5084E084CA41BE4080025FB
:10533C00A54201D1002070BD56F8353098470028A1
:10534C00F9D10135F4E700BF90810E0098810E0071
:10535C00F8B5094E094CA41B0746E4080025A542E4
:10536C0001D10020F8BD06EBC50338465B689847B1
:10537C000028F7D10135F2E790810E0098810E00DC
:10538C00BFF34F8F0549064BCA6802F4E062134322
:10539C00CB60BFF34F8F00BFFDE700BF00ED00E017
:1053AC000400FA0508B5FFF7EBFF000042F2080312
:1053BC002DE9F047274FC3583C6BA3F58058444563
:1053CC0004F5805904EB000641D054B943F20403B0
:1053DC00BE641A68204B9A4203D07B69012B08BF2C
:1053EC003C62B1450BD0C4F57F641C4B0F34444474
:1053FC001C40A50805F6FF751D409A4634B9C7F840
:10540C0034800020BDE8F047FFF72ABFAC423CBF18
:10541C0004F6FF7505EA0A05A6EB09039D4228BFB1
:10542C001D462A4631464846FFF7CDFA80B92A4632
:10543C0031464846FFF7D9FA50B9AC4228BF601B39
:10544C00A8EB0003A9442E443B630446D6E7002096
:10545C00BDE8F087C8240020DBE5B15100F0FFFF68
:10546C0038B50B4BDA6A5D6AAC2A08BF5B6B044635
:10547C0004BFE418ED1A2A4621460648FFF7B5FA90
:10548C0028B129462046BDE83840FFF78BBA38BD15
:10549C00C824002000000E0008B5FBF7FDFB08B186
:1054AC00FBF7BEF8054A06480021FBF727FC18B1AC
:1054BC00BDE80840FBF7B4B808BD00BFB1530E00FF
:1054CC0024860E0038B504460E48FBF76DFC08B177
:1054DC00FBF7A6F8ACB14FF4FA7000214FF400457D
:1054EC004FF47A720023E5FB040100F0EFFF002279
:1054FC0001460448FBF714FC18B1BDE83840FBF733
:10550C008FB838BD8027002008B50C22002101F08F
:10551C00FFF8024B00221A6308BD00BFC82400200C
:10552C0043F2040008B502680B4B9A4212D10023D7
:10553C0004220A49FFF700FA60B9094B1A6A43F2D0
:10554C000801012A08BF18629A6909680A44A2F581
:10555C0080529A6108BD00BFDBE5B15120860E0078
:10556C00C824002043F204031A68084B9A4201BF76
:10557C0043F20803186800F6FF7020F47F600CBF3C
:10558C0020F00F004FF48050704700BFDBE5B151A5
:10559C0008B5FFF7E7FF054B9B6903F6FF7318444B
:1055AC0020F47F6020F00F0008BD00BFC82400204D
:1055BC002DE9F84F4F4D8146FFF7EAFFEB6A012BBF
:1055CC0006462F4618D0A52B73D0AA2B00F083804B
:1055DC00AC2B40F08B80AB6C002B18BF1E463046BA
:1055EC00FFF7E4FE0446002871D1686B06EB40001F
:1055FC00FFF736FF04466AE06B69012B6FD1FFF7AA
:10560C00B1FFD5F824A02D6B00EB05082E44B04556
:10561C004DD0AAEB05050024EDB9FFF7A3FF00223E
:10562C005146FDF7ADF8BB6A984204D101233B62A9
:10563C00F861C7F818A03048FFF766FF002C50D16E
:10564C00D9F800202D4B2E48002A08BF1846BDE87B
:10565C00F84FFFF705BEB5F5805F4FF000024FF035
:10566C0001014046AB4628BF4FF4805BFFF778F949
:10567C0004460028DFD103465A4631464046FFF720
:10568C005BF904460028D6D15A4631464046FFF70E
:10569C00ACF904460028CED13B6B5B443B63FFF76F
:1056AC00DFFDD84404465E44A5EB0B05B4E70024AB
:1056BC00B3E7A86C002808BF3046FFF777FE044616
:1056CC0028B92B6A1BB905F11800FFF71DFF012340
:1056DC00C9F80030AFE7FFF7C3FE0446ABE7002480
:1056EC00A9E70123C9F800300020B0E70020BDE88D
:1056FC00F88F00BFC8240020EC240020B1530E000A
:10570C0049570E00FFF72EBF4FF480507047000032
:10571C0010B5094C206A01280CD1E3695BB1FFF785
:10572C0021FF0022A169FDF72BF8E3691B1A5842EF
:10573C00584110BD002010BDC824002008B5FFF74B
:10574C00E7FF28B142F21070BDE80840FFF7BABE7F
:10575C00FFF716FE2DE9F74F2F4CDFF8CC90019197
:10576C009846236A009306461746002543F2040A1E
:10577C005FFA85FBBBF1010F1ED0BBF1020F2CD0E1
:10578C00FFF706FFB7B1009B013BD3F1000E4EEBC8
:10579C00030E3044484501D8019B1BB3BEF1000FEA
:1057AC0020D1022D02D00135032DE1D148451ED95F
:1057BC0004202EE0BE46ECE7FFF7D4FEB8F1000F54
:1057CC0009D1DAF800301A46144BB2EB030E18BFAD
:1057DC004FF0010EDDE7C646DBE74FF0010E4FF44C
:1057EC008050D6E74845E3D8BBF1010F05D9FFF748
:1057FC0097FE0B48FFF788FE02E0BBF1000FF8D1D3
:10580C0000250123074825616361FFF77DFE666271
:10581C00284603B0BDE8F08FC8240020DBE5B15169
:10582C00E0240020EC24002000D00D000023C260F6
:10583C000160416083608B781A44026191F90330F6
:10584C001A4442610878003018BF0120704738B5FF
:10585C00426811780346002938D002F10C014160EE
:10586C00147B2CB9C2680168FFF7E0FF204638BDF5
:10587C005078117900F03005302D14D1547B04F0A0
:10588C003004302C0FD190781969091A1961002154
:10589C00907B084419690144196192F90F20114455
:1058AC005961012038BD00F0F004202C08D150794A
:1058BC0010FB01F1002DEBD1986801309860E7E7FF
:1058CC0000F0C000802808BF0421F3E7084638BD6B
:1058DC0070B5456804460E4663681A78B24204D126
:1058EC005B7803F00F03082B07D12046FFF7AFFFBF
:1058FC0063689D42F0D1002070BD012070BD4368EB
:10590C001A44426011B10139934201D10120704710
:10591C0013F8010B01F8010FF6E770B542685378E4
:10592C0003F00F04082C86B01FD103691C680026F5
:10593C000CB906B070BD236862689D682673294651
:10594C006846FFF773FF6368049304F10C03059337
:10595C006B7803F0C003802B08BF231D684608BF7B
:10596C000493FFF7DAFFA468E2E713F0C0011BD140
:10597C0003F03005102D08D143691970072C09D19B
:10598C000169906800F01AF8D3E79D06F6D54369D3
:10599C001970CEE791680069127911B100F08EFE92
:1059AC00C7E700F0B5FEC4E78029C2D10169002227
:1059BC009B060A60BDD543691A70BAE77FB50A46E3
:1059CC0001466846FFF732FF30B16846FFF7A5FF86
:1059DC006846FFF73CFFF7E707B05DF804FB836808
:1059EC002DE9F3410446884623B90027384602B016
:1059FC00BDE8F081036801220DF1070198470746C5
:105A0C000028F2D0A3689DF80750013B2A06A3603A
:105A1C001AD505F07F050726A368002BE5D023686F
:105A2C0001220DF10701204698470028DDD0A3681C
:105A3C009DF80720013BA36002F07F03B3401D4398
:105A4C00130606F1070602D4C8F80050CEE7232E41
:105A5C00E2D1CAE730B5044685B01546A9B902684B
:105A6C00114B9A4211D0102D06D82A466946204671
:105A7C00FFF7F0FF05B030BD102269462046FFF756
:105A8C00E9FF0028F6D0103DEDE7A3689D4201D94F
:105A9C000020EFE723682A46204698470028F7D0D5
:105AAC00A3685D1BA560E5E70B590E0073B50D46A9
:105ABC0001A906461446FFF792FF88B1019A511CC2
:105ACC0010D26B7803F0C003802B0BD02B7999424A
