:020000040000FA
:10000000082000202904000031040000330400000F
:100010003504000037040000390400003B040000F0
:100020000000000000000000000000003D0400008F
:100030003F040000000000004104000043040000F1
:100040000000000000000000000000004504000067
:100050000000000045040000000000000000000057
:10006000450400004504000045040000450400006C
:1000700000000000450400004504000045040000A5
:1000800045040000450400000000000000000000DE
:1000900045040000450400000000000000000000CE
:1000A00045040000000000000000000045040000BE
:1000B000450400004504000045040000450400001C
:1000C000450400004504000045040000450400000C
:1000D000450400000000000045040000000000008E
:1000E000450400000000000045040000000000007E
:1000F00045040000000000000000000000000000B7
:1001000000000000450400000000000000000000A6
:1001100000000000000000000000000000000000DF
:100120000000000045040000000000000000000086
:1001300000000000000000000000000000000000BF
:100140004504000000000000000000000000000066
:10015000000000000000000000000000000000009F
:10016000000000000000000000000000000000008F
:10017000000000000000000000000000000000007F
:10018000000000000000000000000000000000006F
:10040000DFF80CD000F0E2F90048004715040000C6
:100410000820002081B00020009043F20061C5F266
:1004200000010860FFE7FEE70748804707480047EC
:10043000FEE7FEE7FEE7FEE7FEE7FEE7FEE7FEE794
:10044000FEE7FEE7FEE7000065040000010400008F
:1004500040F20000C2F2000049F20001C0F2D031C7
:100460000160704780B582B04EF6D050CEF20000E9
:10047000016841F00201016000200190FFE701984E
:100480000021FF2800910DD8FFE7019840F20031CC
:10049000C0F2FF0151F830000130002818BF0120E0
:1004A0000090FFE70098C007002814D0FFE70198EC
:1004B00040F20431C0F2FF0151F83000019940F2DE
:1004C0000032C0F2FF0252F831100860FFE70198D5
:1004D00001300190D3E700F0BDF8002805D1FFE717
:1004E00000F0CEF800285DD0FFE7FFE749F20040BA
:1004F000C5F203000068012801D0FFE7F6E749F2E2
:100500000450C5F2030001210160FFE749F20040F9
:10051000C5F203000068012801D0FFE7F6E700F00C
:1005200099F8002813D0FFE748F21C00C0F2FF0042
:10053000016821F001010160FFE749F20040C5F2C6
:1005400003000068012801D0FFE7F6E7FFE700F0AD
:1005500097F8002814D0FFE748F22000C0F2FF000F
:100560000168202262F307010160FFE749F20040C1
:10057000C5F203000068012801D0FFE7F6E7FFE7B6
:1005800049F20450C5F2030000210160FFE749F27F
:100590000040C5F203000068012801D0FFE7F6E73C
:1005A00000F084F800F096F800280CD0FFE745F240
:1005B0001410C5F200000021016045F21810C5F2C8
:1005C00000000160FFE700F0AFF800280CD0FFE763
:1005D00044F63820C5F200000121016044F2785051
:1005E000C5F200000160FFE700F0BCF800280DD064
:1005F000FFE744F63820C5F200000021016044F214
:100600007850C5F2000001210160FFE700F0C8F852
:10061000002807D0FFE74AF6E460C5F203000E2188
:100620000160FFE74EF68C50CEF20000016841F405
:10063000406101604EF68850CEF20000016841F43E
:1006400070010160BFF34F8FBFF36F8FFFF700FFA3
:1006500002B080BD81B048F21C00C0F2FF0000680B
:1006600010F0010F04D0FFE701208DF8030003E034
:1006700000208DF80300FFE79DF8030001B07047EC
:1006800081B048F22000C0F2FF000068013000286D
:1006900004D1FFE701208DF8030003E000208DF86E
:1006A0000300FFE79DF8030001B07047BFF34F8FD1
:1006B0004EF60C50CEF20000016801F4E061042215
:1006C000C0F2FA5211430160BFF34F8FFFE700BF42
:1006D000FDE700BF81B040F23010C0F2FF000068BB
:1006E000092819D1FFE740F23410C0F2FF0000687A
:1006F000012804D1FFE701208DF8030010E040F24B
:100700003410C0F2FF000068022804D1FFE7012086
:100710008DF8030004E0FFE700208DF80300FFE7F9
:100720009DF8030001B0704781B040F23010C0F274
:10073000FF00006809280DD1FFE740F23410C0F235
:10074000FF000068012804D1FFE701208DF80300B5
:1007500004E0FFE700208DF80300FFE79DF80300A9
:1007600001B0704781B040F23010C0F2FF00006865
:1007700009280DD1FFE740F23410C0F2FF000068F5
:10078000022804D1FFE701208DF8030004E0FFE711
:1007900000208DF80300FFE79DF8030001B07047CB
:1007A00081B00420C0F2FF00006800F01E001C2889
:1007B00004D0FFE701208DF8030003E000208DF84E
:1007C0000300FFE79DF8030001B07047064C074D9A
:1007D00006E0E06840F0010394E807009847103411
:1007E000AC42F6D3FFF710FE1008000030080000FE
:1007F00002E008C8121F08C1002AFAD170477047EA
:10080000002001E001C1121F002AFBD17047000047
:10081000300800000000002008000000F007000081
:100820003808000008000020002000000008000038
:080830000090D003000000005D
:0400000500000401F2
:00000001FF
