:020000040000FA
:10000000082000202904000031040000330400000F
:100010003504000037040000390400003B040000F0
:100020000000000000000000000000003D0400008F
:100030003F040000000000004104000043040000F1
:1000400045040000450400000000000045040000D5
:100050000000000045040000000000000000000057
:1000600045040000450400004504000000000000B5
:1000700000000000450400004504000045040000A5
:1000800045040000450400000000000000000000DE
:1000900045040000450400000000000000000000CE
:1000A000450400004504000045040000450400002C
:1000B000450400004504000045040000450400001C
:1000C000450400004504000045040000450400000C
:1000D00000000000000000004504000000000000D7
:1000E0004504000000000000450400004504000035
:1000F000000000004504000000000000450400006E
:1001000000000000000000004504000000000000A6
:10011000000000000000000045040000450400004D
:100120000000000045040000000000000000000086
:1001300000000000000000000000000000000000BF
:1001400000000000000000000000000000000000AF
:100150004504000000000000000000000000000056
:10016000000000000000000000000000000000008F
:10017000000000000000000000000000000000007F
:10018000000000000000000000000000000000006F
:10019000000000000000000000000000000000005F
:10040000DFF80CD000F078F8004800471504000031
:100410000820002081B00020009043F20061C5F266
:1004200000010860FFE7FEE70748804707480047EC
:10043000FEE7FEE7FEE7FEE7FEE7FEE7FEE7FEE794
:10044000FEE7FEE7FEE7000065040000010400008F
:1004500040F20000C2F2000042F20001C0F2A171BD
:100460000160704780B582B000200190FFE70198DD
:100470000021FF2800910DD8FFE7019840F20031DC
:10048000C0F2FF0151F830000130002818BF0120F0
:100490000090FFE70098C007002814D0FFE70198FC
:1004A00040F20431C0F2FF0151F83000019940F2EE
:1004B0000032C0F2FF0252F831100860FFE70198E5
:1004C00001300190D3E74EF68C50CEF20000016867
:1004D00041F4406101604EF68850CEF200000168A0
:1004E00041F470010160BFF34F8FBFF36F8FFFF7CF
:1004F000AFFF02B080BD0000064C074D06E0E0688B
:1005000040F0010394E8070098471034AC42F6D35A
:10051000FFF77AFF3C0500005C05000002E008C818
:10052000121F08C1002AFAD170477047002001E06D
:1005300001C1121F002AFBD17047000060050000B6
:1005400000000020080000001C05000068050000F5
:1005500008000020002000002C0500000000000022
:080560000020A10700000000CB
:0400000500000401F2
:00000001FF
