:020000040000FA
:1000000008200020390200004102000043020000E5
:100010004502000047020000490200000000000005
:100020000000000000000000000000004B02000083
:100030004D020000000000004F02000051020000CD
:10004000530200005302000053020000530200005C
:10005000530200005302000053020000530200004C
:10006000530200005302000053020000530200003C
:10007000530200005302000053020000530200002C
:10008000530200005302000053020000530200001C
:10009000530200005302000053020000530200000C
:1000A00053020000530200005302000053020000FC
:1000B0005302000053020000000000000000000096
:1000C00053020000530200005302000053020000DC
:1000D00053020000530200005302000053020000CC
:1000E0005302000000000000530200000000000066
:1000F0000000000053020000000000005302000056
:1001000000000000000000000000000000000000EF
:1001100000000000000000000000000000000000DF
:1001200000000000000000000000000000000000CF
:1001300000000000000000000000000000000000BF
:1001400000000000000000000000000000000000AF
:10015000000000000000000000000000000000009F
:10016000000000000000000000000000000000008F
:10017000000000000000000000000000000000007F
:10018000000000000000000000000000000000006F
:10019000000000000000000000000000000000005F
:1001A000000000000000000000000000000000004F
:1001B000000000000000000000000000000000003F
:1001C000000000000000000000000000000000002F
:1001D000000000000000000000000000000000001F
:1001E000000000000000000000000000000000000F
:1001F00053020000000000000000000000000000AA
:10020000DFF80CD000F0F0F80048004715020000BD
:10021000082000200020074908604FF08050006946
:10022000C1000448001D01600221001D016000BFE3
:10023000FEE7000000E80140064880470648004706
:10024000FEE7FEE7FEE7FEE7FEE7FEE7FEE7FEE786
:10025000FEE7FEE7AD0200000102000059485A49DE
:1002600008607047594800680D2805D15748001D9F
:10027000006808B9012070470020FCE75348006877
:100280000D2805D15148001D006808B901207047AC
:100290000020FCE74D4800680D2805D14B48001DA3
:1002A000006808B9012070470020FCE710B5FFF78F
:1002B000F1FF40B10020464908604FF08041C1F88D
:1002C000100144490860FFF7D9FF002855D0424883
:1002D0000068424908604048001D0068091D086028
:1002E0003D4808300068091D08603B480C30006834
:1002F000091D0860384810300068091D086036483C
:1003000014300068091D086033481830006833490C
:100310002031086030481C300068091D08602E48F4
:1003200020300068091D08602B4824300068091D32
:100330000860294828300068091D086026482C30CC
:100340000068091D086024483030006823494031A6
:100350000860214834300068091D08601E483830A4
:100360000068091D08601C483C300068091D0860D1
:10037000194840300068091D0860FFF773FF40B15D
:100380001748006800F0010018B16FF0010014492F
:1003900008601448006840F470001249086000BF0B
:1003A00000BF00BFBFF34F8F00BF00BF00BF00BF43
:1003B00000BF00BFBFF36F8F00BF00BF00BFFFF7DC
:1003C0004DFF10BD0090D003000000203001001050
:1003D0000C010040380500400404001020C5004016
:1003E0000004004088ED00E0064C074D06E0E068A0
:1003F00040F0010394E8070098471034AC42F6D36C
:10040000FFF702FF2C0400004C04000002E008C8C3
:10041000121F08C1002AFAD170477047002001E07E
:1004200001C1121F002AFBD1704700004C040000DC
:1004300000000020040000000C0400005004000034
:1004400004000020042000001C0400000090D003E1
:0400000500000201F4
:00000001FF
