:020000040100F9
:1000000008200021950200019D0200019F020001CD
:10001000A1020001A3020001A5020001A702000144
:10002000000000000000000000000000A902000124
:10003000AB02000100000000AD020001AF020001B0
:1000400000000000000000000000000000000000B0
:1000500000000000B10200010000000000000000EC
:10006000B1020001B1020001B1020001B1020001C0
:10007000B1020001B1020001B10200010000000064
:10008000B1020001B1020001B1020001B1020001A0
:10009000B102000100000000B102000100000000F8
:1000A000B1020001B1020001B1020001B102000180
:1000B000B1020001B10200010000000000000000D8
:1000C0000000000000000000000000000000000030
:1000D0000000000000000000000000000000000020
:1000E0000000000000000000000000000000000010
:1000F0000000000000000000000000000000000000
:1001000000000000000000000000000000000000EF
:1001100000000000000000000000000000000000DF
:1001200000000000000000000000000000000000CF
:1001300000000000000000000000000000000000BF
:1001400000000000000000000000000000000000AF
:10015000000000000000000000000000000000009F
:10016000000000000000000000000000000000008F
:10017000000000000000000000000000000000007F
:10018000000000000000000000000000000000006F
:10019000000000000000000000000000000000005F
:1001A000000000000000000000000000000000004F
:1001B000000000000000000000000000000000003F
:1001C000000000000000000000000000000000002F
:1001D000000000000000000000000000000000001F
:1001E000000000000000000000000000000000000F
:1001F00000000000000000000000000000000000FF
:1002000000000000000000000000000000000000EE
:1002100000000000000000000000000000000000DE
:1002200000000000000000000000000000000000CE
:1002300000000000000000000000000000000000BE
:1002400000000000DFF80CD000F078F8004800470C
:10025000590200010820002181B00020009040F6E2
:100260000000C4F208104FF08071016040F22020BD
:10027000C0F2FF100068C00040F60401C4F208118B
:10028000086040F60800C4F2081002210160FFE790
:10029000FEE700000748804707480047FEE7FEE703
:1002A000FEE7FEE7FEE7FEE7FEE7FEE7FEE7FEE726
:1002B000FEE70000D10200014502000140F200000B
:1002C000C2F2001049F20001C0F2D0310160704763
:1002D00080B582B000200190FFE701980021FF283F
:1002E00000910DD8FFE7019840F20031C0F2FF11F4
:1002F00051F830000130002818BF01200090FFE7BE
:100300000098C007002814D0FFE7019840F204319C
:10031000C0F2FF1151F83000019940F20032C0F2F2
:10032000FF1252F831100860FFE701980130019088
:10033000D3E7FFF7C3FF02B080BD0000064C074DB6
:1003400006E0E06840F0010394E8070098471034A5
:10035000AC42F6D3FFF77AFF80030001A00300014F
:1003600002E008C8121F08C1002AFAD1704770477E
:10037000002001E001C1121F002AFBD170470000DC
:10038000A00300010000002108000000600300013C
:10039000A8030001080000210020000070030001F4
:0803A0000090D00300000000F2
:0400000501000245AF
:00000001FF
