:020000040000FA
:1000000008080020E90000000301000005010000CD
:1000100000000000000000000000000000000000E0
:1000200000000000000000000000000007010000C8
:100030000000000000000000090100000B010000AA
:100040000D0100000D0100000D0100000D01000078
:100050000D010000000000000D0100000D01000076
:100060000D0100000D0100000D0100000D01000058
:100070000D0100000D0100000D0100000D01000048
:100080000D0100000D0100000D0100000D01000038
:100090000D0100000D0100000D0100000D01000028
:1000A0000D0100000D010000000000000000000034
:1000B0000000000000000000000000000000000040
:1000C0000348854600F0DEF800480047D5000000F0
:1000D0000808002003200349086000204860886069
:1000E00000BFFEE7000600400321094802680A43FA
:1000F0000260084802680A430260074880470748D0
:100100000047FEE7FEE7FEE7FEE7FEE7FEE700004A
:10011000240500405405004013020000C100000007
:100120004F485049086070474F48008CC0B20128C2
:100130001FD14D48808C0007000F002819D14A4874
:10014000806AF0210840A02806D14748C06A0840CC
:10015000002801D1012070474348806AF0210840FF
:10016000D02806D14048C06A0840002801D10120AB
:10017000F1E70020EFE73C48008CC0B2012812D123
:100180003948808C0007000F00280CD13648806A5F
:10019000F0210840402806D13348C06A08400028B2
:1001A00001D1012070470020FCE72F48008CC0B22D
:1001B00001282CD12C48808C0007000F002826D164
:1001C0002948806AF0210840002806D12648C06AE4
:1001D0000840002801D1012070472348806AF0219F
:1001E0000840102806D12048C06A0840002801D1E4
:1001F0000120F1E71C48806AF0210840302806D130
:100200001948C06A0840002801D10120E4E7002015
:10021000E2E710B5FFF7C9FF002805D013481449DD
:100220004860C81313498861FFF7A5FF002802D072
:10023000012011498860FFF777FF00280ED00F4892
:100240000068012807D00E480C49086000BF0B4821
:1002500000680128FBD1C0200849486110BD00009A
:100260000024F40000000020C00F00F0DFFF07C0F2
:1002700000050040006C00400006004000EC064015
:1002800075930000064C0125064E05E0E36807CC97
:100290002B430C3C98471034B442F7D3FFF714FFBC
:1002A000C8020000E802000002E008C8121F08C1EE
:1002B000002AFAD170477047002001E001C1121FE7
:1002C000002AFBD170470000E80200000000002077
:1002D00004000000A8020000EC020000040000205E
:0C02E00004080000B80200000024F40034
:04000005000000C136
:00000001FF
