:020000040000FA
:1000000008100020390200004102000043020000F5
:100010004502000047020000490200000000000005
:100020000000000000000000000000004B02000083
:100030004D020000000000004F02000051020000CD
:10004000530200005302000053020000530200005C
:1000500053020000000000005302000000000000F6
:10006000530200005302000053020000530200003C
:10007000530200005302000053020000530200002C
:10008000530200005302000053020000530200001C
:10009000530200005302000053020000530200000C
:1000A00053020000530200005302000053020000FC
:1000B0000000000000000000000000000000000040
:1000C0000000000000000000000000000000000030
:1000D0005302000000000000000000005302000076
:1000E0000000000000000000000000000000000010
:1000F0000000000000000000000000000000000000
:1001000000000000000000000000000000000000EF
:1001100000000000000000000000000000000000DF
:1001200000000000000000000000000000000000CF
:1001300000000000000000000000000000000000BF
:1001400000000000000000000000000000000000AF
:10015000000000000000000000000000000000009F
:10016000000000000000000000000000000000008F
:10017000000000000000000000000000000000007F
:10018000000000000000000000000000000000006F
:10019000000000000000000000000000000000005F
:1001A000000000000000000000000000000000004F
:1001B000000000000000000000000000000000003F
:1001C000000000000000000000000000000000002F
:1001D000000000000000000000000000000000001F
:1001E000000000000000000000000000000000000F
:1001F00053020000000000000000000000000000AA
:10020000DFF80CD000F0D8F80048004715020000D5
:10021000081000200020074908604FF08050006956
:10022000C1000448001D01600221001D016000BFE3
:10023000FEE7000000E80140064880470648004706
:10024000FEE7FEE7FEE7FEE7FEE7FEE7FEE7FEE786
:10025000FEE7FEE7AD020000010200004E484F49F4
:10026000086070474E480068102805D14C48001DB2
:10027000006808B9012070470020FCE74848006882
:10028000102805D14648001D006808B901207047B4
:100290000020FCE742480068102805D14048001DB6
:1002A000006808B9012070470020FCE710B5FFF78F
:1002B000F1FF40B100203B4908604FF08041C1F898
:1002C000100139490860FFF7D9FF002855D0374899
:1002D0000068374908603548001D0068091D08603E
:1002E000324808300068091D086030480C3000684A
:1002F000091D08602D4810300068091D08602B4852
:1003000014300068091D0860284818300068284922
:100310002031086025481C300068091D086023480A
:1003200020300068091D0860204824300068091D3D
:1003300008601E4828300068091D08601B482C30E2
:100340000068091D086019483030006818494031BC
:100350000860164834300068091D086013483830BA
:100360000068091D086011483C300068091D0860DC
:100370000E4840300068091D0860FFF773FF40B168
:100380000C48006800F0010018B16FF00100094945
:100390000860FFF763FF10BD0090D003000000204D
:1003A000300100100C01004038050040040400102A
:1003B00020C5004000040040064C074D06E0E06800
:1003C00040F0010394E8070098471034AC42F6D39C
:1003D000FFF71AFFFC0300001C04000002E008C83D
:1003E000121F08C1002AFAD170477047002001E0AF
:1003F00001C1121F002AFBD1704700001C0400003D
:100400000000002004000000DC03000020040000C5
:100410000400002004100000EC0300000090D00352
:0400000500000201F4
:00000001FF
