:10000000000004208D070000B5070000B7070000BE
:10001000B9070000BB070000BD070000BF070000D4
:10002000000000000000000000000000C107000008
:10003000C307000000000000C5070000C70700005C
:10004000C9070000C907000000000000C907000040
:1000500000000000C90700000000000000000000D0
:10006000C9070000C9070000C9070000C907000050
:10007000C9070000C9070000C9070000C907000040
:10008000C9070000C90700000000000000000000D0
:10009000C9070000C90700000000000000000000C0
:1000A000C9070000C9070000C9070000C907000010
:1000B000C9070000C9070000C9070000C907000000
:1000C000C9070000C9070000C9070000C9070000F0
:1000D000C907000000000000C90700000000000080
:1000E000C907000000000000C9070000C9070000A0
:1000F00000000000C907000000000000C907000060
:10010000000000000000000000000000C90700001F
:10011000C907000000000000C9070000C90700006F
:1001200000000000C90700000000000000000000FF
:1001300000000000000000000000000000000000BF
:1001400000000000000000000000000000000000AF
:10015000C9070000000000000000000000000000CF
:10016000000000000000000000000000000000008F
:10017000000000000000000000000000000000007F
:10018000000000000000000000000000000000006F
:10019000000000000000000000000000000000005F
:1004000010B5054C237833B9044B13B1044800E010
:1004100000BF0123237010BD3C0400200000000039
:100420006C0C000008B5034B1BB10349034800E006
:1004300000BF08BD00000000400400206C0C00005C
:10044000A3F5803A704700BF174B002B08BF134B32
:100450009D46FFF7F5FF00218B460F461348144ACF
:10046000121A00F05FF80E4B002B00D098470D4B8E
:10047000002B00D098470020002104000D000D48FB
:10048000002802D00C4800F00BF900F027F82000FB
:10049000290000F06FF900F011F800BF000008001B
:1004A0000000000000000000000004203C040020C8
:1004B0007C040020A1060000AD06000008B5002164
:1004C000044600F089F8044B1868C36B03B19847E1
:1004D000204600F04DF900BF680C000070B50D4ECD
:1004E0000D4D761BB61006D00024013455F8043BA0
:1004F0009847A642F9D1094E00F0AAFB084D761B99
:10050000B61006D00024013455F8043B9847A642A3
:10051000F9D170BD300400203004002038040020E0
:1005200030040020F0B4860746D0541E002A3CD088
:10053000CAB2034601E0013C37D303F8012B9D0703
:10054000F9D1032C2AD9CDB20F2C45EA052545EA6D
:10055000054534D9A4F1100603F1200703F1100278
:1005600026F00F0C3609674442E9045542E902556A
:100570001032BA42F8D1721C14F00C0F04F00F06BE
:1005800003EB021213D0331F23F00303043313448D
:1005900042F8045B9342FBD106F003042CB1CAB2CB
:1005A0001C4403F8012B9C42FBD1F0BC704734463D
:1005B0001346002CF3D1F8E714460346C1E71A4668
:1005C0002646E0E7024B13B1024800F069B87047D5
:1005D00000000000AD0600002DE9F84F2E4B8346C9
:1005E0000F4618682DED028B00F076F82B4BD3F8F0
:1005F0000080D8F84861A6B108EE10BA4FF00109A2
:100600004FF0000A7468651E0BD4013406EB8404B5
:100610007FB1D4F80031BB420BD0013D043C6B1CD0
:10062000F6D11D4BBDEC028B1868BDE8F84F00F009
:1006300055B873682268013BAB420CBF7560C4F8C3
:1006400000A0002AE9D009FA05F1D6F88801D6F809
:1006500004B001420BD1904772685A4513D1D8F8C3
:100660004831B342D9D01E46002ECBD1D9E7D6F8B7
:100670008C0101420CD1D4F8801018EE100A90477A
:1006800072685A45EBD0D8F84861002EBAD1C8E755
:10069000D4F880009047DFE728040020680C0000B1
:1006A000002301461A46184600F01AB838B5084B20
:1006B000084D5B1B9C1007D0043B1D44013C55F8C2
:1006C00004399847002CF9D1BDE8384000F0C6BA8B
:1006D0003C04002038040020704700BF704700BF72
:1006E0002DE9F047DFF884A0064698460F46DAF871
:1006F00000009146FFF7F0FF1B4B1B68D3F8484101
:1007000034B365681F2D28DC5EB96B1C0235DAF83E
:100710000000636044F82570FFF7E0FF0020BDE8AB
:10072000F08704EB85030121022EC3F8889001FABB
:1007300005F1D4F8882142EA0102C4F88821C3F8FF
:100740000881E2D1D4F88C311943C4F88C11DCE76C
:1007500003F5A674C3F84841D3E7DAF80000FFF7C1
:10076000BDFF4FF0FF30DAE7680C000028040020DE
:10077000FEE700BF80B400AF024B034AC3F8442534
:10078000FEE700BF00600040FA50FA500649074AF1
:10079000074B9B1A03DD043BC858D050FBDC00F02C
:1007A0009FF9FFF751FE0000780C000000000020C8
:1007B0003C040020FEE7FEE7FEE7FEE7FEE7FEE77B
:1007C000FEE7FEE7FEE7FEE7FEE700BF80B483B08A
:1007D00000AF154B1B687B60144B1B683B607B684C
:1007E000072B19D13B68023B032B13D801A252F807
:1007F00023F000BF05080000090800000D080000F4
:1008000011080000012308E0002306E0002304E0B3
:10081000002302E0002300E0002318460C37BD4609
:100820005DF8047B704700BF3001FF003401FF001A
:1008300080B483B000AF154B1B687B60144B1B6802
:100840003B607B68072B19D13B68023B032B13D815
:1008500001A252F823F000BF690800006D080000F3
:100860007108000075080000012308E0012306E07C
:10087000012304E0012302E0012300E000231846E5
:100880000C37BD465DF8047B704700BF3001FF00A8
:100890003401FF0080B483B000AF154B1B687B6050
:1008A000144B1B683B607B68072B19D13B68023BEC
:1008B000032B13D801A252F823F000BFCD0800008B
:1008C000D1080000D5080000D9080000012308E085
:1008D000002306E0002304E0002302E0002300E000
:1008E000002318460C37BD465DF8047B704700BFF7
:1008F0003001FF003401FF0080B483B000AF154B1E
:100900001B687B60144B1B683B607B68072B19D10D
:100910003B68023B032B13D801A252F823F000BF1F
:100920003109000035090000390900003D090000C7
:10093000012308E0012306E0012304E0012302E093
:10094000012300E0002318460C37BD465DF8047B08
:10095000704700BF3001FF003401FF0080B483B056
:1009600000AF154B1B687B60144B1B683B607B68BA
:10097000072B19D13B68023B032B13D801A252F875
:1009800023F000BF95090000990900009D090000AF
:10099000A1090000012308E0002306E0002304E091
:1009A000002302E0002300E0002318460C37BD4678
:1009B0005DF8047B704700BF3001FF003401FF0089
:1009C00080B483B000AF154B1B687B60144B1B6871
:1009D0003B607B68072B19D13B68023B032B13D884
:1009E00001A252F823F000BFF9090000FD09000040
:1009F000010A0000050A0000012308E0002306E0C8
:100A0000002304E0002302E0002300E00023184656
:100A10000C37BD465DF8047B704700BF3001FF0016
:100A20003401FF0080B483B000AF154B1B687B60BE
:100A3000144B1B683B607B68072B19D13B68023B5A
:100A4000032B13D801A252F823F000BF5D0A000067
:100A5000610A0000650A0000690A0000012308E03D
:100A6000002306E0002304E0002302E0002300E06E
:100A7000002318460C37BD465DF8047B704700BF65
:100A80003001FF003401FF0080B400AF074B084A7B
:100A90001B68C2F84435054B054ADB69C2F84C3582
:100AA00000BFBD465DF8047B704700BF0080FF00BB
:100AB0000060005080B400AF4FF05023D3F8583599
:100AC00003F00303044A22FA03F3044A136000BF4D
:100AD000BD465DF8047B70470020A1072C04002070
:100AE00080B582B000AFFFF79DFF0346002B0CD00E
:100AF0004F4B1B68002B08D14D4B0D221A604D4BFC
:100B000001221A604B4B00221A6000237B600023F5
:100B10007B6010E04FF47F014FF47F027B6860330D
:100B200052F833207B686033DB000B445B68136052
:100B30007B6801337B607B681F2B08D84FF47F02F2
:100B40007B68603352F83330B3F1FF3FE2D1FFF7F7
:100B500005FF0346002B05D0374B29221A60374B7F
:100B600003221A60FFF732FE0346002B07D0344BF6
:100B7000344A1A604FF050230122C3F85825FFF77A
:100B800057FE0346002B02D02F4B00221A60FFF7BE
:100B900081FE0346002B11D04FF05023D3F80034D0
:100BA00003F00103002B09D04FF050230022C3F8BB
:100BB00014214FF050230022C3F81821FFF79CFEA8
:100BC0000346002B0DD04FF05023D3F8003403F030
:100BD0000103002B05D04FF050236FF00102C3F842
:100BE0000024FFF7EDFE0346002B02D0124B6522D6
:100BF0001A60164BD3F88C30144A43F44063C2F8A1
:100C00008C30FFF741FF114BD3F888300F4A43F483
:100C10007003C2F88830BFF34F8F00BFBFF36F8FF0
:100C200000BFFFF747FF00BF0837BD4680BD00BFCC
:100C3000204A00501C4900500C4700503C470050CF
:100C4000309503504400EFBE4C25035000ED00E00A
:100C5000F8B500BFF8BC08BC9E467047F8B500BFA9
:100C6000F8BC08BC9E467047000000200000000051
:080C7000D0F7FF7F0100000036
:100C780000000000EC02002054030020BC03002008
:100C8800000000000000000000000000000000005C
:100C9800000000000000000000000000000000004C
:100CA800000000000000000000000000000000003C
:100CB800000000000000000000000000000000002C
:100CC800000000000000000000000000000000001C
:100CD800000000000000000000000000000000000C
:100CE80000000000000000000000000000000000FC
:100CF80000000000000000000000000000000000EC
:100D080000000000000000000000000000000000DB
:100D180000000000000000000100000000000000CA
:100D28000E33CDAB34126DE6ECDE05000B0000008F
:100D380000000000000000000000000000000000AB
:100D4800000000000000000000000000000000009B
:100D5800000000000000000000000000000000008B
:100D6800000000000000000000000000000000007B
:101098000000000000000000580400200090D00369
:0C10A800C5050000250400000104000044
:040000030000078D65
:00000001FF
