:020000040000FA
:1000000008200020390200004102000043020000E5
:100010004502000047020000490200000000000005
:100020000000000000000000000000004B02000083
:100030004D020000000000004F02000051020000CD
:10004000530200005302000053020000530200005C
:10005000530200005302000053020000530200004C
:10006000530200005302000053020000530200003C
:10007000530200005302000053020000530200002C
:10008000530200005302000053020000530200001C
:10009000530200005302000053020000530200000C
:1000A00053020000530200005302000053020000FC
:1000B0005302000053020000000000000000000096
:1000C00053020000530200005302000053020000DC
:1000D0005302000053020000530200000000000021
:1000E0000000000000000000000000000000000010
:1000F0000000000000000000000000000000000000
:1001000000000000000000000000000000000000EF
:1001100000000000000000000000000000000000DF
:1001200000000000000000000000000000000000CF
:1001300000000000000000000000000000000000BF
:1001400000000000000000000000000000000000AF
:10015000000000000000000000000000000000009F
:10016000000000000000000000000000000000008F
:10017000000000000000000000000000000000007F
:10018000000000000000000000000000000000006F
:10019000000000000000000000000000000000005F
:1001A000000000000000000000000000000000004F
:1001B000000000000000000000000000000000003F
:1001C000000000000000000000000000000000002F
:1001D000000000000000000000000000000000001F
:1001E000000000000000000000000000000000000F
:1001F00000000000000000000000000000000000FF
:10020000DFF80CD000F088FA004800471502000023
:1002100008200020FF20074908600020091D086011
:10022000044910310860091D08600249083108605E
:1002300000BFFEE70006004006488047064800472A
:10024000FEE7FEE7FEE7FEE7FEE7FEE7FEE7FEE786
:10025000FEE7FEE7F504000001020000FD48FE494C
:1002600008607047FD48006838B9FC48001D006808
:1002700018B9FA481C30006808B101207047002006
:10028000FCE7F7480068062806D1F548001D00681D
:10029000062801D1012070470020FCE7F1480078D2
:1002A000062820D1EF48001D007800F00F00D0B9DB
:1002B000EC480830007800F0F000302801D101202F
:1002C0007047E8480830007800F0F000402801D17D
:1002D0000120F5E7E3480830007800F0F0005028EE
:1002E00001D10120ECE70020EAE7DE48007806288B
:1002F00020D1DC48001D007800F00F00D0B9D948AB
:100300000830007800F0F000302801D1012070475B
:10031000D4480830007800F0F000402801D10120D6
:10032000F5E7D0480830007800F0F000502801D1FF
:100330000120ECE70020EAE7CA48007806280ED141
:10034000C848001D007800F00F0040B9C5480830CB
:10035000007800F0F000502801D101207047002003
:10036000FCE7C048007806280ED1BE48001D007882
:1003700000F00F0040B9BB480830007800F0F000F2
:10038000302801D1012070470020FCE7B5480078F3
:1003900006280ED1B348001D007800F00F0040B9C8
:1003A000B0480830007800F0F000302801D101207A
:1003B00070470020FCE7AB480078062820D1A94808
:1003C000001D007800F00F00D0B9A6480830007872
:1003D00000F0F000302801D101207047A14808301A
:1003E000007800F0F000402801D10120F5E79D4899
:1003F0000830007800F0F000502801D10120ECE72F
:100400000020EAE79748007806280ED19548001D9D
:10041000007800F00F0040B992480830007800F0F2
:10042000F000302801D1012070470020FCE78D4802
:100430000078062820D18B48001D007800F00F00BE
:10044000D0B988480830007800F0F000302801D199
:100450000120704783480830007800F0F000402801
:1004600001D10120F5E77F480830007800F0F00066
:10047000502801D10120ECE70020EAE77948007814
:1004800006280ED17748001D007800F00F0040B913
:1004900074480830007800F0F000302801D10120C5
:1004A00070470020FCE76F480078062820D16D488F
:1004B000001D007800F00F00D0B96A4808300078BD
:1004C00000F0F000302801D1012070476548083065
:1004D000007800F0F000402801D10120F5E76148E4
:1004E0000830007800F0F000502801D10120ECE73E
:1004F0000020EAE710B5FFF7D6FF28B15A48008878
:10050000C0F3042059490860FFF7B8FF10B15848FC
:1005100058494867FFF78BFF30B15348E03800680F
:10052000C0F3423054490860FFF76CFF28B15348CC
:10053000006820F0807051490860FFF73CFF48B127
:1005400000204F4908604FF08041C1F810014A492E
:10055000091F0860FFF71AFF18B1032046496431EC
:100560000860FFF7FEFE68B10520464908600120DB
:1005700044497831086000204249083108603F2032
:10058000091F0860FFF7D8FE002855D03648E03034
:1005900000683D4908603448E4300068091D08607F
:1005A0003148E8300068091D08602F48EC300068C9
:1005B000091D08602C48F0300068091D08602A48B1
:1005C000F4300068091D08602748F83000682E499B
:1005D000203108602448FC300068091D08602B4861
:1005E0000068091D08602948001D0068091D086091
:1005F000264808300068091D086024480C3000684F
:10060000091D08602148103000681F49403108600A
:100610001E4814300068091D08601C481830006826
:10062000091D086019481C300068091D086017483A
:1006300020300068091D0860FFF757FE30B10A48F6
:10064000CC38006800F04F0011490860FFF726FE23
:1006500048B31FE00090D00300000020005100408C
:1006600030010010E00F00F024030010403501407D
:100670000DF0ADBA00C007403C050040FCED00E0C5
:100680000C0100401056004020C50040240400101A
:10069000E40E00401B48006800F0010018B16FF044
:1006A000010018490860FFF7ECFD28B11648006802
:1006B00040F4806014490860FFF7D4FD40B1002089
:1006C000124908601249C1F8040110491C31086040
:1006D0001048006840F470000E49086000BF00BF79
:1006E00000BFBFF34F8F00BF00BF00BF00BF00BF00
:1006F00000BFBFF36F8F00BF00BF00BFFFF7AEFDAD
:1007000010BD0000000400403C17004000510040B4
:100710000050004088ED00E0064C074D06E0E06820
:1007200040F0010394E8070098471034AC42F6D338
:10073000FFF76AFD5C0700007C07000002E008C8C4
:10074000121F08C1002AFAD170477047002001E04B
:1007500001C1121F002AFBD1704700007C07000076
:1007600000000020040000003C070000800700009B
:1007700004000020042000004C0700000090D0037B
:0400000500000201F4
:00000001FF
