:020000040000FA
:1000000008200020390200004102000043020000E5
:100010004502000047020000490200000000000005
:100020000000000000000000000000004B02000083
:100030004D020000000000004F02000051020000CD
:10004000530200005302000053020000530200005C
:10005000530200005302000053020000530200004C
:10006000530200005302000053020000530200003C
:10007000530200005302000053020000530200002C
:10008000530200005302000053020000530200001C
:10009000530200005302000053020000530200000C
:1000A00053020000530200005302000053020000FC
:1000B0005302000053020000000000000000000096
:1000C00053020000530200005302000053020000DC
:1000D00053020000530200005302000053020000CC
:1000E0005302000053020000530200000000000011
:1000F0000000000053020000000000005302000056
:1001000000000000000000000000000000000000EF
:1001100000000000000000000000000000000000DF
:1001200000000000000000000000000000000000CF
:1001300000000000000000000000000000000000BF
:1001400000000000000000000000000000000000AF
:10015000000000000000000000000000000000009F
:10016000000000000000000000000000000000008F
:10017000000000000000000000000000000000007F
:10018000000000000000000000000000000000006F
:10019000000000000000000000000000000000005F
:1001A000000000000000000000000000000000004F
:1001B000000000000000000000000000000000003F
:1001C000000000000000000000000000000000002F
:1001D000000000000000000000000000000000001F
:1001E000000000000000000000000000000000000F
:1001F00053020000000000000000000000000000AA
:10020000DFF80CD000F086F9004800471502000026
:10021000082000200020074908604FF08050006946
:10022000C1000448001D01600221001D016000BFE3
:10023000FEE7000000E80140064880470648004706
:10024000FEE7FEE7FEE7FEE7FEE7FEE7FEE7FEE786
:10025000FEE7FEE785030000010200009E489F497B
:10026000086070479E480068082819D19C48001D06
:10027000006808B9012070479948001D00680128EE
:1002800000D1F8E79648001D0068022801D101203E
:10029000F1E79348001D0068032801D10120EAE737
:1002A0000120E8E78E480068082805D18C48001D29
:1002B000006808B9012070470020FCE78848006802
:1002C000082805D18648001D006808B9012070473C
:1002D0000020FCE782480068082805D18048001DFE
:1002E000006808B9012070470020FCE77C480068DE
:1002F000082805D17A48001D006808B90120704718
:100300000020FCE776480068082819D17448001DD1
:10031000006808B9012070477148001D0068012875
:1003200000D1F8E76E48001D0068022801D10120C5
:10033000F1E76B48001D0068032801D10120EAE7BE
:100340000120E8E766480068082819D16448001DC4
:10035000006808B9012070476148001D0068012845
:1003600000D1F8E75E48001D0068022801D1012095
:10037000F1E75B48001D0068032801D10120EAE78E
:100380000120E8E710B5FFF7DDFF40B10020554937
:1003900008604FF08041C1F8100153490860FFF731
:1003A000B1FF002855D051480068514908604F48B6
:1003B000001D0068091D08604C4808300068091DD0
:1003C00008604A480C300068091D08604748103032
:1003D0000068091D0860454814300068091D086060
:1003E0004248183000684249203108603F481C30BC
:1003F0000068091D08603D4820300068091D08603C
:100400003A4824300068091D0860384828300068E0
:10041000091D086035482C300068091D0860334804
:10042000303000683249403108603048343000686C
:10043000091D08602D4838300068091D08602B48E8
:100440003C300068091D0860284840300068091DDC
:100450000860FFF74BFF10B1264827490860FFF7F7
:1004600039FF10B1FB2025490860FFF727FF38B19D
:10047000234801782348006861F30300214908609C
:10048000FFF710FF18B14FF400701F490860FFF725
:10049000E9FE40B11D48006800F0010018B16FF09E
:1004A00001001A4908601A48006840F470001849B1
:1004B000086000BF00BF00BFBFF34F8F00BF00BF89
:1004C00000BF00BF00BF00BFBFF36F8F00BF00BF02
:1004D00000BFFFF7C3FE10BD0090D0030000002056
:1004E000300100100C0100403805004004040010E9
:1004F00020C50040488103008C56004018F500409C
:1005000058020010E40E00404096024000040040F3
:1005100088ED00E0064C074D06E0E06840F001037E
:1005200094E8070098471034AC42F6D3FFF76CFE0E
:10053000580500007805000002E008C8121F08C135
:10054000002AFAD170477047002001E001C1121F54
:10055000002AFBD170470000780500000000002051
:1005600004000000380500007C05000004000020A5
:0C05700004200000480500000090D003AB
:0400000500000201F4
:00000001FF
