:10000000000001205D050000850500008705000057
:10001000890500008B0500008D0500000000000030
:100020000000000000000000000000008F0500003C
:1000300091050000000000009305000095050000F8
:100040009705000097050000970500009705000040
:100050009705000097050000970500009705000030
:100060009705000097050000970500009705000020
:100070009705000097050000970500009705000010
:100080009705000097050000970500009705000000
:1000900097050000970500009705000097050000F0
:1000A00097050000970500009705000097050000E0
:1000B0009705000097050000000000000000000008
:1000C00097050000970500009705000097050000C0
:1000D000970500009705000097050000000000004C
:1000E0000000000000000000000000000000000010
:1000F0000000000000000000000000000000000000
:1001000000000000000000000000000000000000EF
:1001100000000000000000000000000000000000DF
:1001200000000000000000000000000000000000CF
:1001300000000000000000000000000000000000BF
:1001400000000000000000000000000000000000AF
:10015000000000000000000000000000000000009F
:10016000000000000000000000000000000000008F
:10017000000000000000000000000000000000007F
:10018000000000000000000000000000000000006F
:10019000000000000000000000000000000000005F
:1001A000000000000000000000000000000000004F
:1001B000000000000000000000000000000000003F
:1001C000000000000000000000000000000000002F
:1001D000000000000000000000000000000000001F
:1001E000000000000000000000000000000000000F
:1001F00000000000000000000000000000000000FF
:1002000010B5054C237833B9044B13B10448AFF350
:1002100000800123237010BD3C040020000000007A
:10022000EC0D000008B5034B1BB103490348AFF3C5
:10023000008008BD0000000040040020EC0D00001C
:10024000154B002B08BF134B9D46A3F5803A0021A8
:100250008B460F461348144A121A00F05FF80F4BF2
:10026000002B00D098470E4B002B00D09847002061
:10027000002104000D000D48002802D00C4800F0B9
:10028000FFF800F027F82000290000F063F900F0E3
:1002900011F800BF0000080000000120000000006D
:1002A000000000003C0400207C04002081040000C9
:1002B0008D04000008B50021044600F089F8044BC5
:1002C0001868C36B03B19847204600F041F900BF9E
:1002D000E80D000070B50D4E0D4D761BB61006D022
:1002E0000024013455F8043B9847A642F9D1094E41
:1002F000094D761B00F06CFDB61006D000240134C9
:1003000055F8043B9847A642F9D170BD300400204F
:10031000300400203804002030040020F0B48607A8
:1003200046D0541E002A3CD0CAB2034602E014F163
:10033000FF3436D303F8012B9D07F8D1032C29D9BC
:10034000CDB245EA05250F2C45EA054533D9A4F180
:100350001006360903F1200707EB061703F1100218
:1003600042E9045542E902551032BA42F8D1721CF2
:1003700014F00C0F03EB021204F00F0613D0331F1E
:1003800023F003030433134442F8045B9342FBD18C
:1003900006F003042CB1C9B21C4403F8011B9C42B3
:1003A000FBD1F0BC704734461346002CF3D1F8E77C
:1003B00014460346C2E71A462646E0E7024B13B14D
:1003C000024800F05DB87047000000008D04000096
:1003D0002DE9F04F284B83B00F460190186800F0CC
:1003E0006FF8264BD3F800A04FF00009DAF8486107
:1003F0008EB17468651E0ED4013406EB84044FF090
:1004000001087FB1D4F80031BB420BD0013D6B1C19
:10041000A4F10404F5D1184B186803B0BDE8F04FFF
:1004200000F050B873682268013BAB420CBF7560A6
:10043000C4F80090002AE9D0D6F88811D6F804B0A4
:1004400008FA05FC1CEA010F08D1904772685A456A
:10045000CCD1DAF84831B342D8D0C7E7D6F88C31DE
:10046000D4F880101CEA030F02D101989047EDE701
:1004700008469047EAE700BF28040020E80D000086
:10048000002301461A46184600F01EB838B50A4C3B
:100490000A4D641BA4100AD004F18043013B05EB14
:1004A0008305013C55F804399847002CF9D1BDE883
:1004B000384000F093BC00BF3C040020380400200A
:1004C000704700BF704700BF2DE9F0411E4C054644
:1004D000206890461F460E46FFF7F2FF1B4B1A6836
:1004E000D2F8483133B35A6820681F2A27DC4DB947
:1004F000911C01325A6043F82160FFF7E3FF0020AE
:10050000BDE8F08103EB82010124C1F8888004FA80
:1005100002FED3F88841022D44EA0E0CC3F888C1CC
:10052000C1F80871E4D1D3F88C114EEA0104C3F884
:100530008C41DDE702F5A673C2F84831D3E7FFF737
:10054000C1FF4FF0FF30DBE728040020E80D00007A
:10055000FEE700BF80B400AFFEE700000649074A8F
:10056000074B9B1A03DD043BC858D050FBDC00F05E
:10057000CFFAFFF765FE0000F80D00000000002034
:100580003C040020FEE7FEE7FEE7FEE7FEE7FEE7AD
:10059000FEE7FEE7FEE7FEE780B483B000AF1D4B49
:1005A0001B68B3F1FF3F0AD11B4B1B68DBB27B60BA
:1005B0001A4B1B681B0903F00F033B6005E0154B4A
:1005C0001B687B60164B1B683B607B68062B19D150
:1005D0003B68033B032B13D801A252F823F000BF62
:1005E000F1050000F5050000F9050000FD0500001B
:1005F000012308E0012306E0012304E0012302E0D7
:10060000012300E0002318460C37BD465DF8047B4B
:10061000704700BF30010010E00F00F0E80F00F05D
:100620003401001080B483B000AF174B1B68DBB2FD
:100630007B60164B1B681B0903F00F033B607B6854
:10064000062B19D13B68033B032B13D801A252F8A8
:1006500023F000BF65060000690600006D0600007B
:1006600071060000012308E0002306E0002304E0F7
:10067000002302E0002300E0002318460C37BD46AB
:100680005DF8047B704700BFE00F00F0E80F00F05A
:1006900080B483B000AF1D4B1B68B3F1FF3F0AD19C
:1006A0001B4B1B68DBB27B601A4B1B681B0903F0FA
:1006B0000F033B6005E0154B1B687B60164B1B6806
:1006C0003B607B68062B19D13B68033B032B13D897
:1006D00001A252F823F000BFE9060000ED06000079
:1006E000F1060000F5060000012308E0012306E002
:1006F000012304E0012302E0012300E00023184667
:100700000C37BD465DF8047B704700BF3001001018
:10071000E00F00F0E80F00F03401001080B483B067
:1007200000AF174B1B68DBB27B60164B1B681B09C5
:1007300003F00F033B607B68062B19D13B68033B3A
:10074000032B13D801A252F823F000BF5D0700006D
:10075000610700006507000069070000012308E049
:10076000002306E0002304E0002302E0002300E071
:10077000002318460C37BD465DF8047B704700BF68
:10078000E00F00F0E80F00F080B483B000AF1D4B25
:100790001B68B3F1FF3F0AD11B4B1B68DBB27B60C8
:1007A0001A4B1B681B0903F00F033B6005E0154B58
:1007B0001B687B60164B1B683B607B68062B19D15E
:1007C0003B68033B032B13D801A252F823F000BF70
:1007D000E1070000E5070000E9070000ED07000061
:1007E000012308E0012306E0012304E0012302E0E5
:1007F000012300E0002318460C37BD465DF8047B5A
:10080000704700BF30010010E00F00F0E80F00F06B
:100810003401001080B483B000AF174B1B68DBB20B
:100820007B60164B1B681B0903F00F033B607B6862
:10083000062B19D13B68033B032B13D801A252F8B6
:1008400023F000BF55080000590800005D080000B3
:1008500061080000012308E0002306E0002304E013
:10086000002302E0002300E0002318460C37BD46B9
:100870005DF8047B704700BFE00F00F0E80F00F068
:1008800080B483B000AF174B1B68DBB27B60164BA4
:100890001B681B0903F00F033B607B68062B19D113
:1008A0003B68033B032B13D801A252F823F000BF8F
:1008B000C1080000C5080000C9080000CD080000FC
:1008C000012308E0002306E0002304E0002302E007
:1008D000002300E0002318460C37BD465DF8047B7A
:1008E000704700BFE00F00F0E80F00F080B483B065
:1008F00000AF1D4B1B68B3F1FF3F0AD11B4B1B68B8
:10090000DBB27B601A4B1B681B0903F00F033B60D3
:1009100005E0154B1B687B60164B1B683B607B68D2
:10092000062B19D13B68033B032B13D801A252F8C5
:1009300023F000BF45090000490900004D090000EF
:1009400051090000002308E0002306E0012304E031
:10095000012302E0012300E0002318460C37BD46C6
:100960005DF8047B704700BF30010010E00F00F01D
:10097000E80F00F03401001080B483B000AF1D4BCD
:100980001B68B3F1FF3F0AD11B4B1B68DBB27B60D6
:100990001A4B1B681B0903F00F033B6005E0154B66
:1009A0001B687B60164B1B683B607B68062B19D16C
:1009B0003B68033B032B13D801A252F823F000BF7E
:1009C000D1090000D5090000D9090000DD090000A7
:1009D000012308E0012306E0012304E0012302E0F3
:1009E000012300E0002318460C37BD465DF8047B68
:1009F000704700BF30010010E00F00F0E80F00F07A
:100A00003401001080B483B000AF1D4B1B68B3F1FC
:100A1000FF3F0AD11B4B1B68DBB27B601A4B1B6884
:100A20001B0903F00F033B6005E0154B1B687B605F
:100A3000164B1B683B607B68062B19D13B68033B58
:100A4000032B13D801A252F823F000BF5D0A000067
:100A5000610A0000650A0000690A0000012308E03D
:100A6000012306E0012304E0012302E0012300E06A
:100A7000002318460C37BD465DF8047B704700BF65
:100A800030010010E00F00F0E80F00F0340100101A
:100A900080B483B000AF154B1B687B60144B1B68A0
:100AA0003B607B68062B19D13B68033B032B13D8B3
:100AB00001A252F823F000BFC90A0000CD0A0000CD
:100AC000D10A0000D50A0000002308E0002306E058
:100AD000002304E0012302E0012300E00023184684
:100AE0000C37BD465DF8047B704700BF3001001035
:100AF0003401001080B400AF034B044A1A6000BFF9
:100B0000BD465DF8047B70472C0400200090D003A4
:100B100080B500AFFFF740FD0346002B06D08C4B9D
:100B20001B681B0A8B4A03F01F031360FFF77AFD53
:100B30000346002B02D0884B884A1A60FFF7A8FDB5
:100B40000346002B06D0864B1B685B0B854A03F0DF
:100B500007031360FFF7E2FD0346002B05D0824B2D
:100B6000DB68814A23F08073D360FFF70DFE0346F4
:100B7000002B0ED04FF080430022C3F80C214FF021
:100B800080430022C3F810214FF080430022C3F8B5
:100B90003825FFF73FFE0346002B02D0734B03229C
:100BA0001A60FFF76DFE0346002B0BD0704B052239
:100BB0001A60704B01221A606F4B00221A606F4B53
:100BC0003F221A60FFF792FE0346002B76D04FF0CB
:100BD00080536B4AD3F80434C2F820354FF0805369
:100BE000674AD3F80834C2F824354FF08053644A7A
:100BF000D3F80C34C2F828354FF08053604AD3F84C
:100C00001034C2F82C354FF080535D4AD3F81434B9
:100C1000C2F830354FF08053594AD3F81834C2F82F
:100C200034354FF08053564AD3F81C34C2F840355F
:100C30004FF08053524AD3F82034C2F844354FF075
:100C400080534F4AD3F82434C2F848354FF08053CC
:100C50004B4AD3F82834C2F84C354FF08053484AF9
:100C6000D3F82C34C2F850354FF08053444AD3F8AF
:100C70003034C2F854354FF08053414AD3F83434FD
:100C8000C2F860354FF080533D4AD3F83834C2F88B
:100C900064354FF080533A4AD3F83C34C2F8683593
:100CA0004FF08053364AD3F84034C2F86C354FF0D9
:100CB0008053334AD3F84434C2F87035FFF75CFEF2
:100CC0000346002B05D02F4B1B682F4A03F04F0320
:100CD0001360FFF797FE0346002B0DD04FF08043C3
:100CE000D3F8003403F00103002B05D04FF080430C
:100CF0006FF00102C3F80024FFF7CAFE0346002B81
:100D000005D0224B1B68214A43F48063136000F036
:100D100043F80346002B0BD01D4B0022C3F80021E3
:100D20001B4B0022C3F80421194B0022C3F81C21DD
:100D3000184BD3F88830174A43F47003C2F8883050
:100D4000BFF34F8FBFF36F8FFFF7D4FE00BF80BD9F
:100D5000240300104035014074C007400DF0ADBAC7
:100D6000440200103C050040F0ED00E0A00500400A
:100D70001056004088560040185600401456004057
:100D800000C0004058020010E40E00403C17004034
:100D90000050004000ED00E080B400AF0B4BD3F8F2
:100DA0000031002B09D1094BD3F80431002B04D1B9
:100DB000064BD3F81C31002B01D0012300E00023A7
:100DC0001846BD465DF8047B704700BF00500040E8
:100DD000F8B500BFF8BC08BC9E467047F8B500BF28
:100DE000F8BC08BC9E4670470000002000000000D0
:080DF00050F4FF7F0100000038
:100DF80000000000EC02002054030020BC03002087
:100E080000000000000000000000000000000000DA
:100E180000000000000000000000000000000000CA
:100E280000000000000000000000000000000000BA
:100E380000000000000000000000000000000000AA
:100E4800000000000000000000000000000000009A
:100E5800000000000000000000000000000000008A
:100E6800000000000000000000000000000000007A
:100E7800000000000000000000000000000000006A
:100E8800000000000000000000000000000000005A
:100E98000000000000000000010000000000000049
:100EA8000E33CDAB34126DE6ECDE05000B0000000E
:100EB800000000000000000000000000000000002A
:100EC800000000000000000000000000000000001A
:100ED800000000000000000000000000000000000A
:100EE80000000000000000000000000000000000FA
:101218000000000000000000580400200090D003E7
:0C122800BD0300002502000001020000D0
:040000030000055D97
:00000001FF
