:10000000000004205D050000850500008705000054
:10001000890500008B0500008D0500000000000030
:100020000000000000000000000000008F0500003C
:1000300091050000000000009305000095050000F8
:100040009705000097050000970500009705000040
:100050009705000097050000970500009705000030
:100060009705000097050000970500009705000020
:100070009705000097050000970500009705000010
:100080009705000097050000970500009705000000
:1000900097050000970500009705000097050000F0
:1000A00097050000970500009705000097050000E0
:1000B0009705000097050000000000000000000008
:1000C00097050000970500009705000097050000C0
:1000D00097050000970500009705000097050000B0
:1000E000970500009705000097050000000000003C
:1000F00000000000970500000000000097050000C8
:1001000000000000000000000000000000000000EF
:1001100000000000000000000000000000000000DF
:1001200000000000000000000000000000000000CF
:1001300000000000000000000000000000000000BF
:1001400000000000000000000000000000000000AF
:10015000000000000000000000000000000000009F
:10016000000000000000000000000000000000008F
:10017000000000000000000000000000000000007F
:10018000000000000000000000000000000000006F
:10019000000000000000000000000000000000005F
:1001A000000000000000000000000000000000004F
:1001B000000000000000000000000000000000003F
:1001C000000000000000000000000000000000002F
:1001D000000000000000000000000000000000001F
:1001E000000000000000000000000000000000000F
:1001F0009705000000000000000000000000000063
:1002000010B5054C237833B9044B13B10448AFF350
:1002100000800123237010BD3C040020000000007A
:10022000580B000008B5034B1BB103490348AFF35B
:10023000008008BD0000000040040020580B0000B2
:10024000154B002B08BF134B9D46A3F5803A0021A8
:100250008B460F461348144A121A00F05FF80F4BF2
:10026000002B00D098470E4B002B00D09847002061
:10027000002104000D000D48002802D00C4800F0B9
:10028000FFF800F027F82000290000F063F900F0E3
:1002900011F800BF0000080000000420000000006A
:1002A000000000003C0400207C04002081040000C9
:1002B0008D04000008B50021044600F089F8044BC5
:1002C0001868C36B03B19847204600F041F900BF9E
:1002D000540B000070B50D4E0D4D761BB61006D0B8
:1002E0000024013455F8043B9847A642F9D1094E41
:1002F000094D761B00F022FCB61006D00024013414
:1003000055F8043B9847A642F9D170BD300400204F
:10031000300400203804002030040020F0B48607A8
:1003200046D0541E002A3CD0CAB2034602E014F163
:10033000FF3436D303F8012B9D07F8D1032C29D9BC
:10034000CDB245EA05250F2C45EA054533D9A4F180
:100350001006360903F1200707EB061703F1100218
:1003600042E9045542E902551032BA42F8D1721CF2
:1003700014F00C0F03EB021204F00F0613D0331F1E
:1003800023F003030433134442F8045B9342FBD18C
:1003900006F003042CB1C9B21C4403F8011B9C42B3
:1003A000FBD1F0BC704734461346002CF3D1F8E77C
:1003B00014460346C2E71A462646E0E7024B13B14D
:1003C000024800F05DB87047000000008D04000096
:1003D0002DE9F04F284B83B00F460190186800F0CC
:1003E0006FF8264BD3F800A04FF00009DAF8486107
:1003F0008EB17468651E0ED4013406EB84044FF090
:1004000001087FB1D4F80031BB420BD0013D6B1C19
:10041000A4F10404F5D1184B186803B0BDE8F04FFF
:1004200000F050B873682268013BAB420CBF7560A6
:10043000C4F80090002AE9D0D6F88811D6F804B0A4
:1004400008FA05FC1CEA010F08D1904772685A456A
:10045000CCD1DAF84831B342D8D0C7E7D6F88C31DE
:10046000D4F880101CEA030F02D101989047EDE701
:1004700008469047EAE700BF28040020540B00001C
:10048000002301461A46184600F01EB838B50A4C3B
:100490000A4D641BA4100AD004F18043013B05EB14
:1004A0008305013C55F804399847002CF9D1BDE883
:1004B000384000F049BB00BF3C0400203804002055
:1004C000704700BF704700BF2DE9F0411E4C054644
:1004D000206890461F460E46FFF7F2FF1B4B1A6836
:1004E000D2F8483133B35A6820681F2A27DC4DB947
:1004F000911C01325A6043F82160FFF7E3FF0020AE
:10050000BDE8F08103EB82010124C1F8888004FA80
:1005100002FED3F88841022D44EA0E0CC3F888C1CC
:10052000C1F80871E4D1D3F88C114EEA0104C3F884
:100530008C41DDE702F5A673C2F84831D3E7FFF737
:10054000C1FF4FF0FF30DBE728040020540B000010
:10055000FEE700BF80B400AFFEE700000649074A8F
:10056000074B9B1A03DD043BC858D050FBDC00F05E
:10057000F3F9FFF765FE0000640B000000000020A7
:100580003C040020FEE7FEE7FEE7FEE7FEE7FEE7AD
:10059000FEE7FEE7FEE7FEE780B483B000AF184B4E
:1005A0001B687B60174B1B683B607B68082B1FD167
:1005B0003B68052B1AD801A252F823F0D50500009C
:1005C000D9050000DD050000E1050000E50500009B
:1005D000E905000001230CE001230AE0012308E003
:1005E000012306E0002304E0002302E0002300E0F2
:1005F000002318460C37BD465DF8047B704700BFEA
:10060000300100103401001080B483B000AF184BEB
:100610001B687B60174B1B683B607B68082B1FD1F6
:100620003B68052B1AD801A252F823F045060000BA
:10063000490600004D060000510600005506000066
:100640005906000001230CE001230AE0012308E021
:10065000012306E0002304E0002302E0002300E081
:10066000002318460C37BD465DF8047B704700BF79
:10067000300100103401001080B483B000AF184B7B
:100680001B687B60174B1B683B607B68082B1FD186
:100690003B68052B1AD801A252F823F0B5060000DA
:1006A000B9060000BD060000C1060000C506000036
:1006B000C906000001230CE000230AE0002308E043
:1006C000002306E0002304E0002302E0002300E012
:1006D000002318460C37BD465DF8047B704700BF09
:1006E000300100103401001080B483B000AF184B0B
:1006F0001B687B60174B1B683B607B68082B1FD116
:100700003B68052B1AD801A252F823F025070000F8
:10071000290700002D070000310700003507000001
:100720003907000001230CE000230AE0002308E061
:10073000002306E0002304E0002302E0002300E0A1
:10074000002318460C37BD465DF8047B704700BF98
:10075000300100103401001080B483B000AF184B9A
:100760001B687B60174B1B683B607B68082B1FD1A5
:100770003B68052B1AD801A252F823F09507000018
:10078000990700009D070000A1070000A5070000D1
:10079000A907000001230CE000230AE0002308E081
:1007A000002306E0002304E0002302E0002300E031
:1007B000002318460C37BD465DF8047B704700BF28
:1007C000300100103401001080B483B000AF184B2A
:1007D0001B687B60174B1B683B607B68082B1FD135
:1007E0003B68052B1AD801A252F823F00508000037
:1007F000090800000D08000011080000150800009D
:100800001908000001230CE000230AE0002308E09F
:10081000002306E0002304E0002302E0002300E0C0
:10082000002318460C37BD465DF8047B704700BFB7
:10083000300100103401001080B483B000AF184BB9
:100840001B687B60174B1B683B607B68082B1FD1C4
:100850003B68052B1AD801A252F823F07508000056
:10086000790800007D08000081080000850800006C
:100870008908000001230CE001230AE0012308E0BD
:10088000012306E0002304E0002302E0002300E04F
:10089000002318460C37BD465DF8047B704700BF47
:1008A000300100103401001080B483B000AF184B49
:1008B0001B687B60174B1B683B607B68082B1FD154
:1008C0003B68052B1AD801A252F823F0E508000076
:1008D000E9080000ED080000F1080000F50800003C
:1008E000F908000000230CE000230AE0002308E0E0
:1008F000002306E0012304E0012302E0012300E0DD
:10090000002318460C37BD465DF8047B704700BFD6
:10091000300100103401001080B500AFFFF7C4FFB4
:100920000346002B07D04FF010234FF08042D3F83E
:100930000832C2F8583500BF80BD000080B400AF57
:10094000034B044A1A6000BFBD465DF8047B704744
:100950002C0400200090D00380B500AFFFF71CFEF0
:100960000346002B0ED04FF080430022C3F80C2129
:100970004FF080430022C3F810214FF08043002243
:10098000C3F83825FFF740FE0346002B76D04FF022
:100990008053624AD3F80434C2F820354FF08053B4
:1009A0005E4AD3F80834C2F824354FF080535B4ACE
:1009B000D3F80C34C2F828354FF08053574AD3F897
:1009C0001034C2F82C354FF08053544AD3F8143405
:1009D000C2F830354FF08053504AD3F81834C2F87B
:1009E00034354FF080534D4AD3F81C34C2F84035AB
:1009F0004FF08053494AD3F82034C2F844354FF0C1
:100A00008053464AD3F82434C2F848354FF0805317
:100A1000424AD3F82834C2F84C354FF080533F4A4D
:100A2000D3F82C34C2F850354FF080533B4AD3F8FA
:100A30003034C2F854354FF08053384AD3F8343448
:100A4000C2F860354FF08053344AD3F83834C2F8D6
:100A500064354FF08053314AD3F83C34C2F86835DE
:100A60004FF080532D4AD3F84034C2F86C354FF024
:100A700080532A4AD3F84434C2F87035FFF7FCFD9E
:100A80000346002B02D0264B264A1A60FFF72CFEA5
:100A90000346002B03D0244BFB22C3F81825FFF795
:100AA0005BFE0346002B0AD0204B1B6823F00F028D
:100AB0001F4B1B6803F00F031C4913430B60FFF728
:100AC00083FE0346002B03D01A4B4FF400721A60CA
:100AD000FFF7B2FE0346002B0DD04FF08043D3F852
:100AE000003403F00103002B05D04FF080436FF07A
:100AF0000102C3F80024104BD3F888300E4A43F4A7
:100B00007003C2F88830BFF34F8FBFF36F8FFFF7CA
:100B100003FFFFF713FF00BF80BD00BF00C0004010
:100B20008C5600404881030000F00040E40E004075
:100B3000580200104096024000ED00E0F8B500BFFA
:100B4000F8BC08BC9E467047F8B500BFF8BC08BCAE
:0C0B50009E4670470000002000000000DE
:080B5C00E4F6FF7F0100000038
:100B640000000000EC02002054030020BC0300201D
:100B74000000000000000000000000000000000071
:100B84000000000000000000000000000000000061
:100B94000000000000000000000000000000000051
:100BA4000000000000000000000000000000000041
:100BB4000000000000000000000000000000000031
:100BC4000000000000000000000000000000000021
:100BD4000000000000000000000000000000000011
:100BE4000000000000000000000000000000000001
:100BF40000000000000000000000000000000000F1
:100C040000000000000000000100000000000000DF
:100C14000E33CDAB34126DE6ECDE05000B000000A4
:100C240000000000000000000000000000000000C0
:100C340000000000000000000000000000000000B0
:100C440000000000000000000000000000000000A0
:100C54000000000000000000000000000000000090
:100F84000000000000000000580400200090D0037E
:0C0F9400BD030000250200000102000067
:040000030000055D97
:00000001FF
