:10000000000004206907000091070000930700002A
:100010009507000097070000990700009B07000064
:100020000000000000000000000000009D0700002C
:100030009F07000000000000A1070000A3070000C8
:10004000A5070000A507000000000000A5070000AC
:1000500000000000A50700000000000000000000F4
:10006000A5070000A5070000A5070000A5070000E0
:10007000A5070000A5070000A5070000A5070000D0
:10008000A5070000A5070000000000000000000018
:10009000A5070000A5070000000000000000000008
:1000A000A5070000A5070000A5070000A5070000A0
:1000B000A5070000A5070000A5070000A507000090
:1000C000A5070000A5070000A5070000A507000080
:1000D000A507000000000000A507000000000000C8
:1000E000A507000000000000A5070000A50700000C
:1000F00000000000A507000000000000A5070000A8
:10010000000000000000000000000000A507000043
:10011000A507000000000000A5070000A5070000DB
:1001200000000000A5070000000000000000000023
:1001300000000000000000000000000000000000BF
:1001400000000000000000000000000000000000AF
:10015000A5070000000000000000000000000000F3
:10016000000000000000000000000000000000008F
:10017000000000000000000000000000000000007F
:10018000000000000000000000000000000000006F
:10019000000000000000000000000000000000005F
:1004000010B5054C237833B9044B13B1044800E010
:1004100000BF0123237010BD3C0400200000000039
:10042000440C000008B5034B1BB10349034800E02E
:1004300000BF08BD0000000040040020440C000084
:10044000154B002B08BF134B9D46A3F5803A0021A6
:100450008B460F461348144A121A00F05FF80F4BF0
:10046000002B00D098470E4B002B00D0984700205F
:10047000002104000D000D48002802D00C4800F0B7
:10048000FDF800F027F82000290000F061F900F0E5
:1004900011F800BF00000800000004200000000068
:1004A000000000003C0400207C0400207D060000C9
:1004B0008906000008B50021044600F089F8044BC5
:1004C0001868C36B03B19847204600F03FF900BF9E
:1004D000400C000070B50D4E0D4D761BB61006D0C9
:1004E0000024013455F8043B9847A642F9D1094E3F
:1004F00000F09AFB084D761BB61006D0002401349C
:1005000055F8043B9847A642F9D170BD300400204D
:10051000300400203804002030040020F0B48607A6
:1005200046D0541E002A3CD0CAB2034602E014F161
:10053000FF3436D303F8012B9D07F8D1032C29D9BA
:10054000CDB20F2C45EA052545EA054533D9A4F17E
:10055000100603F1200703F11002360907EB061716
:1005600042E9045542E902551032BA42F8D1721CF0
:1005700014F00C0F04F00F0603EB021213D0331F1C
:1005800023F003030433134442F8045B9342FBD18A
:1005900006F003042CB1C9B21C4403F8011B9C42B1
:1005A000FBD1F0BC704734461346002CF3D1F8E77A
:1005B00014460346C2E71A462646E0E7024B13B14B
:1005C000024800F05BB87047000000008906000098
:1005D0002DE9F04F274B83B00F464FF000090190F3
:1005E000186800F06BF8244BD3F800A0DAF84861E3
:1005F00086B17468651E0DD401344FF0010806EB16
:10060000840477B1D4F80031BB420AD0013D043CE8
:100610006B1CF6D1174B186803B0BDE8F04F00F023
:100620004FB873682268013BAB420CBF7560C4F8D9
:100630000090002AEAD008FA05FCD6F88811D6F80E
:1006400004B01CEA010F08D1904772685A45CDD119
:10065000DAF84831B342D9D0C8E7D6F88C31D4F8AB
:1006600080101CEA030F02D101989047EDE708467D
:100670009047EAE728040020400C000000230146D0
:100680001A46184600F01EB838B50A4C0A4D641BCD
:10069000A4100AD06FF04043234405EB8305013CCE
:1006A00055F804399847002CF9D1BDE8384000F0DE
:1006B000C1BA00BF3C04002038040020704700BFCE
:1006C000704700BF2DE9F0411E4C054690461F467D
:1006D00020680E46FFF7F2FF1B4B1A68D2F848312C
:1006E00033B35A6820681F2A27DC4DB9511C0232E7
:1006F000596043F82260FFF7E3FF0020BDE8F08176
:1007000003EB82010124022DC1F8888004FA02FE65
:10071000D3F8884144EA0E0CC3F888C1C1F80871C7
:10072000E4D1D3F88C114EEA0104C3F88C41DDE723
:1007300002F5A673C2F84831D3E7FFF7C1FF4FF0C7
:10074000FF30DBE728040020400C0000FEE700BF7C
:1007500080B400AF024B034AC3F84425FEE700BF54
:1007600000600040FA50FA500649074A074B9B1AAE
:1007700003DD043BC858D050FBDC00F09FF9FFF7C5
:100780005FFE0000500C0000000000203C04002030
:10079000FEE7FEE7FEE7FEE7FEE7FEE7FEE7FEE731
:1007A000FEE7FEE7FEE700BF80B483B000AF154B65
:1007B0001B687B60144B1B683B607B68072B19D15F
:1007C0003B68023B032B13D801A252F823F000BF71
:1007D000E1070000E5070000E9070000ED07000061
:1007E000012308E0002306E0002304E0002302E0E8
:1007F000002300E0002318460C37BD465DF8047B5B
:10080000704700BF3001FF003401FF0080B483B0A7
:1008100000AF154B1B687B60144B1B683B607B680B
:10082000072B19D13B68023B032B13D801A252F8C6
:1008300023F000BF45080000490800004D080000F3
:1008400051080000012308E0012306E0012304E031
:10085000012302E0012300E0002318460C37BD46C7
:100860005DF8047B704700BF3001FF003401FF00DA
:1008700080B483B000AF154B1B687B60144B1B68C2
:100880003B607B68072B19D13B68023B032B13D8D5
:1008900001A252F823F000BFA9080000AD08000033
:1008A000B1080000B5080000012308E0002306E0BD
:1008B000002304E0002302E0002300E000231846A8
:1008C0000C37BD465DF8047B704700BF3001FF0068
:1008D0003401FF0080B483B000AF154B1B687B6010
:1008E000144B1B683B607B68072B19D13B68023BAC
:1008F000032B13D801A252F823F000BF0D0900000A
:10090000110900001509000019090000012308E081
:10091000012306E0012304E0012302E0012300E0BB
:10092000002318460C37BD465DF8047B704700BFB6
:100930003001FF003401FF0080B483B000AF154BDD
:100940001B687B60144B1B683B607B68072B19D1CD
:100950003B68023B032B13D801A252F823F000BFDF
:100960007109000075090000790900007D09000087
:10097000012308E0002306E0002304E0002302E056
:10098000002300E0002318460C37BD465DF8047BC9
:10099000704700BF3001FF003401FF0080B483B016
:1009A00000AF154B1B687B60144B1B683B607B687A
:1009B000072B19D13B68023B032B13D801A252F835
:1009C00023F000BFD5090000D9090000DD090000AF
:1009D000E1090000012308E0002306E0002304E011
:1009E000002302E0002300E0002318460C37BD4638
:1009F0005DF8047B704700BF3001FF003401FF0049
:100A000080B483B000AF154B1B687B60144B1B6830
:100A10003B607B68072B19D13B68023B032B13D843
:100A200001A252F823F000BF390A00003D0A00007D
:100A3000410A0000450A0000012308E0002306E007
:100A4000002304E0002302E0002300E00023184616
:100A50000C37BD465DF8047B704700BF3001FF00D6
:100A60003401FF0080B400AF074B084A1B68C2F88E
:100A70004435054B054ADB69C2F84C3500BFBD461D
:100A80005DF8047B704700BF0080FF0000600050ED
:100A900080B400AF4FF05023D3F8583503F0030370
:100AA000044A22FA03F3044A136000BFBD465DF80E
:100AB000047B70470020A1072C04002080B582B081
:100AC00000AFFFF79DFF0346002B0CD04E4B1B6879
:100AD000002B08D14C4B0D221A604C4B01221A609E
:100AE0004A4B00221A6000237B6000237B6010E0E9
:100AF0004FF47F014FF47F027B68603352F833205C
:100B00007B686033DB000B445B6813607B680133F8
:100B10007B607B681F2B08D84FF47F027B686033B3
:100B200052F83330B3F1FF3FE2D1FFF705FF034640
:100B3000002B05D0364B29221A60364B03221A604F
:100B4000FFF732FE0346002B07D0334B334A1A60BF
:100B50004FF050230122C3F85825FFF757FE0346F4
:100B6000002B02D02E4B00221A60FFF781FE0346B5
:100B7000002B11D04FF05023D3F8003403F00103C1
:100B8000002B09D04FF050230022C3F814214FF05E
:100B900050230022C3F81821FFF79CFE0346002BC8
:100BA0000DD04FF05023D3F8003403F00103002B95
:100BB00005D04FF050236FF00102C3F80024FFF777
:100BC000EDFE0346002B02D0114B65221A60154B37
:100BD000D3F88C30134A43F44063C2F88C30FFF7EB
:100BE00041FF104BD3F888300E4A43F47003C2F82B
:100BF0008830BFF34F8FBFF36F8FFFF749FF00BF00
:100C00000837BD4680BD00BF204A00501C49005037
:100C10000C4700503C470050309503504400EFBE55
:100C20004C25035000ED00E0F8B500BFF8BC08BC4F
:100C30009E467047F8B500BFF8BC08BC9E4670479A
:080C400000000020000000008C
:080C4800F8F7FF7F0100000036
:100C500000000000EC02002054030020BC03002030
:100C60000000000000000000000000000000000084
:100C70000000000000000000000000000000000074
:100C80000000000000000000000000000000000064
:100C90000000000000000000000000000000000054
:100CA0000000000000000000000000000000000044
:100CB0000000000000000000000000000000000034
:100CC0000000000000000000000000000000000024
:100CD0000000000000000000000000000000000014
:100CE0000000000000000000000000000000000004
:100CF00000000000000000000100000000000000F3
:100D00000E33CDAB34126DE6ECDE05000B000000B7
:100D100000000000000000000000000000000000D3
:100D200000000000000000000000000000000000C3
:100D300000000000000000000000000000000000B3
:100D400000000000000000000000000000000000A3
:101070000000000000000000580400200090D00391
:0C108000BD050000250400000104000074
:040000030000076989
:00000001FF
