:020000040100F9
:1000000000000121AD050001D5050001D705000163
:10001000D9050001DB050001DD050001000000003D
:10002000000000000000000000000000DF050001EB
:10003000E105000100000000E3050001E505000105
:1000400000000000000000000000000000000000B0
:1000500000000000E70500010000000000000000B3
:10006000E7050001E7050001E7050001E7050001DC
:10007000E7050001E7050001E705000100000000B9
:10008000E7050001E7050001E7050001E7050001BC
:10009000E705000100000000E70500010000000086
:1000A000E7050001E7050001E7050001E70500019C
:1000B000E7050001E7050001000000000000000066
:1000C0000000000000000000000000000000000030
:1000D0000000000000000000000000000000000020
:1000E0000000000000000000000000000000000010
:1000F0000000000000000000000000000000000000
:1001000000000000000000000000000000000000EF
:1001100000000000000000000000000000000000DF
:1001200000000000000000000000000000000000CF
:1001300000000000000000000000000000000000BF
:1001400000000000000000000000000000000000AF
:10015000000000000000000000000000000000009F
:10016000000000000000000000000000000000008F
:10017000000000000000000000000000000000007F
:10018000000000000000000000000000000000006F
:10019000000000000000000000000000000000005F
:1001A000000000000000000000000000000000004F
:1001B000000000000000000000000000000000003F
:1001C000000000000000000000000000000000002F
:1001D000000000000000000000000000000000001F
:1001E000000000000000000000000000000000000F
:1001F00000000000000000000000000000000000FF
:1002000000000000000000000000000000000000EE
:1002100000000000000000000000000000000000DE
:1002200000000000000000000000000000000000CE
:1002300000000000000000000000000000000000BE
:100240000000000010B5054C237833B9044B13B1FE
:10025000044800E000BF0123237010BD3C040021CE
:1002600000000000A807000108B5034B1BB10349BB
:10027000034800E000BF08BD00000000400400216A
:10028000A8070001154B002B08BF134B9D46A3F593
:10029000803A00218B460F461348144A121A00F088
:1002A0005FF80F4B002B00D098470E4B002B00D06F
:1002B00098470020002104000D000D48002802D0BE
:1002C0000C4800F0FDF800F027F82000290000F0AD
:1002D00061F900F011F800BF0000080000000121E2
:1002E00000000000000000003C0400217C0400210C
:1002F000C1040001CD04000108B50021044600F04E
:1003000089F8044B1868C36B03B19847204600F086
:100310003FF900BFA407000170B50D4E0D4D761BCF
:10032000B61006D00024013455F8043B9847A64285
:10033000F9D1094E00F02AFA084D761BB61006D006
:100340000024013455F8043B9847A642F9D170BD0A
:100350003004002130040021380400213004002141
:10036000F0B4860746D0541E002A3CD0CAB20346D9
:1003700002E014F1FF3436D303F8012B9D07F8D1C6
:10038000032C29D9CDB20F2C45EA052545EA0545B0
:1003900033D9A4F1100603F1200703F11002360946
:1003A00007EB061742E9045542E902551032BA42FA
:1003B000F8D1721C14F00C0F04F00F0603EB0212BC
:1003C00013D0331F23F003030433134442F8045BB8
:1003D0009342FBD106F003042CB1C9B21C4403F8CC
:1003E000011B9C42FBD1F0BC704734461346002CE5
:1003F000F3D1F8E714460346C2E71A462646E0E77B
:10040000024B13B1024800F05BB8704700000000D7
:10041000CD0400012DE9F04F274B83B00F464FF07C
:1004200000090190186800F06BF8244BD3F800A085
:10043000DAF8486186B17468651E0DD401344FF056
:10044000010806EB840477B1D4F80031BB420AD02E
:10045000013D043C6B1CF6D1174B186803B0BDE896
:10046000F04F00F04FB873682268013BAB420CBFFD
:100470007560C4F80090002AEAD008FA05FCD6F8A6
:100480008811D6F804B01CEA010F08D190477268B1
:100490005A45CDD1DAF84831B342D9D0C8E7D6F8B9
:1004A0008C31D4F880101CEA030F02D101989047D8
:1004B000EDE708469047EAE728040021A407000179
:1004C000002301461A46184600F01EB838B50A4CFB
:1004D0000A4D641BA4100AD06FF04043234405EB7F
:1004E0008305013C55F804399847002CF9D1BDE843
:1004F000384000F051B900BF3C040021380400210D
:10050000704700BF704700BF2DE9F0411E4C054603
:1005100090461F4620680E46FFF7F2FF1B4B1A68F5
:10052000D2F8483133B35A6820681F2A27DC4DB906
:10053000511C0232596043F82260FFF7E3FF0020AC
:10054000BDE8F08103EB82010124022DC1F888800F
:1005500004FA02FED3F8884144EA0E0CC3F888C1BD
:10056000C1F80871E4D1D3F88C114EEA0104C3F844
:100570008C41DDE702F5A673C2F84831D3E7FFF7F7
:10058000C1FF4FF0FF30DBE728040021A407000182
:10059000FEE700BF80B400AF024B034AC3F8442516
:1005A000FEE700BF00600041FA50FA500649074AD2
:1005B000074B9B1A03DD043BC858D050FBDC00F00E
:1005C00091F8FFF75FFE0000B40700010000002172
:1005D0003C040021FEE7FEE7FEE7FEE7FEE7FEE75C
:1005E000FEE7FEE7FEE7FEE780B483B000AF144B02
:1005F0001B687B60134B1B683B607B68072B19D122
:100600003B68023B032B13D801A252F823F000BF32
:100610002106000125060001290600012D06000122
:10062000012308E0002306E0002304E0002302E0A9
:10063000002300E0002318460C37BD4680BC7047FD
:100640003001FF013401FF0180B483B000AF144BCF
:100650001B687B60134B1B683B607B68072B19D1C1
:100660003B68023B032B13D801A252F823F000BFD2
:100670008106000185060001890600018D06000142
:10068000012308E0012306E0012304E0012302E046
:10069000012300E0002318460C37BD4680BC70479C
:1006A0003001FF013401FF0180B400AF044B054A63
:1006B0001B68C2F8443500BFBD4680BC704700BF10
:1006C0000080FF010060004180B400AF034B044A8A
:1006D0001A6000BFBD4680BC704700BF2C040021DB
:1006E0000090D00380B582B000AF00237B60002370
:1006F0007B600EE02349234A7B68603352F8332045
:100700007B686033DB000B445B6813607B680133FC
:100710007B607B681F2B07D81A4A7B68603352F8CE
:100720003330B3F1FF3FE5D1FFF75EFF0346002B07
:100730000ED0154BD3F8003403F00103002B07D083
:10074000114B0022C3F814210F4B0022C3F81821CB
:10075000FFF77AFF0346002B0BD00B4BD3F8003486
:1007600003F00103002B04D0074B6FF00102C3F824
:100770000024FFF799FFFFF7A7FF00BF0837BD462A
:1007800080BD00BF0000FF0100500041F8B500BF70
:10079000F8BC08BC9E467047F8B500BFF8BC08BC62
:0C07A0009E467047000000210000000091
:0807AC00D8FAFF7F01000000F4
:1007B40000000000EC02002154030021BC030021CE
:1007C4000000000000000000000000000000000025
:1007D4000000000000000000000000000000000015
:1007E4000000000000000000000000000000000005
:1007F40000000000000000000000000000000000F5
:1008040000000000000000000000000000000000E4
:1008140000000000000000000000000000000000D4
:1008240000000000000000000000000000000000C4
:1008340000000000000000000000000000000000B4
:1008440000000000000000000000000000000000A4
:100854000000000000000000010000000000000093
:100864000E33CDAB34126DE6ECDE05000B00000058
:100874000000000000000000000000000000000074
:100884000000000000000000000000000000000064
:100894000000000000000000000000000000000054
:1008A4000000000000000000000000000000000044
:100BD4000000000000000000580400210090D00331
:0C0BE4000104000169020001450200014B
:04000005010005AD44
:00000001FF
