:020000040000FA
:10C000003DB8F3960000000000020000F08F000031
:10C010000000000000000000000000000000000020
:10C02000FFFFFFFFFFFFFFFFFFFFFFFFFFFFFFFF20
:10C03000FFFFFFFFFFFFFFFFFFFFFFFFFFFFFFFF10
:10C04000FFFFFFFFFFFFFFFFFFFFFFFFFFFFFFFF00
:10C05000FFFFFFFFFFFFFFFFFFFFFFFFFFFFFFFFF0
:10C06000FFFFFFFFFFFFFFFFFFFFFFFFFFFFFFFFE0
:10C07000FFFFFFFFFFFFFFFFFFFFFFFFFFFFFFFFD0
:10C08000FFFFFFFFFFFFFFFFFFFFFFFFFFFFFFFFC0
:10C09000FFFFFFFFFFFFFFFFFFFFFFFFFFFFFFFFB0
:10C0A000FFFFFFFFFFFFFFFFFFFFFFFFFFFFFFFFA0
:10C0B000FFFFFFFFFFFFFFFFFFFFFFFFFFFFFFFF90
:10C0C000FFFFFFFFFFFFFFFFFFFFFFFFFFFFFFFF80
:10C0D000FFFFFFFFFFFFFFFFFFFFFFFFFFFFFFFF70
:10C0E000FFFFFFFFFFFFFFFFFFFFFFFFFFFFFFFF60
:10C0F000FFFFFFFFFFFFFFFFFFFFFFFFFFFFFFFF50
:10C10000FFFFFFFFFFFFFFFFFFFFFFFFFFFFFFFF3F
:10C11000FFFFFFFFFFFFFFFFFFFFFFFFFFFFFFFF2F
:10C12000FFFFFFFFFFFFFFFFFFFFFFFFFFFFFFFF1F
:10C13000FFFFFFFFFFFFFFFFFFFFFFFFFFFFFFFF0F
:10C14000FFFFFFFFFFFFFFFFFFFFFFFFFFFFFFFFFF
:10C15000FFFFFFFFFFFFFFFFFFFFFFFFFFFFFFFFEF
:10C16000FFFFFFFFFFFFFFFFFFFFFFFFFFFFFFFFDF
:10C17000FFFFFFFFFFFFFFFFFFFFFFFFFFFFFFFFCF
:10C18000FFFFFFFFFFFFFFFFFFFFFFFFFFFFFFFFBF
:10C19000FFFFFFFFFFFFFFFFFFFFFFFFFFFFFFFFAF
:10C1A000FFFFFFFFFFFFFFFFFFFFFFFFFFFFFFFF9F
:10C1B000FFFFFFFFFFFFFFFFFFFFFFFFFFFFFFFF8F
:10C1C000FFFFFFFFFFFFFFFFFFFFFFFFFFFFFFFF7F
:10C1D000FFFFFFFFFFFFFFFFFFFFFFFFFFFFFFFF6F
:10C1E000FFFFFFFFFFFFFFFFFFFFFFFFFFFFFFFF5F
:10C1F000FFFFFFFFFFFFFFFFFFFFFFFFFFFFFFFF4F
:10C2000088320020A1E70000A728010001E8000013
:10C2100001E8000001E8000001E8000001E800007A
:10C22000000000000000000000000000FDE500002C
:10C2300001E8000000000000A1E500002328010043
:10C2400061E7000061E7000061E7000061E70000CE
:10C2500061E7000061E7000061E7000061E70000BE
:10C2600061E7000061E7000061E7000061E70000AE
:10C2700061E7000061E7000061E7000061E700009E
:10C2800061E7000061E7000061E7000061E700008E
:10C2900061E7000061E7000061E7000061E700007E
:10C2A00061E7000061E7000061E7000061E700006E
:10C2B00061E7000061E7000061E7000061E700005E
:10C2C00061E7000061E7000061E7000061E700004E
:10C2D00061E7000061E7000061E7000061E700003E
:10C2E00061E7000061E7000061E7000061E700002E
:10C2F00061E7000061E7000061E7000061E700001E
:10C3000061E7000061E7000061E7000061E700000D
:10C3100061E7000061E7000061E7000061E70000FD
:10C3200061E7000061E7000061E7000061E70000ED
:10C3300061E7000061E7000061E7000061E70000DD
:10C3400061E7000053B94AB9002908BF00281CBFA3
:10C350004FF0FF314FF0FF3000F088B9ADF1080C1D
:10C360006DE904CE00F006F8DDF804E0DDE9022313
:10C3700004B070472DE9F04F099D0E4604460F4664
:10C38000002B48D18A42944660D9B2FA82F252B167
:10C3900001FA02F3C2F120010CFA02FC944020FAE7
:10C3A00001F141EA03074FEA1C461FFA8CF1230C06
:10C3B000B7FBF6F006FB107743EA074300FB01F7F3
:10C3C0009F4208D91CEB030300F1FF3E02D29F42BB
:10C3D00000F239817046DB1BA4B2B3FBF6FE06FB0C
:10C3E0001E330EFB01F144EA0344A14208D91CEBC1
:10C3F00004040EF1FF3302D2A14200F21C819E46DA
:10C40000641A4EEA004000211DB1D4400023C5E962
:10C410000043BDE8F08F8B4208D9002D00F0FF806B
:10C420000021C5E900060846BDE8F08FB3FA83F1A4
:10C4300000294DD1B342C0F0F580824240F2F28033
:10C440000846002DE5D0C5E90047E2E702B9FFDE66
:10C45000B2FA82F2002A40F0A280A1EB0C034FEA6C
:10C460001C481FFA8CF70121200CB3FBF8FE08FBD7
:10C470001E3340EA034307FB0EF098420FD91CEB32
:10C4800003030EF1FF362CBF4FF001094FF00009F6
:10C49000984203D9B9F1000F00F0D180B6461B1ABB
:10C4A000A4B2B3FBF8F008FB103300FB07F744EA33
:10C4B0000344A74208D91CEB040400F1FF3302D265
:10C4C000A74200F2B5801846E41B40EA0E409BE705
:10C4D000C1F120078B4006FA01F422FA07FCFE4066
:10C4E0008A404CEA030C20FA07F34FEA1C491C432C
:10C4F0001FFA8CFE00FA01F3200CB6FBF9F809FBD9
:10C50000186640EA064608FB0EF0B0420FD91CEB55
:10C51000060608F1FF3A2CBF4FF0010B4FF0000B5D
:10C52000B04203D9BBF1000F00F09080D046361A1C
:10C53000A4B2B6FBF9F009FB106600FB0EFE44EA5C
:10C540000646B64508D91CEB060600F1FF3402D2B8
:10C55000B64500F28280204640EA0840A6EB0E066F
:10C56000A0FB0284A642C646A14602D307D143459A
:10C5700005D2B8EB020E64EB0C0201389146002D97
:10C5800071D0B3EB0E0266EB090622FA01F306FA4C
:10C5900007F7CE4000211F43C5E9007639E7C2F115
:10C5A00020000CFA02FC9140C64024FA00F34FEA46
:10C5B0001C4894400B431FFA8CF7B6FBF8F1180C9B
:10C5C00008FB116640EA064601FB07F0B0420ED9AF
:10C5D0001CEB060601F1FF3E2CBF4FF001094FF0A6
:10C5E0000009B04202D9B9F1000F33D07146361AB2
:10C5F0009BB2B6FBF8F008FB106643EA064300FB6B
:10C6000007F69E4207D91CEB030300F1FF3E01D25F
:10C610009E4225D870469B1B40EA014124E72946EB
:10C620002846F6E6841A66EB030301201F4608E756
:10C630006444023848E76444AEF1020EE0E6AEF12D
:10C64000020E63442BE702386344C4E6A8F10208F3
:10C6500066446CE702396644C9E7023866447BE702
:10C6600002386344D7E72946D3E600BF704700BFCE
:10C670000022044BC3F80821C3F81021C3F800219D
:10C68000704700BF00A002402DE9F0414FF47A76D8
:10C6900008F065F8B046A0FB064506FB0155E40B23
:10C6A0001A4F44EA4544ED0B08F059F8A0FB080383
:10C6B00006FB0131C00B40EA4140001B4FEAD1317B
:10C6C00061EB0501B0F5FA6F71F100030ADB0020A0
:10C6D0000146FFF7CDFFA8B9002908BF6FF004009D
:10C6E000BDE8F081D7F8080148B9D7F8101139B979
:10C6F000D7F80031002BD7D04FF0FF30E9E700200A
:10C700000121E6E74FF0FF30EAE700BF00A002405A
:10C7100010B5FFF7ADFF01220E4B04465A60FFF73C
:10C72000B3FF78B90C4B0D491B681A688A420AD0CE
:10C7300001318A420AD01B689C4203D0002C18BFEA
:10C740006FF0010010BD6FF00300FBE76FF0020017
:10C75000F8E700BF00A00240980600200100005A40
:10C76000014B1878704700BF000000202DE9F74FFB
:10C770008B1801904748013B834200F2888042F2C7
:10C780000B039A4240F283804348444B82429FBF4E
:10C790000C3A22F4FF5222F01F020C3294BF1A60AE
:10C7A000186018683E4BA0F10C021A6001233D4F3F
:10C7B00000223B70002300240725C7E90223C7E9B4
:10C7C0000423DFF8E4B0394BCBF80010C3F8A848D5
:10C7D00004F5E0720134202C43F82250F8D10822ED
:10C7E0004FF00208324B334DC3F81485C3F81C25B3
:10C7F00045F08072C3F810264FF000091022012680
:10C800004FF0040AC3F81496C3F89065C3F898A5CE
:10C81000C3F8A025FFF72CFFFFF72AFF6FF07F0377
:10C8200041F08071EB706960A86085F8009085F830
:10C830000190AE704FF0502505F0A4FAC5F810969F
:10C8400005F0A0FAC5F8106605F09CFAC5F8109638
:10C8500005F098FAFFF718FF054628B187F800A001
:10C86000284603B0BDE8F08FDBF80010124B0A68D1
:10C870009A4204D06FF0010587F800A0F0E7224645
:10C880000198043106F069F887F80080E8E76FF056
:10C890000505E5E7FFFF01200C000100A0060020D0
:10C8A0009C06002000000020980600200030005068
:10C8B00000A0024070010020010000A5F8B5144C52
:10C8C00006462378022B1CD1D4E904310025114FF0
:10C8D00042683F68D01841F10001874275EB0101C1
:10C8E00012D30D490868B168184406F036F8D4E947
:10C8F0000432284671685B1842F10002C4E9043230
:10C90000F8BD6FF00600FBE76FF00500F8E700BF29
:10C91000000000209C060020980600202DE9F0472A
:10C92000414C05462378032B77D10668002E77D03B
:10C93000D4E90432002753EA020108BFC4E90267C0
:10C94000D4E9021013EB010C42EB0000B84208BF1F
:10C95000B44508D10026354FDFF8D4806B689E427D
:10C960001AD3002016E01A43F4D00320304A12688C
:10C97000106051602F489360FFF7CAFE2B680022B9
:10C98000A3600023E3600023C4E904230028E1D06E
:10C9900004232370BDE8F0874FF0000CD4E90402B3
:10C9A00039689B1BB1EB000962EB420A4B457CEBFB
:10C9B0000A023CBF9946E246D8F80030A9680C3319
:10C9C00031444A46184405F0C8FFD4E904233968C5
:10C9D00019EB02024AEB03038A42C4E9042373F110
:10C9E00000034E44BAD30320D8F80030A168186081
:10C9F000596010489A60FFF78BFED4E90232216932
:10CA00005B18616942EB0102C4E902320022002393
:10CA1000C4E904230028A1D0BAE76FF00600B9E703
:10CA20006FF00500B6E700BF000000209C06002064
:10CA300098060020050000A5064A1378023B012B4A
:10CA400004D800200021C2E9040170476FF00600FD
:10CA5000704700BF0000002010B5134C2278931ED1
:10CA6000012B1DD8D4E904130B4303D10323002069
:10CA7000237010BD032A03BF0C4BA0681B68002065
:10CA800001BF1A60586099600948FFF741FE002213
:10CA90000023C4E904230028E8D004232370E8E736
:10CAA0006FF00600E5E700BF0000002098060020B8
:10CAB000050000A5F8B51F4E15463378032B33D17A
:10CAC000FFF7D6FD07231C4F01F1010C3A68002443
:10CAD0001360ACEB0003B3F5803F28BF4FF4803305
:10CAE00088420AD31CB354601448FFF711FE044671
:10CAF00098B1042333702046F8BD02EBC40ECEF883
:10CB000008001844CEF80C30ACEB0003B3F5803FBE
:10CB100028BF4FF480330134E2E7396820222846E9
:10CB2000043105F01AFFE6E76FF00604E3E76FF063
:10CB30000504E0E70000002098060020070000A59B
:10CB400038B50849054605F02BF9002304460022B4
:10CB5000284607F046F854EA000314BF02200020DC
:10CB600038BD00BF084D01002DE9F041B0B080464E
:10CB70008C2200210DA805F01BFF274B0222002666
:10CB800000270C93012325498DF8342018918DF846
:10CB900064200CA902AA08F11C00CDE90067CDE9C8
:10CBA0000267CDF838D08DF85C301A928DF88C3051
:10CBB00006F0BAFD044668BBDDE90003034329D053
:10CBC000DDE902130B4325D004AAFFF773FF20B160
:10CBD00030B0BDE8F04105F0DAB81149404605F043
:10CBE000DFF82022054604A9404607F008F80D4961
:10CBF0000543404605F0D4F83B46054332464046DF
:10CC000006F0EFFF55EA000318BF0224204630B0BB
:10CC1000BDE8F0810324F9E70B4D0100114D01003F
:10CC2000154D0100084D01002DE9F04FE3B0054618
:10CC30004FF4A87200210EA805F0BAFE0322594C49
:10CC400059495A4B269104F502710E9328914FF4DD
:10CC5000FC7357498DF83C208DF8CC2020224FF0F2
:10CC6000FF3032914FF0FF311893524B3C92524AB1
:10CC7000CDE90201C4E982011A93002002230021B8
:10CC800001273E920022CDE904018DF86C308DF829
:10CC90009C300DF104088DF8FC3004F10C0B04AB52
:10CCA0000DF1080A0DF118090EA905F11C004093B9
:10CCB000C4E90022CDF840B0CDF844D0CDF870A042
:10CCC0008DF894708DF8C470CDF8D090CDF8D480E4
:10CCD0008DF824710092C8F8002006F025FD04AB01
:10CCE000064620B10326304663B0BDE8F08FD4E994
:10CCF0008212B2F1FF3F08BFB1F1FF3FF2D04FF017
:10CD0000FF351B6805989D4276EB0000EAD32B4D5A
:10CD10002360009B51EA0200C4E9013B2B7832D129
:10CD20009BBBDAF80030039A84F81172B2F1FF3F2E
:10CD300008BFB3F1FF3FD5D0D8F80020202AD1D8C2
:10CD4000494605F10D002A73C5E901632F7005F00E
:10CD500004FED8F80020314602F10D002844C2F14B
:10CD6000200205F025FE62686B681344AA689342AE
:10CD7000B8D84FF0000204BF2A7001226B6084F81B
:10CD80001022002308E0002BACD0002368689A42F0
:10CD900008BF814203D0012384F81232A3E784F84C
:10CDA0001132E0E7A8020020254D01001C4D0100D2
:10CDB000294D0100214D01002D4D0100A406002048
:10CDC00038B50E49054604F0EBFF00220023044667
:10CDD000284606F006FF0A490443284604F0E0FF0F
:10CDE000084B04435A682846002306F0F2FE54EA32
:10CDF000000314BF0220002038BD00BF084D010011
:10CE0000254D0100A406002070B50446FFF7A8FCDC
:10CE1000042805461DD02046FFF706FFD0B9174E5F
:10CE200096F8123223B12046BDE87040FFF7C8BF24
:10CE30007368002BF7D096F8113233B1FFF7FCFD81
:10CE400018B1BDE8704004F0A2BF022D03D0032D3D
:10CE50000FD0062070BD0948FFF730FD0028F0D143
:10CE600096F81032002BDED0FFF7F6FD0028DAD05E
:10CE7000E7E70248FFF752FDF0E700BFA8020020F5
:10CE800000B589B0084942F20C026846FFF76EFC13
:10CE90000022064B0648C3E901221A701A7303F0F8
:10CEA00087FB09B05DF804FB340E0020A4060020C7
:10CEB0001800002013B503F075FB0222094C0A4B41
:10CEC000042101932046094B009205F007FCA36959
:10CED00003F50073A361E36903F5FC73E36102B03A
:10CEE00010BD00BFD4060020324D0100554D010099
:10CEF0002DE9F0430546079810B91060BDE8F083AE
:10CF00000324B0FBF4F404EB4407B84218BF013427
:10CF1000B4F1804F05D34FF0FF3313606FF00B0077
:10CF2000ECE7A40001348C4200D80DB91460F5E799
:10CF30002E460024DFF8B4E0BC4231469C4606F1A0
:10CF4000040603F1030329D3844222D2013484422C
:10CF500028BF00239CF80060244F38BF9CF80130A4
:10CF60004FEAA60C17F80CC0844281F800C007EB0A
:10CF7000131C2FBF3D239B0003F03C03FB5C3601D9
:10CF80008B703D2306F030061CF80660CB704E70A7
:10CF9000043100204D1B15600870AFE713F803CC77
:10CFA00013F8021C4FEAAC091EF809904FEA0C1C5A
:10CFB00013F8018C0CF0300C06F8049C0EEB1119E0
:10CFC00019F80CC0890006F803CC01F03C010EEB07
:10CFD000981C1CF8011008F03F0806F8021C1EF807
:10CFE0000810033406F8011CA6E700BFE14D01005C
:10CFF0008C4600212DE9F04307460D460846079E62
:10D00000DFF81881B5420AD32E4604E00135AE425E
:10D010000EF1010E05D190BB1060BDE8F0834FF01A
:10D02000000E5C5D202CF1D0AE42F4D0A6EB0509D9
:10D03000B9F1010F13D00D2C11D103EB050999F8AB
:10D040000190B9F10A0F18D0BEF1000F04D13D2CA8
:10D0500007D10131022907D96FF01500DDE70A2C4D
:10D06000F1E714F0800FF7D118F804407F2CF3D0CB
:10D070003F2C01D80029EFD101300135C2E74FF034
:10D08000060E00F00705C4080EFB05F50EFB04F4C0
:10D090000735641A04EBD5048FB164450FD800241A
:10D0A0009C461E4403203B462146DFF870E0DFF833
:10D0B0007080664507D1DB1B00201360ADE76FF081
:10D0C0000B001460A9E71CF8019BA9F10A05EDB259
:10D0D000162D03D828FA05F5ED07EAD41EF80950F5
:10D0E0000131402D08BF013805F03F05042945EA0C
:10D0F0008414DED178B1210C0128197002D10133DA
:10D100000021D6E702284FEA1421597016BF9C70FF
:10D1100002330333F4E70146CBE700BF614D010062
:10D12000090040000B6801330B60014B1B68184776
:10D1300024000020014B1860704700BF240000202D
:10D1400007B50B46002102460191034801A900F0F2
:10D15000E5F803B05DF804FB25D100002DE9F84F98
:10D16000B0F81890044619F0080893460DD001292C
:10D170000CBF49F0100949F02009A0F818908BF372
:10D180001188BFF36F8FBDE8F88F09F007090229F6
:10D1900007D1204604F06AFE0028F0D00128238B36
:10D1A0004ED16769218B002F15DA256821F0070120
:10D1B000C4E9008841F0010121830026218B01F0A0
:10D1C000070ACA4502D0A368002B5AD10DB9002E18
:10D1D00071D0002356E001F007035A1F012A1ED820
:10D1E00021F00701062B256889B2C4E900880AD11D
:10D1F0003DB12A46638B126801339BB2002AFAD1F3
:10D20000638341F002012046218304F02FFE06468D
:10D210000028D3D0238B43F020032383CDE7042BB6
:10D220000CD121F0070189B22046218304F01EFEB3
:10D2300005460028C1D041F0200121830025BCE72C
:10D24000032809D1226923F00703166843F0060377
:10D25000002523832F46B1E7042806D1226923F055
:10D260000703566843F00403F2E7052806D1226954
:10D2700023F00703966843F00503E9E700252E46EF
:10D28000E8E7012341F0080121838BF31188BFF304
:10D290006F8FFBB985BB16B120461F49B0474FF0D1
:10D2A0002003EFF3118B83F31188BFF36F8F238B70
:10D2B00023F008032383238BDA0625D5012123F0ED
:10D2C00010032383B4F8189009F0070900297FF4AC
:10D2D0005EAF54E7A1680029DCD0D1F800903B464E
:10D2E00052462046D1F804B0D847B9F1000FD1D04A
:10D2F0004946D9F80090F2E729463B465246204677
:10D300002D6804F0CFFDC5E713F020011EBF23F008
:10D31000200302212383D5E7D11E01002DE9F04F20
:10D320008B4692461C46002591B002909AF8000068
:10D3300008B928465DE325280AF1010707D05946B8
:10D34000029B98470028C0F25483013512E218224C
:10D3500000210AA805F02CFB9AF80130252B78D083
:10D3600000221046964694461646394617F8013B69
:10D370002B2B00F09D8000F29480202B00F09B80EE
:10D38000232B00F09B802EB19DF8306046F0040600
:10D390008DF83060BCF1000F05D09DF8306046F08C
:10D3A00008068DF83060BEF1000F05D09DF83060A2
:10D3B00046F010068DF8306028B19DF8300040F03E
:10D3C00020008DF830002AB19DF8302042F0400254
:10D3D0008DF830209DF8302002F04400442803D11D
:10D3E0006FF386128DF830209DF830202A2B42F002
:10D3F00080028DF830207BD19DF831204B1C42F00B
:10D4000001028DF831201A782E2A0CBF012100214B
:10D410009DF8312061F341028DF8312074D15A78A2
:10D420002A2A6AD000210A260133184610F8012B57
:10D43000A2F13007092F40F28E809DF830200E9126
:10D44000C2F3400040EAD17161F341028DF830200F
:10D450005AE00AF102078DF833309DF83130D907D0
:10D4600040F1498154F8049BB9F1000F07DA9DF8A7
:10D470003020C9F1000942F004028DF830205A072B
:10D4800040F1428154F8048BB8F1000F80F24181E1
:10D490009DF831306FF341038DF831304FF0FF3894
:10D4A00037E12D2B0CD0302B7FF46DAF01225CE7E0
:10D4B0004FF0010C59E74FF0010E56E7012054E7F9
:10D4C000012652E733460CFB0202303A1E4616F89C
:10D4D000010BA0F13007092FF4D9994293D09DF8A0
:10D4E00030100D92D20F62F341018DF830108AE7AF
:10D4F0000B4600224FF00A0CE8E79DF8312002337A
:10D5000042F004028DF831201F4617F8012B6C2AD7
:10D5100041D025D8682A2BD06A2A46D04C2A4CD034
:10D520001F4617F8012B9DF83130782A8DF83320EB
:10D5300000F2D980572A4DD8412A03D0453A022A11
:10D5400000F2D18004229DF8323062F302038DF89C
:10D55000323001239EE006FB01210346303964E7A7
:10D56000742A26D07A2ADBD106229DF831300DE0CC
:10D570005A78682A9DF8312006D1012161F3C6024C
:10D580008DF831209F1CCCE71346022262F3C603BC
:10D590008DF83130C5E75A786C2A9DF8312001D1D9
:10D5A0000421EBE713460322F0E705229DF8313012
:10D5B000ECE707229DF83130E8E7BDF8303023F47E
:10D5C000F04323F0020343F4804343F00203ADF839
:10D5D0003030A6E7A2F15801202900F2848001A092
:10D5E00050F821F0A9D60000E7D60000E7D60000E9
:10D5F000E7D60000E7D60000E7D60000E7D6000037
:10D60000E7D60000E7D6000045D50000E7D60000C9
:10D61000A9D6000069D6000045D5000045D5000018
:10D6200045D50000E7D6000069D60000E7D6000027
:10D63000E7D60000E7D60000E7D60000B1D600002C
:10D64000A9D60000CDD60000E7D60000E7D600003E
:10D65000CDD60000E7D60000A9D60000E7D600002E
:10D66000E7D60000A9D6000001209DF8321003F093
:10D67000780360F30201402B8DF8321002BF9DF851
:10D68000301041F001018DF83010632A31D1003B98
:10D6900018BF01239DF83020C2F340010B4363F310
:10D6A00041028DF83020D8E602209DF83210DEE7E6
:10D6B00003219DF8322003F07803A3F1400061F3C9
:10D6C000020243428DF832204341E3E703219DF8F3
:10D6D000322013F0780F61F3020214BF01230023FC
:10D6E0008DF83220D6E79DF8303043F001038DF8F5
:10D6F00030300023CEE79DF93020002AACBF4FF038
:10D70000FF39DDF83490BAE69B077FF5C7AEDDF848
:10D7100038800023CDE90D339DF832309DF831106B
:10D7200003F00703012BC1F3C30138D1CB1E042B37
:10D7300022D8DFE803F003090921210054F8043B53
:10D74000DA17CDE90A3206E0073424F00704F4E8DA
:10D750000223CDE90A239DF8303013F0030654D09C
:10D760003B4652465946029804F026FF0028C0F274
:10D7700040810544BA46D9E554F8043B01294FEAF3
:10D78000E372CDE90A3205D19DF828300A930023CF
:10D790000B93E0E70229DED1BDF92830D0E7022B58
:10D7A00023D1CB1E042B13D8DFE803F0030A0A129F
:10D7B000120000232268201D0A920B930446CAE738
:10D7C000E01D20F00700F0E80223CDE90A23F5E789
:10D7D00054F8043B01290A934FF000030B93D3D074
:10D7E0000229B8D1BDF82830D0E7042B07D107347F
:10D7F00024F00704F4E80223CDE90A23ABE7032B66
:10D8000004BF54F8043B0A93A5E79DF83300782839
:10D81000B0D8622822D825283FF491AD5828A9D144
:10D82000DDE90A010DF1260300930CAA04AB04F014
:10D830007DFE8246B8F1000F0DF126000CDB9DF84D
:10D840003020A0EB0A036FF3861298458DF8302044
:10D8500002D9A8EB03030D9380463DE063381528F9
:10D8600088D801A252F820F0E9D800004DD9000074
:10D8700075D7000075D7000075D7000075D7000078
:10D880004DD9000075D7000075D7000075D700008E
:10D8900075D70000A7D9000075D9000079D900001C
:10D8A00075D7000075D70000C1D8000075D70000FB
:10D8B00075D9000075D7000075D7000075D9000034
:10D8C000B8F1000FDDF828A00ADB4146504605F00C
:10D8D0001EF800260AEB0008BAF1000F0CD149E748
:10D8E000504605F00DF8F4E700260A9B0DF1100AEA
:10D8F0008DF810300DF11108A8EB0A0306B10133C1
:10D900009DF83220D00668D5023352060D9948BFE3
:10D910000E9A0B4448BF9B18B9F1000F76DD9DF8B5
:10D920003020A9EB0309C2F38003039353076DD49E
:10D93000500661D546B159463046029B98470028AB
:10D9400057DB039B01351E46302356E01E070FD4DC
:10D9500013F0100618BF2026DDE90A23002BBFF6BE
:10D960005FAF524263EB43032D26CDE90A2357E70D
:10D970002B26F1E7002653E70A9840B30DF1260362
:10D980000093002104AB0CAA04F0D0FDBDF83230A6
:10D99000824603F0EF0343F4F04343F01003002604
:10D9A000ADF8323046E70A9B07293FF6E3AEDFE8E1
:10D9B00001F00C04060C08080C0C1D70DAE61D8042
:10D9C000D8E6EA17C3E90052D4E61D60D2E6DFF8D4
:10D9D000C8A006460AF105088EE7110748BF0133C3
:10D9E00093E7184603935946029B98470028039BE8
:10D9F00004DA11B0BDE8F08F20234D444A46002AD6
:10DA0000A5EB090109F1FF39EBDC0D4636B15946AA
:10DA10003046029B98470028EBDB01359DF83230F9
:10DA2000D90601D41A0706D559463020029B9847DB
:10DA30000028DEDB01359DF83230DB0607D559467C
:10DA40009DF83300029B98470028D2DB01350D9EDC
:10DA50002E44731B002B16DC43465246594602984F
:10DA600004F0AAFD0028C4DB0544A944A9EB050382
:10DA7000002B7FF77FAE59462020029B9847002855
:10DA8000B7DB0135F2E759463020029B9847002862
:10DA9000AFDB0135DDE700BF214E0100044608B5CC
:10DAA0004FF02002EFF3118382F31188BFF36F8FE1
:10DAB00004F0B9FE204600F08BFF034804F0C9F9DA
:10DAC00000F016FEFCE700BF274E01004FF02002D9
:10DAD000EFF3118382F31188BFF36F8F0121044AA2
:10DAE000C2F8401583F31188BFF36F8F0020704791
:10DAF0000090035020B1034B800143F0010318470D
:10DB0000704700BFB04A010084B004AB03E90700CE
:10DB10009DF80430062B07D10122044BC3F80025E1
:10DB2000BFF34F8F20BFFDE704B0704700400050A7
:10DB3000F8B505464FF02003EFF3118683F3118803
:10DB4000BFF36F8F094B1C685CB1094FD4E90132F8
:10DB5000002D08BF13460BB1387898472468002C75
:10DB6000F4D186F31188BFF36F8FF8BDF40600205F
:10DB7000FC060020084B10B51C685CB901221A6035
:10DB8000064B93E8070004F030FD2046BDE8104046
:10DB9000FFF7CEBF10BD00BF28000020FC0600200C
:10DBA000F0B585B06E46184C01460546304604F087
:10DBB00027FD96E8070084E807002078274600B391
:10DBC0000021124B19606B1C0DD016464FF4004C0F
:10DBD0000F480023E6FB0C010E4AFEF7B3FB0121C0
:10DBE000281A06F09EFD03F04FFA0120FFF7A0FF70
:10DBF00097E80700FFF788FFFFF7BCFF03F0FCFA88
:10DC0000207805B0F0BD00BFFC06002028000020F1
:10DC10003F420F0040420F0010B9024B1868704796
:10DC2000406970470807002038B50546064B1C6858
:10DC30000CB9204638BD2946206804F071FE002842
:10DC4000F7D06469F4E700BF08070020F8B506467E
:10DC50000C4600230A4F3D6825B95BB93C600020A3
:10DC60002660F8BD3146286804F05AFE20B12B46E4
:10DC70006D69F1E75C61F2E76FF04400F1E700BF26
:10DC80000807002010B5074802F012FD064C074BAC
:10DC90001860204601F088F82046FFF74BFA002074
:10DCA00010BD00BF504E0100B1DC00000C07002089
:10DCB0000A2838B50446074D04D1286883680D2129
:10DCC0005B68984728688368E1B25B68984720469C
:10DCD00038BD00BF0C07002070B50446064E45183D
:10DCE000AC4201D1002070BD306814F8011B83687C
:10DCF0005B689847F4E700BF1407002007B5019060
:10DD000001A9034806F0BFFA03B05DF804FB00BFA9
:10DD10000C0200202DE9F047364E8AB0364C07E061
:10DD2000206883685B6B8BB9206883689B698BB9BB
:10DD3000206883685B6C002B50D1206883681B6C63
:10DD4000002BEDD098470028EAD14AE098470028F8
:10DD5000EED0E9E7202202A9984707460028E7D03D
:10DD60004FF00008254C02ADB845D7DA337815F8E6
:10DD7000019B7BB9D4F800A0BAF1000F17D10022A3
:10DD800000231F4801A902F09BFD48B1C4F800A080
:10DD900001233370B9F10A0F1DD1002333701AE04B
:10DDA000019BC3F8040223603378002BF2D1206872
:10DDB000D0F80432B3F5007F04D3FFF79FFF0023B0
:10DDC0002360E5E75A1CB9F10A0F0344C0F80422A6
:10DDD00083F8049008D008F10108C5E798470028A7
:10DDE000ABD10AB0BDE8F08700232360054B1B6868
:10DDF0009847F0E7402E002014070020100700206D
:10DE00000C020020180700200023014A04F0BDBFC7
:10DE1000D9DC0000154B13B51860154802F048FC1A
:10DE2000144B04461860F8B18368DB6A03B1984765
:10DE3000A3681B6A0BB120469847A3689B6933B15E
:10DE4000012220460DF1070198470028F5D1A3686B
:10DE50002BB19B6C1BB10022204607499847A36851
:10DE60009B6A0BB12046984702B010BD18070020EE
:10DE7000574E01001407002015DD0000084B70B557
:10DE8000C31A0D4607499B100446594340220648D1
:10DE900004F051FC2B4601462046BDE8704018476F
:10DEA00030070020B76DDBB67C010020402373B53E
:10DEB0000B4C0093041B0B460D460A49A41061430A
:10DEC0000646094A094804F062FC011E05DA30469C
:10DED0002B4602B0BDE87040184702B070BD00BFCD
:10DEE00030070020B76DDBB6FF2701007C01002062
:10DEF00070B5002201210446052000F0ADFB05208D
:10DF000000F08CFB0F4801F0EDFE0F4B984215D14D
:10DF100005F0AFF926690D49304603F0F6FF0028F9
:10DF20000BDB012524690949356404F11C0003F069
:10DF3000ECFF002801DB0020E56470BD6FF00400F9
:10DF4000FBE700BF85DF00000000AD0B0C4B0100BC
:10DF500001460C2300224B43084870B5C4184033D7
:10DF6000D4E90E561844A26304F0D2FB2DB1324618
:10DF70002B46BDE870400248184770BD30070020AE
:10DF80007C01002010B1012804D07047034B1B6CAA
:10DF90005B0701D1FFF7DCBF704700BF30070020EF
:10DFA00008B54FF02003EFF3118183F31188BFF31D
:10DFB0006F8F124A136843F0020013F001031060E0
:10DFC0000CD04FF05022D2F80C34D2F80C2413F0BD
:10DFD000010303D00A4804F09BFB012381F311885D
:10DFE000BFF36F8F23B1BDE808400020FFF7B0BF3B
:10DFF0000120BDE8084005F047B900BF80070020B8
:10E00000700700201FB500220123CDE902236B46D3
:10E01000084ACDF800D0CDF804D004F0E9FB002880
:10E0200005DB4FF480420023684602F089FE05B00C
:10E030005DF804FB1D280100074BD3E8EF2F22F009
:10E040000201C3E8E01F0028F7D1D30702D4012062
:10E0500005F04AB9704700BF800700202DE9F04164
:10E06000012207463749D1E8EF3FC1E8E02F0028F9
:10E07000F9D133B9344935484B60CB608A6003F03D
:10E0800057FF7B1E012B2FD8012F07D14FF05023B4
:10E09000D3F81C3403F00303022B25D006F01DF93E
:10E0A000044618B92A4B1B78002B44D14FF02003AB
:10E0B000EFF3118683F31188BFF36F8F01244FF0C4
:10E0C0005025DFF89080D5F81834D5F81824D203FD
:10E0D0000CD503F00303022B01D0012F06D124B38A
:10E0E00086F31188BFF36F8FBDE8F081C4B130466D
:10E0F00000F00CFBD5F81835DBB2012BE3D1D5F8D5
:10E100000421002ADFD00022C5F80421D5F804211B
:10E110000222C5F818252022C8F88021AB60D2E77A
:10E120000021212003F032FAE4E74FF050230222CD
:10E13000C3F80423D8E74FF0502302220646C3F861
:10E140000823BCE784070020200700204C0700209C
:10E15000832E002000E100E0044A1368C81A20F072
:10E160007F400344136003F093BB00BF9807002077
:10E170002DE9F0474FF480374FF00009860000F199
:10E18000500406F15026A40006F58036A4B204F12E
:10E190005024D6F84035DFF86C8021F07F4504F537
:10E1A00080348740D8F804A5A3EB0A0323F07F430B
:10E1B0002AF07F42012BC6F8402502D1132006F039
:10E1C000D0FA0AF10202AB1A23F07F43B3F5000F35
:10E1D00088BF1546C4F80090236825F07F43C8F82F
:10E1E0004473C6F84035D8F804359A4506D0EB1A82
:10E1F000023B23F07F43B3F5000F01D8BDE8F08761
:10E200002B46CFE700500150F8B500252F46104CA3
:10E210002668104B05B1F8BDD3F80423D203FAD514
:10E22000D3F84021002AF6D0C3F84051D3F840215A
:10E230004FF48032C3F848230125D3F8401526B1A6
:10E24000002062682760B047E2E72660E3E700BF8E
:10E250008C0700200050015038B500254FF4803362
:10E260004FF400120C4C0121C4F80855C4F80433D3
:10E270000A4B1520C3F880212A4600F0EDF915203D
:10E2800000F0CCF90123064AA3600220236013604A
:10E29000FFF7E4FE284638BD0050015000E100E0E1
:10E2A00094070020134AB0F1FF3F14BF0346134602
:10E2B000013B002B1CDD9342A8BF13460E4AD2F847
:10E2C00004050E4A1168401A10F4000F18BF00230D
:10E2D00020F07F4201320A4813440A4A10600020AD
:10E2E0005060044A934294BFC9188918FFF740BF91
:10E2F0000023E3E7FFFF7F00005001509807002054
:10E3000059E100008C0700204FF02002EFF3118349
:10E3100082F31188BFF36F8F064AD2F80405064ACC
:10E320001268801A20F07F4083F31188BFF36F8F4B
:10E33000704700BF0050015098070020034610B5F9
:10E3400088B08DF807300DF1070302930123094AC5
:10E35000CDE9051310680393002207238DF81020E0
:10E360008DF81C30836802225C6802A94623A0470E
:10E3700008B010BD9C07002070B586B00E460DF1A8
:10E38000070105461446FFF7D9FFC0B90D4B9DF8AC
:10E390000720186802AB0393022322EA06022243F5
:10E3A0008DF807208DF808508DF8092004938DF81A
:10E3B0001430836801225C6803A94623A04706B095
:10E3C00070BD00BF9C07002008B502F071F9044B36
:10E3D000002818600CBF6FF01200002008BD00BFBD
:10E3E0009C070020014803F057BB00BF184B0100F9
:10E3F00010B5044618B90D4B0D485B689847616825
:10E4000008290DD031F004030AD011F0020108D020
:10E410002146084805F037FF00232360002363608E
:10E4200010BD1422206804F0C3FAF7E710010020A1
:10E430006E4E0100A007002008B5E8B14368042B28
:10E440000CD101220368D3E8EF1F002903D1C3E8F0
:10E45000E02F0028F7D10BD1002008BD53B1006890
:10E460004FF0FF324FF0FF3302F05EFB0028F3D095
:10E470000348F2E70348F0E76FF4E040EDE700BF40
:10E48000E98FFFFFEA8FFFFF08B5B0B14368042BA7
:10E490000DD100220368D3E8EF1F012903D1C3E89F
:10E4A000E02F0028F7D1074808BF104608BD3BB150
:10E4B000006802F0ABFB0020F8E76FF4E040F5E7FE
:10E4C0000148F3E7E98FFFFFEA8FFFFF10B504462D
:10E4D00018B9164B16485B6898476368042B23D01D
:10E4E000082B21D0CBB92368BBB94FF0FF324FF0D6
:10E4F000FF3321460F4802F0E3F908B923681BB93E
:10E500000A4B0D485B68984714220021206804F0EC
:10E510004FFA636843F002036360206805F0F7FE7A
:10E52000636843F00103636010BD00BF1001002069
:10E530006E4E0100A0070020944E010008B5064968
:10E5400040231422054805F083FEBDE80840044935
:10E55000044803F0F3BA00BFBC070020A007002066
:10E56000304B0100204B01000A4A0B4993680968AF
:10E57000C3F88800C3F88C1008494B6843F08053F7
:10E580004B60002383F31188BFF36F8F9368D3F838
:10E590008C007047D00D00207C4C010000ED00E0A5
:10E5A00014498A684FF030001044EFF3098C80E87A
:10E5B000F01F202080F31188BFF36F8F0E4F4FF0B4
:10E5C00000664A6A8A603E60D2F888000023C2F87A
:10E5D000883080F3118802F1300090E8F01F8CF34E
:10E5E000098802F1000004B504F053F9BDE80440C5
:10E5F00070470000D00D002004ED00E01EF0040F75
:10E600000CBFEFF30880EFF30980816911F8021C59
:10E610000229FFD001B504F042F901BD43B2002B3D
:10E6200008DB012200F01F0002FA00F0024A5B0939
:10E6300042F82300704700BF00E100E0054B4209AB
:10E6400053F82220012300F01F0003FA00F01040CD
:10E65000704700BF00E100E043B2002B01F101016F
:10E66000ACBF03F16043064B4FEA4111C9B2ABBFE7
:10E6700003F5614300F00F0083F80013195470474D
:10E6800014ED00E042F8203C009B0B4942F81C3C92
:10E69000019B21F0010142F8183C029B42F8081C42
:10E6A00042F8143C4FF0807342F8043C0023203AB7
:10E6B0000265C0F888307047C31F0100084B98609E
:10E6C000836F83F30B88104681F30988002163B6BA
:10E6D00081F31188BFF36F8F0022002303F071FCD8
:10E6E000D00D0020014910220A60704710ED00E0B3
:10E6F00072B6404080F31188BFF36F8FBFF34F8F26
:10E7000030BF62B6BFF36F8F704700BF72B649402B
:10E7100081F3118820BF80F3118862B6704700BF73
:10E7200030BFFFF7FDBF00BF0B4A08B50B4B22F00F
:10E730007F029A60BFF34F8FBFF36F8FD3F88820AB
:10E7400022F47002C3F8882001F0DCFF02F0B6FF6B
:10E7500000F086F901F0FAFF00C2000000ED00E0D1
:10E7600001B572B60B4A106A00281EBF0021116263
:10E7700005F0BEFD62B6EFF30580A0F110004FEA90
:10E78000C0000549014409C99847BDE80140034953
:10E7900008470000D00D002050480100B5E90000F6
:10E7A000002080F31488BFF36F8F002080F30A8865
:10E7B00080F30B8803F017FF00200E490860BFF3B9
:10E7C0004F8F0D4880F3088800F026F9202080F351
:10E7D00011880A484FF40061401880F30988EFF36C
:10E7E00014800221084380F31488BFF36F8FFFF772
:10E7F0009BFF000094ED00E088320020C833002029
:10E80000EFF30880EFF3098101B5724600F056F886
:10E8100001BD00BF094B9A6A9A6A986A9A6A9A6A15
:10E820009A6A9A6A9A6A10F480106FEA02426FEA52
:10E83000124218BF02209A62704700BF00ED00E04C
:10E840000D4B9A6A9A6A9A6A920508D59A6B9A6AE7
:10E85000120404D518B19A6A22F400429A62002088
:10E86000054B9A6A9A6AD20558BF9A6A9A6A42F424
:10E870007F429A620870704700ED00E00E4B9A6A82
:10E880009A6A9A6A920708D55A6B9A6A120604D550
:10E8900018B19A6A22F080029A620020064B9A6AA6
:10E8A0009A6A9A6AD20658BF9A6A9A6A42F0FF0236
:10E8B0009A620870704700BF00ED00E070B5364BFB
:10E8C0000E465B6800258AB0C3F3080385F3118800
:10E8D000BFF36F8F02F07F41B1F17F4F11D102F092
:10E8E0000C0108290DD0110701D40646012500228C
:10E8F000033B8DF80720032B46D8DFE803F0043DE7
:10E90000413A2E46F3E7244BDA6A92073CD4DC6A9C
:10E9100014F0804408D093F82820EAB101200DF1CA
:10E920000701FFF7ABFF04469DF8073093B920229B
:10E93000314602A804F011F8099B3DB3C3F3080265
:10E9400022B96FEA53236FEA43230993204602A9B1
:10E9500003F0A3FF0AB070BD93F829202AB101206B
:10E960000DF10701FFF76CFFDDE7588D84B2002C35
:10E97000DAD0FFF74FFFD6E700200DF10701D0E70F
:10E9800000200DF10701EDE70024CDE723F4FF732C
:10E9900023F00103D9E700BF00ED00E0044B5A6902
:10E9A00042F010025A615A6942F480625A6170471B
:10E9B00000ED00E0044B9968586A884203D003498F
:10E9C0004FF080520A607047D00D002004ED00E047
:10E9D000BFF34F8F0549064BCA6802F4E062134348
:10E9E000CB60BFF34F8F00BFFDE700BF00ED00E03D
:10E9F0000400FA05002318460649D1F89020C2F316
:10EA00000722934200D17047C1F89830C1F8A000A6
:10EA10000133F6E700ED00E010B572B6002484F390
:10EA20001388FFF7E7FF23464FF0FF300B4A03F14F
:10EA300020010133102B42F82100F8D100234FF0C0
:10EA4000FF3003F160010133102B42F82100F8D1AF
:10EA500062B6BFF34F8FBFF36F8F10BD00E100E0D0
:10EA6000002320210348C2180133412B82F80013F0
:10EA7000F9D1704700E100E0064B9B68834207D163
:10EA8000EFF3058323B1044A536843F08053536086
:10EA900002F0ACBDD00D002000ED00E01FB5094C28
:10EAA000094A23460121094800F0F2F800230393A4
:10EAB000074B0121E41A01A80193029400F0F2F837
:10EAC00004B010BD0000042000000020444B0100F1
:10EAD000A802002010B50B680C7A23F01F0204F086
:10EAE0001F031A43CB68640923F01F03054943EA57
:10EAF000440343F00103C1F89800C1F89C20C1F819
:10EB0000A03010BD00ED00E02DE9F04F0F46144697
:10EB100006464FF00008524D85B0B84509DAD6F8E0
:10EB20000490B9F1000F3BD0B9F11F0F05D86FF079
:10EB30001504204605B0BDE8F08F19F01F0FF6D17F
:10EB4000D6F800A01AF01F0FF1D1504603F0B2FE24
:10EB5000834609EB0A00013803F0ACFE8345E6D199
:10EB60001BF1160FE3D0631E5B45E0DBC5F898B0E0
:10EB7000D5F89C10C5F898B0D5F8A03021F01F0149
:10EB800043F01F0AD6E900321A44994202F1FF39D4
:10EB90001ED1CA4508D131465FFA8BF003F093FECF
:10EBA00008F101080C36B8E73146C5F898B0D5F839
:10EBB0009C3022F01F0203F01F031A43C5F89C206B
:10EBC000E0B203F080FE10F1160FB0D0441CE7E76E
:10EBD000013BCA45E0B223F01F03C5F898B008D145
:10EBE000D5F8A020314602F01F021343C5F8A0302B
:10EBF000E7E7D5F8A01001F01F010B43C5F8A030DE
:10EC0000314603F060FE10F1160F90D0C5F898B0B1
:10EC1000D5F89C209DF808300AF1FF3A62F304030E
:10EC20008DF80830D5F8A0309DF808205B0863F314
:10EC300047128DF80820D6E900321344009323F0E0
:10EC40001F03411C5344A3EB0903C8B223F01F0365
:10EC50000F2803933FF66BAF6946FFF73BFFB5E71D
:10EC600000ED00E00522044BC3F89420BFF34F8F62
:10EC7000BFF36F8F704700BF00ED00E0BFF35F8F01
:10EC80000022024BC3F89420704700BF00ED00E063
:10EC900010B5034C2278FFF737FF207010BD00BF7E
:10ECA000412E00202DE9F74F294D8A4606464FF0A8
:10ECB0000008AB46274FD0451BDAD6F80490B9F1CF
:10ECC000000F3FD031680846019103F0F3FD019930
:10ECD000044609EB0100013803F0ECFD84424FF0DB
:10ECE00014021D4B08D06FF0150302FB08F84BF817
:10ECF000083003B0BDE8F08F14F1160F2C60F8D087
:10ED00001978A142F5DD02FB08B0C7F89840C7F8B2
:10ED10009840D7F89C4000F10801007B64F30400A0
:10ED20000871D7F8A0000C79400860F347140C7103
:10ED3000D7F89C1021F01F016960D7F8A01021F0CE
:10ED40001F01296108F1010814350C36B3E700BF33
:10ED5000BC0C002000ED00E0412E002038B50E4D27
:10ED60002C68102C15D80020FFF788FF0B4B0C4A9D
:10ED7000C3F8C020844205D10A4B00201C70FFF765
:10ED800071FF38BD696801EB0011FFF7A3FE013088
:10ED9000F0E74FF0FF30F4E7504B010000ED00E0EA
:10EDA000AAFF4400412E0020014B1860704700BFAD
:10EDB0004C00002008B51248FFF706FBF0B903F03D
:10EDC0004BFDD8B903F054FDC0B9012003F055FD47
:10EDD000A0B9012003F045FD80B9072003F02AFD0A
:10EDE00060B91F2003F020FD40B9072003F02DFD7E
:10EDF00020B9BDE80840012003F022BD08BD00BFD6
:10EE0000D04E010000220023014803F0ECBF00BFF8
:10EE100088020020074BC1610360074B4360074B2A
:10EE20008360074BC360074B0361074B43618B89CA
:10EE300083617047FD290100C32A0100952A010062
:10EE4000632A01003D2A0100132A010000234360C8
:10EE5000014B816003607047F52A0100F0B504465C
:10EE60000C4E0D4F91B000F11005002200232846F2
:10EE700003F0BEFF014608B911B0F0BD08AB03A80E
:10EE8000CDE903640593CDF818D0079704F004FD8D
:10EE9000EBE700BF884B0100E72B01002DE9F041B3
:10EEA00004461D460F461646DDF818803022002124
:10EEB00003F07EFD2046C4E90876C4E90A580449F7
:10EEC00005F0FFFA04F11000BDE8F04105F093BA37
:10EED0005DEE000013B50024064A234606490748A4
:10EEE0000094FFF7DBFF0648FEF794FF204602B0D0
:10EEF00010BD00BF512C0100572C0100D80C002080
:10EF000005EF000008B50146034805F07CFABDE8AE
:10EF10000840024802F022B8780200205000002089
:10EF2000F8B50D4E0D4F00220023304601F0B2FE21
:10EF3000044600B9F8BD3846D4F80422211D03F078
:10EF4000B0FE05462046FEF7D9FE002DEBD029463F
:10EF5000034803F073FEE6E778020020D00C00209F
:10EF6000D80C00202DE9F3471446DDE90A6740F686
:10EF700006120D1E98464FF0020141F2044318BFDD
:10EF8000134682463A46ADF802300DEB0100B04719
:10EF900038BB4DB3022263BA0DEB020101A8ADF8F4
:10EFA000023003F0DAFC9AF8003032468DF8063071
:10EFB00003213B4601A803F063FE90B901204FF006
:10EFC00006090546241A94B94FEA18238DF804302F
:10EFD00032463B46022101A88DF8058003F050FE21
:10EFE000D8B102B0BDE8F0874FF00209E9E7012C83
:10EFF0000AEB05011AD10B7832468DF804304FEA3E
:10F0000018238DF8053003213B4601A88DF80680B2
:10F0100003F036FE0028E4D101353A4601211E48AE
:10F02000B0470028DDD10C9B1D60DAE7022C1DD112
:10F030000B7832468DF804304B7801A88DF80530F6
:10F040004FEA18238DF8063003213B4603F018FEE3
:10F050000028C6D13B463246012101A88DF8048024
:10F0600003F00EFE0028BCD10235D6E7032201A82A
:10F0700003F073FC3B463246032101A803F000FE77
:10F080000028AED109F10409B9F17B0F05F10305A0
:10F09000A4F1030497DDC0E73D4F0100014B03EBF2
:10F0A00040107047880200208279044B03EB421322
:10F0B000DB69C01A024BC010584370478802002019
:10F0C000ABAAAAAA10B5094B827903EB42139B693C
:10F0D0000A685C6823689A4294BF0A600B60FFF775
:10F0E000E3FFD4E9002302FB003010BD88020020BA
:10F0F0002DE9F74F0546019110461946914698466D
:10F1000017461E4605F031FB82468B464FF0200322
:10F11000EFF3118183F31188BFF36F8F6B8A002B9C
:10F1200050D02A8A9A423BD90091002200232846D7
:10F1300001F0B0FD00990446002831D081F3118818
:10F14000BFF36F8F019B002B4CD058EA09030FD0FF
:10F15000B8F1FF3F08BFB9F1FF3F09D002F0F4FB5F
:10F16000BAEB00076BEB0106002EBCBF00273E4642
:10F17000A379DFF888803A4608EB43139B69204661
:10F180001B6801A91D683346A8470546206150BB8E
:10F19000A079214608EB401005F040F92C461DE00F
:10F1A0006B8A5A1E6A8281F31188BFF36F8F182011
:10F1B0002C8AE31AEC6900FB034410482D1A6D11E8
:10F1C000A571BFE781F31188BFF36F8F4A464346AD
:10F1D000284601F05FFD04460028B3D1204603B065
:10F1E000BDE8F08F2361002301222360A280A38168
:10F1F000019A2369E281A360F0E700BF8802002042
:10F20000F8B504460026144D04B9F8BD23792768E3
:10F21000013BDBB22371002BF7D1216959B163792E
:10F220009B0707D4A379204605EB43139B691B6812
:10F230009B6898472661A079A66005EB40135B693F
:10F2400026601BB1204698473C46DDE7214605EB8A
:10F25000401005F0E3F8F7E78802002000F01F02F5
:10F26000054800EB8200D0F8003223F4403343EA33
:10F270000143C0F8003270470025845008B5094B9F
:10F280001A786AB901210D2019700521FFF7E4F9F8
:10F290000D20FFF7C3F94FF00042034BC3F80423DE
:10F2A000002008BD422E002000D00050F7B51446C3
:10F2B000426801F01F05127AB4F5A03F0E460769B7
:10F2C00045EA42150AD1604905F01F02803251F823
:10F2D0002220D00707D56FF022009AE0B4F5005F36
:10F2E000F96800F098800121FA68B1401143F96093
:10F2F000012100207A69B140B4F5A03F0CBF0A4358
:10F300008A437A61BA69B3F5C02F0CBF0A438A43B6
:10F31000BA613A69B3F5802F0CBF114322EA0101AB
:10F320004A4A3961D2F80433DBB200F5A27152F8CF
:10F330002110C1F304218D4272D123FA00F1C907D3
:10F340006ED5830003F1A04303F55043D3F81015A5
:10F3500021F00101C3F8101501238340C2F80833DE
:10F36000C0B200F02DFD28460021FFF777FFF868B6
:10F37000F04010F001004CD07869F04010F001042A
:10F3800055D0BB690DF10700F340DB0757BF396962
:10F39000032621FA06F606F001065CBFC6F1020656
:10F3A000F6B200F02DFD2A4B98423DD100209DF889
:10F3B00007202D02930003F1A04303F55043D3F837
:10F3C000101505F4F85521F4473121F44071C3F8C4
:10F3D0001015D3F810150D4345EA0646C3F810651D
:10F3E000930003F1A04303F5514318609DF8071003
:10F3F0001B688B0003F1A04303F55043D3F810259D
:10F4000042F00102C3F810250123104A8B40C2F8D4
:10F41000043303B0F0BD0122B24021EA020166E7E5
:10F420000130082881D19EE76FF01200F1E73969B9
:10F430002846F14001F00101C1F10301C9B2FFF713
:10F440000DFF2046E5E700BF0025845000D00050A6
:10F450000000AD0B284B70B5466828481340834226
:10F460003BD00DD8062B15D005D89BB1022B36D03A
:10F470006FF0150030E0B3F5801FF9D1012309E0EA
:10F480001F4883422DD0B3F5A00F2CD0B3F5800FC9
:10F49000EED10223D0064CBF0325C2F3401582F4FF
:10F4A000807412F4007FC2F34020C4F3002406D01D
:10F4B00012F4006F766818D001228A40B26040EAE8
:10F4C0004402002042EA032301F01F010D4A43EAEF
:10F4D0008503803142F8213070BD0723DAE7042329
:10F4E000D8E70523D6E70323D4E7520542BF01221C
:10F4F0008A40F260E3E700BF0600F000060010005B
:10F500000200400000258450434B2DE9F047D3F81A
:10F510007C61002E5AD0414B0127D3E90520D968E0
:10F52000024321EA020845464FF00009DFF8F0A047
:10F530001B69DAF810405C4028EA040485BB364BAE
:10F54000C3F87C51D3F87C31002301251F46354A8E
:10F550003148D0F8041305FA03FC1CEA010F0CD063
:10F56000116851B103F5A27150F821101760C1F371
:10F57000042105FA01F10C4311680133082B02F153
:10F580000402E6D124BB4EB101250026234FFC68BE
:10F59000D7E90532134324EA030454BBBDE8F087DE
:10F5A0002F420FD017EA080F09F01F0008BF00F123
:10F5B00080034FF0000108BF5AF82330FFF74EFEDA
:10F5C00025EA070509F101097F00B7E73446BBE7E3
:10F5D000124B59680029D6D00D68134F8A68224013
:10F5E00002D038464B689847002DCCD029462D686C
:10F5F000F4E725420CD0396906F01F00F14001F014
:10F600000101C1F10301C9B2FFF728FE24EA050494
:10F6100001366D00C1E700BF00D000500C0D002086
:10F620000025845000D10050DC01002010B50446B4
:10F63000002201210A20FFF70FF860682369064ABB
:10F6400000F1080100F014FC044B984214BF6FF065
:10F650000F00002010BD00BF61F600000000AD0BE0
:10F660000378012B08D0022B08D04BB9054B0B6255
:10F6700001F1100001F042BB034BF8E7034BF6E742
:10F68000034BF4E70000AD0B0100AE0B0200AE0B24
:10F690000100AD0B2DE9F04F1F46056989B0064604
:10F6A0000C4690460021142203A8D5F82C90B5F8FA
:10F6B00028A003F07DF98DF80D704FF0FF324FF068
:10F6C000FF33284601F03CFB306910300027002250
:10F6D000002301F035FB706800F010FC3D46DFF8B8
:10F6E00020B1474501D300242FE0217A0B077DD4B8
:10F6F000BAF1000F0DD07B1C43450AD2880708D40D
:10F70000237D81EA030202F0010203F004031343A4
:10F7100025D0002D3AD10025236806936368049311
:10F72000237A706803F0010213F0020F8DF80C20A9
:10F7300003A90CBF2022002200F00EFC584527D060
:10F74000304B984258D06FF00404706800F0E6FB2C
:10F75000306901F0D3FA204609B0BDE8F08F0123EB
:10F7600062685019504544D8C90706D4216809EB8E
:10F770000500019303F0F1F8019B6268154403BB97
:10F78000002DC8D0CDF818900495C9E70023E7E70D
:10F79000306910304FF48042002301F0D1FA40B1BB
:10F7A000706800F0BBFB7368D3E9020100F014FE3F
:10F7B000C9E733691B6A5B45C5D1237ADB0703D4EC
:10F7C000002501370C348CE7069B9945F8D1234678
:10F7D00007E0AD1AD86809EB0501019303F0BDF805
:10F7E000019B5A680C3B9542F3D2E9E76FF0220483
:10F7F000ABE76FF01B04A8E76FF00F04A5E700BFAD
:10F800000000AD0B0B00AD0BF0B54B79012B2AD0EE
:10F81000032B25D110268B79032B21D1CC792CB148
:10F82000012C1DD143685B689B0719D00A7912B17E
:10F83000022A15D10E220B684568B3F5164F2D68C4
:10F8400065D02DD8B3F5165F64D016D8B3F5966F92
:10F8500062D00AD8B3F5967F61D0B3F5167F61D038
:10F860006FF0220052E00026D5E7B3F5166F5CD0AA
:10F87000B3F5965FF4D1374B3CE0B3F5E14F57D089
:10F8800007D8B3F5615F55D0B3F5964FE8D1324B49
:10F8900030E047F61227BB42E2D14FF4000329E0E3
:10F8A000B3F5613F48D013D8B3F5963F47D009D898
:10F8B0004DF6C027BB4244D0B3F5614FD0D14FF4D1
:10F8C0006B0317E0B3F5E13FCAD14FF0EB7311E0E2
:10F8D000B3F5612F38D008D8204FBB4237D0B3F5ED
:10F8E000E12FBDD14FF0E86304E01D4FBB42B7D11B
:10F8F0004FF08053C5F82435036934432243043361
:10F9000003C9C5F86C2583E803000020F0BD4FF45F
:10F910001D03EFE7134BEDE74FF49E23EAE74FF4A7
:10F92000A033E7E74FF41C33E4E74FF41D23E1E78E
:10F930000D4BDFE70D4BDDE74FF06C73DAE70C4B57
:10F94000D8E74FF46503D5E74FF07063D2E74FF087
:10F950008063CFE700B0130000A04E0090D00300FA
:10F9600040420F000050270000C0750000F03A0030
:10F9700000903A01F8B505460F46066904F0ADFC63
:10F9800010B9204B1B7883B94FF02003EFF311849B
:10F9900083F31188BFF36F8F686803F0A2FB28BB65
:10F9A00084F31188BFF36F8FEEE76424686803F077
:10F9B00098FB70B9012003F05AFC013CF6D10021FC
:10F9C000212001F0E3FDF0E784F31188BFF36F8F8E
:10F9D000F5E74FF02003EFF3118483F31188BFF3B1
:10F9E0006F8F686803F07DFB0028EDD0314601F889
:10F9F000147F0122686803F059FB84F31188BFF378
:10FA00006F8FF8BD832E00204FF0000C43682DE966
:10FA1000F04105691C680F46C4F800C50646286019
:10FA200008680121404B00F01F02914099600321BA
:10FA3000803243F822107A68511C1EBF02F01F0169
:10FA4000803143F821C0B968C4F80C05481C18BFC0
:10FA50000020C4F814251EBF01F01F02803243F8B5
:10FA60002200F868421C0CD04FF0010C00F01F027D
:10FA70000CFA02FCC3F808C04FF0030C803243F8C4
:10FA800022C0C4F80805C4F810153046291DFFF738
:10FA9000BBFE8046002840D173685B68190712D509
:10FAA00005F1160000F062F9204B984238D1AA7D8A
:10FAB00042F00043C4F8A031C4F88C3001239340D5
:10FAC0001B4AC2F804350823C4F800357B680133AB
:10FAD0000CD00023C4F81031D4F8103105F115030F
:10FAE000C4F834350123C4F83835236073681435FD
:10FAF0005B681A075CBF4FF48072C4F80423DB060E
:10FB000044BF4FF48003C4F804330023C4F84455C1
:10FB1000C4F848350123A360E3604046BDE8F081A6
:10FB20006FF00408F9E700BF002584500000AD0B1A
:10FB30000070015030B585B06C460546084B0FCBC0
:10FB400084E80F00002201210920FEF785FD09202D
:10FB5000FEF764FD21462846FFF756FF05B030BD8D
:10FB6000904A010030B585B06C460546084B0FCB76
:10FB700084E80F00002201210820FEF76DFD082017
:10FB8000FEF74CFD21462846FFF73EFF05B030BD8D
:10FB9000A04A010008B54FF47F03D3F83031092B98
:10FBA00001BF4FF050230022C3F81421C3F81821DD
:10FBB00003F050FB28B10122424BC3F8382AC3F8A6
:10FBC00078254FF47F03D3F83021092A07D1D3F8E1
:10FBD0003431012B1EBF01223A4BC3F8782503F0C4
:10FBE00039FB18B10E22384BC3F8E42E4FF47F03D3
:10FBF000D3F83031092B06D10022324BC3F80C2741
:10FC00000122C3F810270022D30003F57F03D3F8A5
:10FC10000013013108D0D3F800130132D3F80433B4
:10FC2000B2F5807F0B60EFD1284BDA69D1073AD566
:10FC3000274BD3F80024012AFBD1C3F80425D3F8BD
:10FC40000024012AFBD1214BDA69D20708D5DA69F1
:10FC50001F4922F00102DA61D1F80024012AFBD108
:10FC60001A6A01320AD11A6A22F0FF0242F0200217
:10FC70001A62174AD2F80034012BFBD10022144B30
:10FC8000C3F80425D3F80024012AFBD1BFF34F8F1A
:10FC90001049114BCA6802F4E0621343CB60BFF312
:10FCA0004F8F00BFFDE71B6A0133C1D0094AD2F86C
:10FCB0008C3043F44063C2F88C30084B084A1A6019
:10FCC00008BD00BF0040005000A003500080FF00AE
:10FCD0000090035000ED00E00400FA05E800002069
:10FCE0000090D003044B1A7922B9012218601A71CE
:10FCF0000248704702487047340D00200000AD0BE9
:10FD00000C00AD0B4FF05023D3F8002110B552B1C9
:10FD10000020C3F80001D3F800210122C3F8082312
:10FD2000114B1B6898474FF05023D3F804218AB138
:10FD30000022C3F80421D3F80421D3F81824D3F8FF
:10FD4000181402F00302012A4FF0020103D1C3F894
:10FD500018159A6010BDC3F80813034B0120BDE8C5
:10FD600010401B68184700BF340D0020F0B54FF05D
:10FD70002003EFF3118783F31188BFF36F8F0D4DCD
:10FD80002E68F24392B292B10024E1B222FA01F35A
:10FD9000DB0704F10104F8D501238B4033430170E4
:10FDA00005482B6087F31188BFF36F8FF0BD0348C0
:10FDB000F8E700BF3C0D00200000AD0B0200AD0BCA
:10FDC000012303FA00F0C3B293B14FF02003EFF325
:10FDD000118183F31188BFF36F8F064AD36C23EA36
:10FDE0000000D06481F31188BFF36F8F0248704721
:10FDF00002487047400D00200000AD0B0400AD0B21
:10FE00002DE9F041FF22002401260546DFF854E0E9
:10FE10001548DFF85880E3B24FF02001EFF3118C62
:10FE200081F31188BFF36F8F22FA03F1C9070AD556
:10FE3000DEF84C1006FA03F7394201BF4046394359
:10FE4000CEF84C102B708CF31188BFF36F8F4045A8
:10FE500005D006FA03F39A4304F10104DBD1BDE8AF
:10FE6000F08100BF400D00200200AD0B0000AD0B83
:10FE70002DE9F041342790F804801C4D07FB08F76A
:10FE8000EC1994F82D6076BB40F20C6CA6606360B0
:10FE900084F82F604B7B84F830600E6884F8323031
:10FEA000EA5106F01F03124F8033006847F823C061
:10FEB0004C6804F01F03803347F823C08B68C0F8F8
:10FEC0000865C0F80C45C0F824351AB140F3073076
:10FED000FEF7A4FB342303FB08550123054885F8EE
:10FEE0002D30BDE8F0810448FBE700BF900D0020F5
:10FEF000002584500000AD0B0500AD0B0621036802
:10FF00000279C3F800153421034B01FB02330222AE
:10FF100083F82D20704700BF900D00200179026802
:10FF200034200B4B00FB013300210A489960C2F8D2
:10FF30000803D2F8000220F4BC50C2F80002C2F854
:10FF40000015012283F82F1083F82D20704700BF81
:10FF5000900D002002029C0134232DE9F047174642
:10FF6000002290F804E0DFF8C8C2046803FB0EC367
:10FF700083F82E204B680D464BB1CB6803F06043ED
:10FF8000B3F1005F03D0AB4E3046BDE8F0873426B6
:10FF900006FB0EC6A84BC4F8083396F82F3003F0C2
:10FFA000FF0A23B1B368A54EC4F80433ECE717F099
:10FFB000140F0CBF01230023A94686F82F3006F149
:10FFC0000C08B9E80F00A8E80F00D9F80030376234
:10FFD000C8F80030C7F3001386F830306B78C4F8E7
:10FFE0008835C4F804A1D4F80431C4F824A1D4F8A5
:10FFF0002431C4F860A1D4F86031C4F848A1D4F821
:020000040001F9
:10000000483117F0010318BF0123C4F8503517F029
:10001000020318BF0123C4F840352A78032A00F2EE
:10002000B580DFE802F084A069022B6903F060412B
:10003000B1F1005FA7D14FF48071E868C4F80012F5
:100040006968C4F84405C4F848150021C4F8501183
:10005000D4F8500101202062A060D4F8500100289B
:10006000FBD0C4F85011D4F85011A968C4F8443535
:100070003423C4F848154FF4802103FB0EC3996064
:1000800008236F4E390706D4032A04D00122E25018
:100090006B6803B96261342303FB0EF35CF8032041
:1000A0000CEB0301002A74D10121D4F84831D4F8B3
:1000B0000401002840F08880003B18BF0123D4F8D9
:1000C0002401002800F08680C4F82421D4F82401FB
:1000D000D4F86051D4F8000215B110F4007F04D1B7
:1000E00021626161002DE0D00023C00572D5C4F803
:1000F0004821D4F84831D8E76B68E968C4F844155A
:10010000C4F848352B6903F06041B1F1005F7FF41A
:100110003AAFA968C4F834354FF48453C4F838159D
:10012000C4F800323423022103FB0EC312E06B68D3
:10013000E96817F0200FC4F84415C4F848354FF0AB
:1001400034030BD04FF48071C4F800124FF48021B7
:1001500003FB0EC399600123236291E74FF4007102
:10016000C4F80012DFE76B68E968C4F83415C4F816
:1001700038354FF48053C4F800323423022103FB96
:100180000EC399600123236200237AE708232D4ED2
:1001900078E77A0744BF00238B607B0606D43423BC
:1001A00003FB0EC39A6842F002029A60342303FBF9
:1001B0000ECCDCF8083043F40073CCF80830DCF8DF
:1001C0000830C4F80433DFE6C4F80421D4F804315D
:1001D000012374E7002B3FF468AF3421002001FBBA
:1001E0000EC2D4F8C434C4F8C43482F82F008BB1E2
:1001F000154A13F0010F154E18BF164613F0020FE3
:1002000002F1010218BF164613F0040F104B18BF7D
:100210001E46B9E67B063FF5B7AE20460EFB01C190
:1002200003F09AF8094B002808BF1E46ACE600BF51
:10023000900D00200A00AD0B02029C010B00AD0BDB
:100240000000AD0B0400AD0B0000AE0B0100AD0BC8
:100250000200AE0BF0B55B4D5B4CD5F8243187B096
:10026000FBB10023C5F82431D5F82431D5F8043189
:10027000BBB9A368C5F808330223A360A368C5F817
:100280000433D5F860311BB1D5F800329E0503D494
:1002900001224C4B1A625A61012384F82E3007B0B8
:1002A000F0BDD5F80431002B54D00023C5F804313B
:1002B000D5F80431236A5D060AD494F82E303BB990
:1002C0004149404803F048F880F0010084F82E00CE
:1002D000236A13F0040722D13C4E01AD0FCE0FC5A7
:1002E000336894F830C02B60364BC3F86071D3F894
:1002F0006021C3F85C71D3F85C21BCF1000F02D01F
:1003000094F82E205AB10022C3F80022A260304A8D
:10031000C3F808234FF480622E4BC3F88021294A8A
:10032000D2F8C4349807C2F8C4343CD501238DF800
:10033000003094F830300BB984F82F30236A5B0713
:1003400003D594F82E30002BA9D0D4E900316846AB
:100350009847A4E7C5F84831D5F84831237B83B9DD
:100360001A4F01AE0FCF0FC63B68336094F83030A0
:10037000002BD4D1C5F80032A360154BC5F8083363
:10038000C8E74FF40073C5F8003240F20223A360BF
:1003900003F1CE73C5F80833A368C5F8043301230D
:1003A000AB602B627BE7590701D50223BFE7DA0771
:1003B00001D50323BBE794F82E30002BB7D00423DC
:1003C000B5E700BF00A00050900D00209C0D00205C
:1003D00002029C0100E100E02DE9F041012540F21C
:1003E0000D631C4C01F01F0600F01F0005FA00F819
:1003F00006F180028030B540C4F80880A56044F85A
:100400002030042044F8223002F031FF092723690C
:100410001D420DD10420C4F80C8002F028FF013FDA
:100420000420C4F8088002F022FF17F0FF07EED185
:100430000420E56002F01BFF0420A56002F017FF16
:100440002169054821FA06F606F00106801BBDE881
:10045000F08100BF002584500100AD0B37B50D467B
:100460001446FDF7E1FB38B16A460449CDE9005472
:1004700002F0CBF803B030BD0520FBE731370100B7
:10048000F0B51C4987B0054603F083F9002200232C
:100490000446284603F0A5FB17490443284603F009
:1004A00078F94FF0FF32044302A9284603F0C9FB54
:1004B00000270443384601A903F059F905280646E8
:1004C0000ED030B1284602A903F0CDFB304607B06C
:1004D000F0BD2846019903F05CF901370443E9E7D0
:1004E000284602A903F0BFFB54EA00030CBF002614
:1004F0000226EBE7084D0100DD4E0100F0B5A5B086
:10050000054600215C220DA802F052FA04238DF862
:10051000343020231F4F04AE0CA905F11C000C97AA
:100520000E96169303F000F988BB1B49284603F08A
:1005300030F9002300220446284603F052FB3946D6
:100540000443284603F025F931460443284603F0C6
:1005500020F912490443284603F01BF94FF0FF32FB
:1005600069460443284603F06FFB6A460C4904437E
:100570003046FFF773FF69460646284603F073FBD3
:1005800054EA000318BF0226304625B0F0BD03260A
:10059000FAE700BFE74E0100084D0100EC4E0100F4
:1005A000AD370100014800F003B800BFEC000020A7
:1005B000034B1A6802B9034A10601860704700BF05
:1005C000CC0D0020C80D002002460B4B30B51B6837
:1005D000CC000BB9002030BD588990420AD118894F
:1005E0008842F7D95D6828192D59002DF3D1456847
:1005F000002DF0D11B68ECE7C80D002070B5044653
:1006000008480D4602F07CF906490246204603F0F0
:1006100007FB30B92A462046EB17BDE8704003F0CF
:10062000E0BA70BD084D010010B4044C246814B148
:10063000A44610BC604710BC704700BFC40D00202A
:100640001FB589B1046824686469CDE900340DF1EF
:100650000F0303F01CFC28B99DF80F30002B08BFD6
:100660004FF0004004B010BD004CEEE7913C01009B
:100670000E4B70B553F82040013053F82060A6426D
:1006800000D870BDD4E900352846984765B1EB68BD
:1006900030B10028B8BF4042FF28A8BFFF20187023
:1006A0005A7842F001025A700834E8E7684C0100B9
:1006B00070B5054610B90024204670BD0378002BA4
:1006C000F9D00E4C0E4EB44208D10C4CB442F2D0CC
:1006D000204603F033FD50B91834F7E7204603F005
:1006E0002DFD10B12368AB42E6D01834EBE7284665
:1006F000216802F015F90028EED1DDE77C01002029
:100700000C0200200248034A0021121A02F050B9DC
:10071000A8020020842E0020012208B5094B0220E7
:100720001A70FFF7A5FF01F047F90320FFF7A0FFBC
:1007300000F088F901F01EFB034A137B23F001034C
:10074000137308BD832E0020500500202DE980483A
:10075000374BABB003F5006989F3088883F30A8847
:100760000024E023334D4FF0010B85F82230EC7765
:100770002C766C76AC766B6A2F4E43F4E0236B627A
:10078000FEF70CF9FDF7AEFF4FF0FF33AB62EB6203
:10079000FEF7E4FAFEF782F940F20113274DADF8B7
:1007A000243006ABAB60CDE9244403F0C6FC204600
:1007B000FFF75EFF0120FFF75BFFDFF884A000F08A
:1007C0004DFE204B6E624FF480621F490593304608
:1007D0005346CDE9034BCDE90144009400F0BCF849
:1007E000737B804623F004033046737303F0FBFEF3
:1007F0000F23164F4FF4A072CDE902431449154B55
:100800003846CDE904B4CDE9005400F0A5F87B7B6F
:10081000524623F004037B7305F11803414630462A
:10082000C5E90633EF602C75C5F80490FDF746FF67
:10083000C833002000ED00E050050020D00D00205E
:1008400019070100F34E0100882E0020C00400208B
:1008500088320020FD0A010038B5064C064DAC4236
:1008600001D3002038BD2046D4E9011203F08AFCF0
:100870001434F4E7280200202802002070B50E4B43
:100880000E4CA34201D3002070BDD3E9030141EA1D
:10089000000212F003020BD19D685A61AA4201D1F5
:1008A0001C33EEE75E6901320E6059610144F5E7E1
:1008B0006FF01500E8E700BF0C02002028020020BE
:1008C00037B50C464FF02005EFF3118185F3118801
:1008D000BFF36F8F45695DB125602B684361836904
:1008E00001338361002081F31188BFF36F8F11E022
:1008F00052EA030C03D16FF00B002560F3E7CDE95A
:1009000000230246083000F031FC18B9024B9B6806
:100910005B69236003B030BDD00D00204FF0200391
:10092000EFF3118183F31188BFF36F8F094A136BC3
:10093000834207D11B6F136381F31188BFF36F8F5D
:1009400070471346002BF7D01A6F8242F9D1026F1D
:100950001A67F1E7D00D00202DE9F04F85B0129E07
:1009600000F1580506730426DDE90EA9C0E9165505
:10097000002504461F464673119EDDF840808673AD
:10098000D61D26F0070601EB060BC0E90655C0E9A7
:100990001E168560C573C0F880505A46CDE901988F
:1009A000CDF800A0FDF76EFEC4E9187AC4E91A98E4
:1009B00065654FF02003EFF3118283F31188BFF3D5
:1009C0006F8F094B196B1C63216782F31188BFF38A
:1009D0006F8F9B680BB1D3F884305846C4F88430CD
:1009E00005B0BDE8F08F00BFD00D0020F0B50027A6
:1009F00087B00597109FDDE9126504970F9F0446A5
:100A000003970E9F02970D9F01970C9F0097FFF78A
:100A1000A3FFB5F1FF3F08BFB6F1FF3F05D055EA90
:100A2000060305D1204600F0B3FC204607B0F0BD18
:100A300032462B46024904F1180000F0A5FEF4E707
:100A4000074601002DE9F043294C2A4D87B0264680
:100A5000AE4204F130040FD300F016FB4FF4004611
:100A600040F2E737224CDFF89090AC4220D307B039
:100A7000BDE8F04300F0C0BB54F8043C54E90C015D
:100A8000059354F8103C049354F8143C039354F821
:100A9000183C029354F81C3C019354F8203C0093FA
:100AA00054E90A23FFF758FF54F8303C5E65CEE75F
:100AB000636A5A1C0DD00021384623EAE373C3FB56
:100AC000060151EAC333D4F8008004D1404600F057
:100AD0005FFC3034C9E74FF47A720023FBF732FC35
:100AE00002460B4608F11800494600F04DFEF0E7BB
:100AF0000C0200200C0200200746010008B5094C3A
:100B00004FF02002EFF3118382F31188BFF36F8F50
:100B100003F0F7FD2062FDF743F80028F0D1FDF760
:100B2000E7FDEDE7D00D00202DE9F341044617461F
:100B30001E464FF02003EFF3118883F31188BFF3B3
:100B40006F8FC3682F4A6BB180689168884219D053
:100B500057EA060318D188F31188BFF36F8F6FF03F
:100B60000F000CE0916891F90E100133E360936877
:100B70002161A36088F31188BFF36F8F002002B05A
:100B8000BDE8F0812169F0E790F90E3091F90E107F
:100B90009942A8BF194621EAE1718B422BDD03F08F
:100BA000AEFB054622464146CDE90076164800F0E8
:100BB000DDFA0028E3D04FF02003EFF3118683F332
:100BC0001188BFF36F8F236821699C4207D033B12E
:100BD00093F90E309942A8BF194621EAE171A06845
:100BE00003F08DFB00B945B13146074800F03AFAF1
:100BF0006FF00A00C3E70025D4E786F31188BFF33E
:100C00006F8FF5E7D00D0020842E002038B5836863
:100C10000446002B33D01D4A9268934232D1DA7BCE
:100C2000013ADA73C368012B05D0013BC36000F0C1
:100C3000E3FA002038BD4FF02003EFF3118583F372
:100C40001188BFF36F8F0169806803F058FB20465D
:100C500003F0FBFCA06060B190F90E20226100223D
:100C6000C0F88C2003F0BFFC2946094800F0FAF9CF
:100C7000DDE7E06085F31188BFF36F8FD7E76FF092
:100C80001500D7E74FF0FF30D4E700BFD00D0020AC
:100C9000842E002037B511464FF02002EFF3118566
:100CA00082F31188BFF36F8F04689CB12368426898
:100CB00023F003039442036008BF436001212046F0
:100CC00003F08DFB044685F31188BFF36F8F204638
:100CD00003B030BD51EA0302F5D000F10802CDE9BE
:100CE00000131046294600F041FA0028EFD1024BCC
:100CF0009B685C69EBE700BFD00D002038B5044667
:100D00004FF02003EFF3118583F31188BFF36F8F4A
:100D100003F09BFC50B10022C0F88C2003F063FC70
:100D20002946BDE83840054800F09CB9D4E90232B4
:100D30009A4218BF0133A360F2E700BF842E00205F
:100D400013B54FF02004EFF3118184F31188BFF342
:100D50006F8F846844B1013C846081F31188BFF3D4
:100D60006F8F002002B010BD52EA030406D181F358
:100D70001188BFF36F8F6FF00F00F3E7CDE9002309
:100D80000246024800F0F2F9ECE700BF842E002092
:100D90002DE9F04F04464FF0FF384FF0FF39454E34
:100DA00085B04FF02003EFF3118783F31188BFF371
:100DB0006F8FD4F890508DB9022104F1A80003F090
:100DC0006EFB002835D100233946CDE90089029316
:100DD00004F19802384800F05FFCE2E7D4F8942070
:100DE0002B689542C4F8903001D1C4F89430D4F8FF
:100DF000A83043F00203C4F8A830EB6823F00403E2
:100E000043F00103EB606B6887F31188BFF36F8FCA
:100E1000284698474FF02003EFF3118B83F3118896
:100E2000BFF36F8FEB68990723F001020BD4EA60E0
:100E30000EE004F1A00500220121284603F02DFC5C
:100E40000028F8D1BFE7306823F00303EB6070B9E6
:100E5000D4F8A83023F00203C4F8A8308BF311882B
:100E6000BFF36F8FD8059CD400F004FB99E70027EF
:100E70003B46D0F800A04268014695420CD101687B
:100E800097B972683160824200D1716040F8083BC6
:100E9000FFF734FF39460023BAF1000FD8D050468F
:100EA0000F46DAF800A0E6E772683960824208BFB0
:100EB0007760EBE7040E0020842E0020F8B5C368AD
:100EC00004469A070E46C3F340051FD45F071FD49C
:100ED0000A680AB982680A60D80742BFA368022577
:100EE0003360376858BF01257FB31B4B9B68BB42FB
:100EF00011D103F0F2F980F00100C0B2D7F8A830A8
:100F0000D907C3F3800223D53AB140B96FF00F057A
:100F10000023336013E00020F0E71B07F6D4002322
:100F20002360D7F8943063B9C7E92444384603F006
:100F3000C1FAE36843F00403E3603368A360284622
:100F4000F8BD1C60C7F89440F0E76FF01505DFE7C7
:100F50006FF01205DCE700BFD00D0020014601480C
:100F600003F0B8BAE8050020F0B50446002089B0C7
:100F7000C4E924000E9D04F19800C4E9260004F1A0
:100F8000A000C4E928001DB32879002840F2011010
:100F900008BF0120C4F8A80000204FF0FF364FF032
:100FA000FF37CDE90330CDE90100CDE906672046E2
:100FB000084B0094FFF71AFD25B1296811B12046AE
:100FC00003F091F9204609B0BDE8F04003F08EB976
:100FD0000120DFE7910D010010B5084C23685BB1DB
:100FE000FDF792F903462068054A03440021BDE855
:100FF0001040136103F095BB10BD00BF140E00201C
:10100000D00D0020F8B504460D464FF02003EFF355
:10101000118683F31188BFF36F8F00214FF40047CF
:1010200040F2E7300C4B4FF47A7219610023E4FB75
:101030000701FBF787F9002C084B09DC1860084B07
:101040001D60FFF7C9FF86F31188BFF36F8FF8BDEE
:101050000228B8BF0220F1E7D00D0020140E0020B6
:10106000100E002049B9EFF3058030B9054B5A6ADC
:101070009B689A4201D0FDF777BA81F31188BFF3DC
:101080006F8F7047D00D00204FF02003EFF31181D8
:1010900083F31188BFF36F8F044B9A68D37B013BB6
:1010A000D37381F31188BFF36F8F7047D00D002089
:1010B00038B502460C4803F066FA0C4D044600B9F8
:1010C000EC68AB684AB95A7BD20606D1A26922B94C
:1010D000DA897F2A01D96B6238BD9C4201D0FFF7C3
:1010E0007BFF6C62F8E700BFF80D0020D00D0020F8
:1010F00008B590F90D200146002A437B04DA03F07D
:101100007F03437303F003FA044B9868431A584271
:101110005841BDE80840FFF7CBBF00BFD00D00200D
:101120002DE9F041064615461C464FF02003EFF32B
:10113000118783F31188BFF36F8F03F02AFA87F3C7
:101140001188BFF36F8FB4F1FF3F08BFB5F1FF3FC8
:1011500008D02A46234606F118000349BDE8F041AD
:1011600000F012BBBDE8F0810746010010B50C4647
:10117000064B11469868064B1860DDE90223FFF71D
:10118000CFFF2046BDE81040FDF7EEB9D00D00209E
:101190000C0E002070B50446183003F09CFA4FF096
:1011A0002003EFF3118683F31188BFF36F8F94F957
:1011B0000D20637B002A05DA03F07F03204663736A
:1011C00003F0A5F90B4D637BA86843F0100363732C
:1011D000031B58425841FFF76BFF86F31188BFF39A
:1011E0006F8FAB68A34203D1BDE8704003F0C1B973
:1011F00070BD00BFD00D002010B54FF02003EFF3FD
:10120000118483F31188BFF36F8F084B00209A6815
:10121000D37B0133D373FFF74BFF84F31188BFF304
:101220006F8FBDE8104003F0A4B900BFD00D0020BF
:1012300070B590F90D200146002A437B04DA03F0D3
:101240007F03437303F063F94B7B154A63F07F031D
:101250004B7302F12805D2E90A34AB421BD0D3B15B
:1012600091F90E6093F90E0086420FD0801B002882
:101270000CDD5868C1E90030016059609068BDE834
:101280007040431A58425841FFF712BFA34202D0A0
:101290001B68002BE6D1C1E900542160D162EDE763
:1012A000D00D0020014638B54FF02003EFF3118434
:1012B00083F31188BFF36F8F154B164A9868156832
:1012C000A84206D1FFF788FE84F31188BFF36F8F21
:1012D00038BD00251560104A1268BAB1C2897F2A4C
:1012E00014D8427BD20611D10C4A90F90E501268E4
:1012F00095420BDB0A4A904208D01A698A4202DC06
:10130000FFF796FFDEE7521A1A61DDE70022FBE7DE
:10131000D00D00200C0E0020140E0020100E002016
:10132000C004002070B490F90D20437B002A2ADB12
:10133000DA0628D1826932BB144A63F07F03437313
:1013400002F12805D2E90A34AB4217D0B3B190F9C3
:101350000E6093F90E108E420BD0891B002908DD18
:101360005A68C0E9003210605860002070BCFFF776
:101370009FBEA34202D01B68002BEAD1C0E90054F3
:101380002060D062F1E770BC704700BFD00D002034
:1013900010B54FF02002EFF3118482F31188BFF3F0
:1013A0006F8F427B510704D484F31188BFF36F8F92
:1013B00010BD22F004024273FFF7B4FF2146BDE8DE
:1013C00010400148FFF74EBE842E0020F8B50446B9
:1013D0004FF02003EFF3118683F31188BFF36F8F73
:1013E000437B49B2DA0633D182698ABB03F07F03BB
:1013F000437303F08CF8437B174A63F07F03437316
:101400008173104650F8283F83421BD0D3B1D76A6E
:1014100093F90E50A94210D06D1A002D0DDD5A68B7
:10142000C4E9003214605C600120FFF741FE012036
:1014300086F31188BFF36F8FF8BDBB4202D01B68E3
:10144000002BE5D1D36AC4E900031C60D462EBE74A
:101450000020A173ECE700BFD00D00200021044B59
:10146000084603F12802C3E90A22FFF7CBBD00BFFB
:10147000D00D00202549F8B58A68254B9A423BD00B
:101480004FF02003EFF3118583F31188BFF36F8FC3
:101490008868437B03F07F03437303F038F8084602
:1014A0008B685A7B62F07F025A7350F8282F824271
:1014B0001CD0DAB1CF6A93F90E6092F90E40A642C1
:1014C0000FD0A41B002C0CDD5168C3E900210B6078
:1014D00053600120FFF7ECFD2846BDE8F840FDF71A
:1014E00043B8BA4202D01268002AE6D1CA6AC3E9F8
:1014F00000021360CB62ECE74FF02003EFF31180A2
:1015000083F31188BFF36F8FE7E700BFD00D002092
:10151000C004002050EA01032DE9F04105460E46C3
:1015200004D1FFF7A7FF0020BDE8F08103F013F915
:1015300004464FF02003EFF3118883F31188BFF3C3
:101540006F8F0F4F0F4BB8681860FFF7D1FDB86869
:101550000D492A463346183000F016F9BA6840465D
:10156000537B43F010035373FCF7FEFF03F0F3F8D3
:101570006219101A63EB0303002BB8BF0020D3E7F6
:10158000D00D00200C0E002007460100B1F1FF3FF6
:1015900008BFB0F1FF3F08B506D1084B9868FFF7C8
:1015A000F9FD4FF0FF3008BDFFF7B4FF4FF47A7339
:1015B00080FB0303C00B40EA4340F4E7D00D00205A
:1015C000014B9868704700BFD00D0020EFF30583F2
:1015D0003BB9054B9B68D8897F288CBF0020012030
:1015E00070470020704700BFD00D00202DE9F0416A
:1015F00004464FF02003EFF3118683F31188BFF305
:101600006F8F437B1A0705D586F31188BFF36F8F61
:10161000BDE8F08123F0200242F00801D20923D175
:101620004173A36813B1204602F079FF04F118005A
:1016300003F051F84FF0000804F15807A56DBD42C2
:1016400000D0CDB90120FFF733FD2046FFF766F942
:10165000104B9B68A342D7D1EFF30583002BD3D166
:101660003046FCF781FFCFE703F05F0343F0080348
:10167000437302F04CFFD4E7284602F050FF05F117
:10168000180003F028F82846C5F88C80FFF74AFEBA
:10169000D4E700BFD00D0020D3B5DDE90667089C74
:1016A000CDE90067FFF762FD1CB1034B9B685B69E6
:1016B000236002B0D0BD00BFD00D002008B50648A1
:1016C000064A0749121A01F048F9BDE80840054AE0
:1016D0000549064801F041B900000020A802002099
:1016E000484F010000000000484F010000000020AA
:1016F000034B1B680BB9FCF707BE0020704700BF07
:10170000180E0020114B10B51C689C4208BF002425
:10171000FFF7EEFF03466CB1D4E90402C01A62EB96
:10172000E373012873F100020DDBB0F1004F73F198
:10173000000301DB6FF00040054B1B6913B19842B9
:10174000A8BF184610BD0020F6E700BF0801002022
:10175000D00D002030B5036868B10A4A5268904243
:1017600009D043B1D3E90421D0E90445121941EB72
:101770000501C3E90421426813605A600023C0E9EF
:10178000003330BD08010020B3F1FF3F08BFB2F1C4
:10179000FF3F2DE9F84F05460E469146984665D025
:1017A0006FF0010A4FF0FF3B571C43F10004BAEB06
:1017B00007036BEB0403002B0FDBFFF799FF314BA3
:1017C000D3E90024BAEB02026BEB0404B2EB09028A
:1017D00064EB0804171A64EBE074AE604FF020036A
:1017E000EFF3118683F31188BFF36F8FFFF780FF4C
:1017F000012F74F100033A46BCBF01220024224F9E
:1018000012183B6844EBE074BB42C5E9042402D0E3
:10181000D7F804C02BB97B68C5E900731D607D60F3
:1018200011E0D3E90414D5E904208A4270EB040ED8
:101830001EDA8A1A64EB0000C3E904205A68C5E97D
:10184000003215605D603B68BB420BD09D4209D100
:10185000FFF758FF18B10D4B1B69834202D00021DE
:10186000FCF720FD86F31188BFF36F8FBDE8F88F7A
:10187000521A60EB04006345C5E90420CBD01B6815
:10188000C8E700BFE005002008010020D00D0020BF
:101890002DE9F8430546FFF705FD4FF02003EFF370
:1018A000118483F31188BFF36F8F244EDFF890808B
:1018B0003560244DD8F80000326840454FEAE277A1
:1018C000D5E9001E0BD050B1D0E9043C9A4277EB29
:1018D0000C0916DA9B1A6CEB070CC0E9043C521891
:1018E0004EEB0707C5E9002700253560FFF70AFF23
:1018F0002946FCF7D7FC84F31188BFF36F8FBDE84E
:10190000F88359184EEBE377D31A33600022002393
:10191000C0E90423C5E90017FFF71CFF84F3118811
:10192000BFF36F8F836898474FF02003EFF3118464
:1019300083F31188BFF36F8FBCE700BF180E002040
:1019400008010020E005002010B54FF02003EFF360
:10195000118483F31188BFF36F8FFCF7D5FC054A20
:10196000D2E90031C01841F1000184F31188BFF3BE
:101970006F8F10BDE005002073B506460D4602F0DE
:10198000ACFC80B90B4B9B68D3F884407CB12A1D1A
:1019900009D200200021CDE90001204646F00401D3
:1019A00002F0F8FB08B9002401E00460041D2046A1
:1019B00002B070BDD00D0020024A0349034800F078
:1019C00048BA00BF3E4F0100F84E0100184F010019
:1019D0001FB50024084B4FF40062029302AB009342
:1019E00006494FF0FF3306488DF80C40FFF7BCFA6C
:1019F000204604B010BD00BF3F4F0100C83B00208F
:101A0000E805002010B50A4C23681BB10123002013
:101A1000236010BD00F0AEF80028F7D0013806288A
:101A200003D8044B53F8200010BD034810BD00BF7D
:101A30001C0E0020804C0100FE8FFFFFBFF34F8F74
:101A40000549064BCA6802F4E0621343CB60BFF35A
:101A50004F8F00BFFDE700BF00ED00E00400FA0576
:101A60004FF0FE33002130B4064A074D074C2B607F
:101A700013602360064A074CEB606368C2F80015E8
:101A800030BC184704148450001484500814845047
:101A90000000845010010020024BD0E90012C3E97D
:101AA000001270471001002048B143682BB1BFF30A
:101AB0005F8F0023036018467047024870476FF439
:101AC000E0407047EA8FFFFF10B5044628B1636815
