:020000040100F9
:1000000000000121CD050001F5050001F705000103
:10001000F9050001FB050001FD05000100000000DD
:10002000000000000000000000000000FF050001CB
:1000300001060001000000000306000105060001A2
:1000400000000000000000000000000000000000B0
:100050000000000007060001000000000000000092
:100060000706000107060001070600010706000158
:100070000706000107060001070600010000000056
:100080000706000107060001070600010706000138
:100090000706000100000000070600010000000044
:1000A0000706000107060001070600010706000118
:1000B0000706000107060001000000000000000024
:1000C0000000000000000000000000000000000030
:1000D0000000000000000000000000000000000020
:1000E0000000000000000000000000000000000010
:1000F0000000000000000000000000000000000000
:1001000000000000000000000000000000000000EF
:1001100000000000000000000000000000000000DF
:1001200000000000000000000000000000000000CF
:1001300000000000000000000000000000000000BF
:1001400000000000000000000000000000000000AF
:10015000000000000000000000000000000000009F
:10016000000000000000000000000000000000008F
:10017000000000000000000000000000000000007F
:10018000000000000000000000000000000000006F
:10019000000000000000000000000000000000005F
:1001A000000000000000000000000000000000004F
:1001B000000000000000000000000000000000003F
:1001C000000000000000000000000000000000002F
:1001D000000000000000000000000000000000001F
:1001E000000000000000000000000000000000000F
:1001F00000000000000000000000000000000000FF
:1002000000000000000000000000000000000000EE
:1002100000000000000000000000000000000000DE
:1002200000000000000000000000000000000000CE
:1002300000000000000000000000000000000000BE
:100240000000000010B5054C237833B9044B13B1FE
:10025000044800E000BF0123237010BD3C040021CE
:1002600000000000C807000108B5034B1BB103499B
:10027000034800E000BF08BD00000000400400216A
:10028000C8070001A3F5803A704700BF174B002B49
:1002900008BF134B9D46FFF7F5FF00218B460F4625
:1002A0001348144A121A00F05FF80E4B002B00D0CE
:1002B00098470D4B002B00D09847002000210400E8
:1002C0000D000D48002802D00C4800F009F900F09C
:1002D00027F82000290000F06DF900F011F800BFA8
:1002E00000000800000000000000000000000121E4
:1002F0003C0400217C040021E1040001ED04000124
:1003000008B50021044600F089F8044B1868C36B57
:1003100003B19847204600F04BF900BFC407000125
:1003200070B50D4E0D4D761BB61006D0002401346D
:1003300055F8043B9847A642F9D1094E00F036FA29
:10034000084D761BB61006D00024013455F8043B46
:100350009847A642F9D170BD300400213004002135
:100360003804002130040021F0B4860746D0541E22
:10037000002A3CD0CAB2034601E0013C37D303F85F
:10038000012B9D07F9D1032C2AD9CDB20F2C45EAB8
:10039000052545EA054534D9A4F1100603F12007E7
:1003A00003F1100226F00F0C3609674442E90455A8
:1003B00042E902551032BA42F8D1721C14F00C0F07
:1003C00004F00F0603EB021213D0331F23F00303D4
:1003D0000433134442F8045B9342FBD106F0030458
:1003E0002CB1CAB21C4403F8012B9C42FBD1F0BCD7
:1003F000704734461346002CF3D1F8E71446034601
:10040000C1E71A462646E0E7024B13B1024800F066
:1004100067B8704700000000ED0400012E4B2DE985
:10042000F04F834683B018680F46CDF804B000F053
:1004300073F82A4BD3F80080D8F8486196B14FF092
:1004400001094FF0000A7468651E0BD4013406EBF5
:10045000840477B1D4F80031BB420AD0013D043C9A
:100460006B1CF6D11C4B186803B0BDE8F04F00F0D0
:1004700055B873682268013BAB420CBF7560C4F885
:1004800000A0002AEAD009FA05F1D6F88801D6F8CA
:1004900004B001420BD1904772685A4512D1D8F886
:1004A0004831B342DAD01E46002ECCD1DAE7D6F876
:1004B0008C0101420BD1D4F88010019890477268EA
:1004C0005A45ECD0D8F84861002EBCD1CAE7D4F820
:1004D00080009047E0E700BF28040021C407000126
:1004E000002301461A46184600F01AB838B5084BE2
:1004F000084D5B1B9C1007D0043B1D44013C55F884
:1005000004399847002CF9D1BDE8384000F054B9BF
:100510003C04002138040021704700BF704700BF31
:100520002DE9F047DFF884A0064698460F46DAF832
:1005300000009146FFF7F0FF1B4B1B68D3F84841C2
:1005400034B365681F2D28DC5EB96B1C0235DAF800
:100550000000636044F82570FFF7E0FF0020BDE86D
:10056000F08704EB85030121022EC3F8889001FA7D
:1005700005F1D4F8882142EA0102C4F88821C3F8C1
:100580000881E2D1D4F88C311943C4F88C11DCE72E
:1005900003F5A674C3F84841D3E7DAF80000FFF783
:1005A000BDFF4FF0FF30DAE7C40700012804002147
:1005B000FEE700BF80B400AF024B034AC3F84425F6
:1005C000FEE700BF00600041FA50FA500649074AB2
:1005D000074B9B1A03DD043BC858D050FBDC00F0EE
:1005E00091F8FFF753FE0000D4070001000000213E
:1005F0003C040021FEE7FEE7FEE7FEE7FEE7FEE73C
:10060000FEE7FEE7FEE7FEE780B483B000AF144BE1
:100610001B687B60134B1B683B607B68072B19D101
:100620003B68023B032B13D801A252F823F000BF12
:100630004106000145060001490600014D06000182
:10064000012308E0002306E0002304E0002302E089
:10065000002300E0002318460C37BD4680BC7047DD
:100660003001FF013401FF0180B483B000AF144BAF
:100670001B687B60134B1B683B607B68072B19D1A1
:100680003B68023B032B13D801A252F823F000BFB2
:10069000A1060001A5060001A9060001AD060001A2
:1006A000012308E0012306E0012304E0012302E026
:1006B000012300E0002318460C37BD4680BC70477C
:1006C0003001FF013401FF0180B400AF044B054A43
:1006D0001B68C2F8443500BFBD4680BC704700BFF0
:1006E0000080FF010060004180B400AF034B044A6A
:1006F0001A6000BFBD4680BC704700BF2C040021BB
:100700000090D00380B582B000AF00237B6000234F
:100710007B600EE02349234A7B68603352F8332024
:100720007B686033DB000B445B6813607B680133DC
:100730007B607B681F2B07D81A4A7B68603352F8AE
:100740003330B3F1FF3FE5D1FFF75EFF0346002BE7
:100750000ED0154BD3F8003403F00103002B07D063
:10076000114B0022C3F814210F4B0022C3F81821AB
:10077000FFF77AFF0346002B0BD00B4BD3F8003466
:1007800003F00103002B04D0074B6FF00102C3F804
:100790000024FFF799FFFFF7A7FF00BF0837BD460A
:1007A00080BD00BF0000FF0100500041F8B500BF50
:1007B000F8BC08BC9E467047F8B500BFF8BC08BC42
:0C07C0009E467047000000210000000071
:0807CC00B8FAFF7F01000000F4
:1007D40000000000EC02002154030021BC030021AE
:1007E4000000000000000000000000000000000005
:1007F40000000000000000000000000000000000F5
:1008040000000000000000000000000000000000E4
:1008140000000000000000000000000000000000D4
:1008240000000000000000000000000000000000C4
:1008340000000000000000000000000000000000B4
:1008440000000000000000000000000000000000A4
:100854000000000000000000000000000000000094
:100864000000000000000000000000000000000084
:100874000000000000000000010000000000000073
:100884000E33CDAB34126DE6ECDE05000B00000038
:100894000000000000000000000000000000000054
:1008A4000000000000000000000000000000000044
:1008B4000000000000000000000000000000000034
:1008C4000000000000000000000000000000000024
:100BF4000000000000000000580400210090D00311
:0C0C040009040001690200014502000122
:04000005010005CD24
:00000001FF
